{
	"data": {
		"bytecode": {
			"linkReferences": {},
			"object": "60a06040819052600060808190526200001b91600f9162000290565b506040805160208101918290526000908190526200003c9160109162000290565b506011805460ff19166001179055670de0b6b3a7640000601255600a60135560056014553480156200006d57600080fd5b50604080518082018252601a81527f4f6173697320456d6572616c64204e616d6520536572766963650000000000006020808301918252835180850190945260048452634f454e5360e01b908401528151919291620000cf9160009162000290565b508051620000e590600190602084019062000290565b50505062000102620000fc6200011360201b60201c565b62000117565b6200010d3362000169565b62000373565b3390565b600a80546001600160a01b038381166001600160a01b0319831681179093556040519116919082907f8be0079c531659141344cd1fd0a4f28419497f9722a3daafe3b4186f6b6457e090600090a35050565b6200018481600b6200018760201b62001bfc1790919060201c565b50565b6200019382826200020b565b15620001e65760405162461bcd60e51b815260206004820152601f60248201527f526f6c65733a206163636f756e7420616c72656164792068617320726f6c650060448201526064015b60405180910390fd5b6001600160a01b0316600090815260209190915260409020805460ff19166001179055565b60006001600160a01b038216620002705760405162461bcd60e51b815260206004820152602260248201527f526f6c65733a206163636f756e7420697320746865207a65726f206164647265604482015261737360f01b6064820152608401620001dd565b506001600160a01b03166000908152602091909152604090205460ff1690565b8280546200029e9062000336565b90600052602060002090601f016020900481019282620002c257600085556200030d565b82601f10620002dd57805160ff19168380011785556200030d565b828001600101855582156200030d579182015b828111156200030d578251825591602001919060010190620002f0565b506200031b9291506200031f565b5090565b5b808211156200031b576000815560010162000320565b600181811c908216806200034b57607f821691505b602082108114156200036d57634e487b7160e01b600052602260045260246000fd5b50919050565b61398980620003836000396000f3fe6080604052600436106102c95760003560e01c80635d893ba01161017557806398d5fdca116100dc578063bc7b6d6211610095578063c87b56dd1161006f578063c87b56dd14610839578063d231563014610859578063e985e9c51461086e578063f2fde38b146108b757600080fd5b8063bc7b6d62146107e4578063c479a80414610804578063c6438cb81461082457600080fd5b806398d5fdca1461072f578063a22cb46514610744578063ab3b87fe14610764578063ad59e22614610784578063b3f9e4cb146107a4578063b88d4fde146107c457600080fd5b80637ef09bca1161012e5780637ef09bca146106875780638da5cb5b146106a75780638f55ee79146106c557806391b7f5ed146106da57806395d89b41146106fa57806398a602431461070f57600080fd5b80635d893ba0146105d85780636352211e146105f257806369e2f0fb1461061257806370a0823114610632578063715018a61461065257806376f909ae1461066757600080fd5b8063358deb1c116102345780634aaf4a12116101ed5780634f6ccce7116101c75780634f6ccce7146105585780635040ddf21461057857806350b3a1441461059857806355f804b3146105b857600080fd5b80634aaf4a12146105035780634cd637b5146105235780634f558e791461053857600080fd5b8063358deb1c146104665780633ccfd60b1461047b5780633dd1eb611461048357806342842e0e146104a357806342966c68146104c3578063430c2081146104e357600080fd5b80631c3b028e116102865780631c3b028e146103be5780631ed40559146103d157806322434836146103e657806323b872dd146104065780632dc50d9a146104265780632f745c591461044657600080fd5b806301ffc9a7146102ce57806306fdde0314610303578063081812fc14610325578063095ea7b31461035d5780630bb78ec11461037f57806318160ddd1461039f575b600080fd5b3480156102da57600080fd5b506102ee6102e936600461336a565b6108d7565b60405190151581526020015b60405180910390f35b34801561030f57600080fd5b506103186108e8565b6040516102fa9190613629565b34801561033157600080fd5b506103456103403660046133d9565b61097a565b6040516001600160a01b0390911681526020016102fa565b34801561036957600080fd5b5061037d6103783660046132e9565b610a07565b005b34801561038b57600080fd5b5061031861039a3660046133d9565b610b1d565b3480156103ab57600080fd5b506008545b6040519081526020016102fa565b61037d6103cc3660046133a4565b610bb7565b3480156103dd57600080fd5b5061037d610f46565b3480156103f257600080fd5b5061037d610401366004613446565b610f84565b34801561041257600080fd5b5061037d6104213660046131a7565b610fb9565b34801561043257600080fd5b506103b0610441366004613446565b610feb565b34801561045257600080fd5b506103b06104613660046132e9565b611020565b34801561047257600080fd5b506013546103b0565b61037d6110b6565b34801561048f57600080fd5b5061037d61049e366004613159565b611106565b3480156104af57600080fd5b5061037d6104be3660046131a7565b61113c565b3480156104cf57600080fd5b5061037d6104de3660046133d9565b611157565b3480156104ef57600080fd5b506102ee6104fe3660046132e9565b61123f565b34801561050f57600080fd5b5061034561051e3660046133a4565b61124b565b34801561052f57600080fd5b506103b0611298565b34801561054457600080fd5b506102ee6105533660046133d9565b6112ae565b34801561056457600080fd5b506103b06105733660046133d9565b6112b9565b34801561058457600080fd5b5061037d61059336600461329b565b61134c565b3480156105a457600080fd5b506103b06105b33660046133a4565b611594565b3480156105c457600080fd5b5061037d6105d33660046133a4565b6115d4565b3480156105e457600080fd5b506011546102ee9060ff1681565b3480156105fe57600080fd5b5061034561060d3660046133d9565b611615565b34801561061e57600080fd5b5061037d61062d366004613159565b61168c565b34801561063e57600080fd5b506103b061064d366004613159565b6116bf565b34801561065e57600080fd5b5061037d611746565b34801561067357600080fd5b506103b06106823660046133d9565b61177a565b34801561069357600080fd5b506102ee6106a2366004613159565b6117a5565b3480156106b357600080fd5b50600a546001600160a01b0316610345565b3480156106d157600080fd5b506103186117b2565b3480156106e657600080fd5b5061037d6106f53660046133d9565b6117c1565b34801561070657600080fd5b506103186117f0565b34801561071b57600080fd5b5061037d61072a366004613313565b6117ff565b34801561073b57600080fd5b506012546103b0565b34801561075057600080fd5b5061037d61075f36600461325f565b611833565b34801561077057600080fd5b5061037d61077f3660046132e9565b6118f8565b34801561079057600080fd5b5061037d61079f3660046133a4565b61191e565b3480156107b057600080fd5b506103456107bf3660046133d9565b61195b565b3480156107d057600080fd5b5061037d6107df3660046131e3565b61197d565b3480156107f057600080fd5b5061037d6107ff3660046133f2565b6119af565b34801561081057600080fd5b5061037d61081f366004613415565b6119cc565b34801561083057600080fd5b506103b06119e9565b34801561084557600080fd5b506103186108543660046133d9565b6119fa565b34801561086557600080fd5b506014546103b0565b34801561087a57600080fd5b506102ee610889366004613174565b6001600160a01b03918216600090815260056020908152604080832093909416825291909152205460ff1690565b3480156108c357600080fd5b5061037d6108d2366004613159565b611b64565b60006108e282611c78565b92915050565b6060600080546108f79061388f565b80601f01602080910402602001604051908101604052809291908181526020018280546109239061388f565b80156109705780601f1061094557610100808354040283529160200191610970565b820191906000526020600020905b81548152906001019060200180831161095357829003601f168201915b5050505050905090565b600061098582611c9d565b6109eb5760405162461bcd60e51b815260206004820152602c60248201527f4552433732313a20617070726f76656420717565727920666f72206e6f6e657860448201526b34b9ba32b73a103a37b5b2b760a11b60648201526084015b60405180910390fd5b506000908152600460205260409020546001600160a01b031690565b6000610a1282611615565b9050806001600160a01b0316836001600160a01b03161415610a805760405162461bcd60e51b815260206004820152602160248201527f4552433732313a20617070726f76616c20746f2063757272656e74206f776e656044820152603960f91b60648201526084016109e2565b336001600160a01b0382161480610a9c5750610a9c8133610889565b610b0e5760405162461bcd60e51b815260206004820152603860248201527f4552433732313a20617070726f76652063616c6c6572206973206e6f74206f7760448201527f6e6572206e6f7220617070726f76656420666f7220616c6c000000000000000060648201526084016109e2565b610b188383611cba565b505050565b600d6020526000908152604090208054610b369061388f565b80601f0160208091040260200160405190810160405280929190818152602001828054610b629061388f565b8015610baf5780601f10610b8457610100808354040283529160200191610baf565b820191906000526020600020905b815481529060010190602001808311610b9257829003601f168201915b505050505081565b60115460ff16610c095760405162461bcd60e51b815260206004820152601a60248201527f53616c65206d7573742062652061637469766520746f2062757900000000000060448201526064016109e2565b60108054610c169061388f565b15159050610c365760405162461bcd60e51b81526004016109e2906137ae565b805180610c805760405162461bcd60e51b8152602060048201526018602482015277446f6d61696e206d757374206265206e6f6e2d656d70747960401b60448201526064016109e2565b6003811015610ca15760405162461bcd60e51b81526004016109e29061368e565b8060031415610cde57610cbf601354610cb960125490565b90611d28565b341015610cde5760405162461bcd60e51b81526004016109e2906136d3565b8060041415610d1557610cf6601454610cb960125490565b341015610d155760405162461bcd60e51b81526004016109e2906136d3565b60058110610d3f57601254341015610d3f5760405162461bcd60e51b81526004016109e2906136d3565b6000610d4a83611d34565b90506000610d5782611e97565b90506001811115610da8576001811115610da85760405162461bcd60e51b8152602060048201526012602482015271111bdb585a5b881b9bdd081cdd5c1c1bdc9d60721b60448201526064016109e2565b80610e77576000610e438360108054610dc09061388f565b80601f0160208091040260200160405190810160405280929190818152602001828054610dec9061388f565b8015610e395780601f10610e0e57610100808354040283529160200191610e39565b820191906000526020600020905b815481529060010190602001808311610e1c57829003601f168201915b5050505050611ef6565b9050806000191415610e7557826010604051602001610e63929190613579565b60405160208183030381529060405292505b505b600082604051602001610e8a919061352e565b6040516020818303038152906040528051906020012060001c9050610eae81611c9d565b15610ef35760405162461bcd60e51b8152602060048201526015602482015274446f6d61696e20616c72656164792065786973747360581b60448201526064016109e2565b610efd3382612069565b610f078184612083565b807fc5beef08f693b11c316c0c8394a377a0033c9cf701b8cd8afd79cecef60c395284604051610f379190613629565b60405180910390a25050505050565b600a546001600160a01b03163314610f705760405162461bcd60e51b81526004016109e290613728565b6011805460ff19811660ff90911615179055565b600a546001600160a01b03163314610fae5760405162461bcd60e51b81526004016109e290613728565b601391909155601455565b610fc4335b8261210c565b610fe05760405162461bcd60e51b81526004016109e29061375d565b610b188383836121f2565b600081610ff78461177a565b1161100157600080fd5b6000838152600c60205260409020611019908361239d565b9392505050565b600061102b836116bf565b821061108d5760405162461bcd60e51b815260206004820152602b60248201527f455243373231456e756d657261626c653a206f776e657220696e646578206f7560448201526a74206f6620626f756e647360a81b60648201526084016109e2565b506001600160a01b03919091166000908152600660209081526040808320938352929052205490565b600a546001600160a01b031633146110e05760405162461bcd60e51b81526004016109e290613728565b60405133904780156108fc02916000818181858888f1935050505061110457600080fd5b565b600a546001600160a01b031633146111305760405162461bcd60e51b81526004016109e290613728565b611139816123a9565b50565b610b188383836040518060200160405280600081525061197d565b61116033610fbe565b6111c55760405162461bcd60e51b815260206004820152603060248201527f4552433732314275726e61626c653a2063616c6c6572206973206e6f74206f7760448201526f1b995c881b9bdc88185c1c1c9bdd995960821b60648201526084016109e2565b6000818152600d6020526040902080546111de9061388f565b1590506111fc576000818152600d602052604081206111fc91612fd4565b6000818152600e60205260409020546001600160a01b031615611236576000818152600e6020526040902080546001600160a01b03191690555b611139816123b4565b6000611019838361210c565b60008061125783611d34565b905060008160405160200161126c919061352e565b6040516020818303038152906040528051906020012060001c905061129081611615565b949350505050565b60006112a9601454610cb960125490565b905090565b60006108e282611c9d565b60006112c460085490565b82106113275760405162461bcd60e51b815260206004820152602c60248201527f455243373231456e756d657261626c653a20676c6f62616c20696e646578206f60448201526b7574206f6620626f756e647360a01b60648201526084016109e2565b6008828154811061133a5761133a613911565b90600052602060002001549050919050565b600a546001600160a01b031633146113765760405162461bcd60e51b81526004016109e290613728565b6001600160a01b0382166113c15760405162461bcd60e51b8152602060048201526012602482015271151bc81859191c995cdcc81a5cc81b9d5b1b60721b60448201526064016109e2565b601080546113ce9061388f565b151590506113ee5760405162461bcd60e51b81526004016109e2906137ae565b80516114375760405162461bcd60e51b8152602060048201526018602482015277446f6d61696e206d757374206265206e6f6e2d656d70747960401b60448201526064016109e2565b6003815110156114595760405162461bcd60e51b81526004016109e29061368e565b600061146482611d34565b9050600061147182611e97565b905060018111156114c25760018111156114c25760405162461bcd60e51b8152602060048201526012602482015271111bdb585a5b881b9bdd081cdd5c1c1bdc9d60721b60448201526064016109e2565b8061150e5760006114da8360108054610dc09061388f565b905080600019141561150c578260106040516020016114fa929190613579565b60405160208183030381529060405292505b505b600082604051602001611521919061352e565b6040516020818303038152906040528051906020012060001c905061154581611c9d565b1561158a5760405162461bcd60e51b8152602060048201526015602482015274446f6d61696e20616c72656164792065786973747360581b60448201526064016109e2565b610efd8582612069565b60008151600014156115a557600080fd5b816040516020016115b6919061352e565b60408051601f19818403018152919052805160209091012092915050565b600a546001600160a01b031633146115fe5760405162461bcd60e51b81526004016109e290613728565b805161161190600f90602084019061300e565b5050565b6000818152600260205260408120546001600160a01b0316806108e25760405162461bcd60e51b815260206004820152602960248201527f4552433732313a206f776e657220717565727920666f72206e6f6e657869737460448201526832b73a103a37b5b2b760b91b60648201526084016109e2565b600a546001600160a01b031633146116b65760405162461bcd60e51b81526004016109e290613728565b6111398161245b565b60006001600160a01b03821661172a5760405162461bcd60e51b815260206004820152602a60248201527f4552433732313a2062616c616e636520717565727920666f7220746865207a65604482015269726f206164647265737360b01b60648201526084016109e2565b506001600160a01b031660009081526003602052604090205490565b600a546001600160a01b031633146117705760405162461bcd60e51b81526004016109e290613728565b6111046000612466565b600061178582611c9d565b61178e57600080fd5b6000828152600c602052604090206108e2906124b8565b60006108e2600b836124c2565b6060601080546108f79061388f565b600a546001600160a01b031633146117eb5760405162461bcd60e51b81526004016109e290613728565b601255565b6060600180546108f79061388f565b8161180933610fbe565b61181257600080fd5b61182d84848460405180602001604052806000815250612545565b50505050565b6001600160a01b03821633141561188c5760405162461bcd60e51b815260206004820152601960248201527f4552433732313a20617070726f766520746f2063616c6c65720000000000000060448201526064016109e2565b3360008181526005602090815260408083206001600160a01b03871680855290835292819020805460ff191686151590811790915590519081529192917f17307eab39ab6107e8899845ad3d59bd9653f200f220920489ca2b5937696c31910160405180910390a35050565b8061190233610fbe565b61190b57600080fd5b610b1861191783611615565b84846121f2565b600a546001600160a01b031633146119485760405162461bcd60e51b81526004016109e290613728565b805161161190601090602084019061300e565b6000818152600e60205260408120546001600160a01b0316806108e257600080fd5b611987338361210c565b6119a35760405162461bcd60e51b81526004016109e29061375d565b61182d84848484612712565b816119b933610fbe565b6119c257600080fd5b610b188383612745565b816119d633610fbe565b6119df57600080fd5b610b1883836127b0565b60006112a9601354610cb960125490565b6060611a0582611c9d565b611a695760405162461bcd60e51b815260206004820152602f60248201527f4552433732314d657461646174613a2055524920717565727920666f72206e6f60448201526e3732bc34b9ba32b73a103a37b5b2b760891b60648201526084016109e2565b6000828152600d602052604081208054611a829061388f565b80601f0160208091040260200160405190810160405280929190818152602001828054611aae9061388f565b8015611afb5780601f10611ad057610100808354040283529160200191611afb565b820191906000526020600020905b815481529060010190602001808311611ade57829003601f168201915b505050505090506000611b0c61289d565b9050805160001415611b1f575092915050565b815115611b51578082604051602001611b3992919061354a565b60405160208183030381529060405292505050919050565b8084604051602001611b399291906135ca565b600a546001600160a01b03163314611b8e5760405162461bcd60e51b81526004016109e290613728565b6001600160a01b038116611bf35760405162461bcd60e51b815260206004820152602660248201527f4f776e61626c653a206e6577206f776e657220697320746865207a65726f206160448201526564647265737360d01b60648201526084016109e2565b61113981612466565b611c0682826124c2565b15611c535760405162461bcd60e51b815260206004820152601f60248201527f526f6c65733a206163636f756e7420616c72656164792068617320726f6c650060448201526064016109e2565b6001600160a01b0316600090815260209190915260409020805460ff19166001179055565b60006001600160e01b0319821663780e9d6360e01b14806108e257506108e2826128ac565b6000908152600260205260409020546001600160a01b0316151590565b600081815260046020526040902080546001600160a01b0319166001600160a01b0384169081179091558190611cef82611615565b6001600160a01b03167f8c5be1e5ebec7d5bd14f71427d1e84f3dd0314c0f7b2291e5b200ac8c7c3b92560405160405180910390a45050565b6000611019828461382d565b606060008290506000815167ffffffffffffffff811115611d5757611d57613927565b6040519080825280601f01601f191660200182016040528015611d81576020820181803683370190505b50905060005b8251811015611e8f576041838281518110611da457611da4613911565b016020015160f81c10801590611dd45750605a838281518110611dc957611dc9613911565b016020015160f81c11155b15611e3657828181518110611deb57611deb613911565b602001015160f81c60f81b60f81c6020611e059190613808565b60f81b828281518110611e1a57611e1a613911565b60200101906001600160f81b031916908160001a905350611e7d565b828181518110611e4857611e48613911565b602001015160f81c60f81b828281518110611e6557611e65613911565b60200101906001600160f81b031916908160001a9053505b80611e87816138ca565b915050611d87565b509392505050565b805160009060018381019184010182805b82841015611eed57835160ff16602e811415611ecc57611ec96001846137f0565b92505b611ed76001866137f0565b9450508080611ee5906138ca565b915050611ea8565b50949350505050565b81516000908390839060011180611f0e575060018151105b80611f1a575081518151115b15611f2b57600019925050506108e2565b6fffffffffffffffffffffffffffffffff82511115611f5057600019925050506108e2565b6000805b835181101561205b5782600081518110611f7057611f70613911565b602001015160f81c60f81b6001600160f81b031916848281518110611f9757611f97613911565b01602001516001600160f81b031916141561204957600191505b825182108015611fca57508351611fc883836137f0565b105b801561201e5750828281518110611fe357611fe3613911565b01602001516001600160f81b03191684611ffd84846137f0565b8151811061200d5761200d613911565b01602001516001600160f81b031916145b15612035578161202d816138ca565b925050611fb1565b82518214156120495793506108e292505050565b80612053816138ca565b915050611f54565b5060001993505050506108e2565b6116118282604051806020016040528060008152506128fc565b61208c82611c9d565b6120ed5760405162461bcd60e51b815260206004820152602c60248201527f4552433732314d657461646174613a2055524920736574206f66206e6f6e657860448201526b34b9ba32b73a103a37b5b2b760a11b60648201526084016109e2565b6000828152600d602090815260409091208251610b189284019061300e565b600061211782611c9d565b6121785760405162461bcd60e51b815260206004820152602c60248201527f4552433732313a206f70657261746f7220717565727920666f72206e6f6e657860448201526b34b9ba32b73a103a37b5b2b760a11b60648201526084016109e2565b600061218383611615565b9050806001600160a01b0316846001600160a01b031614806121be5750836001600160a01b03166121b38461097a565b6001600160a01b0316145b8061129057506001600160a01b0380821660009081526005602090815260408083209388168352929052205460ff16611290565b826001600160a01b031661220582611615565b6001600160a01b03161461226d5760405162461bcd60e51b815260206004820152602960248201527f4552433732313a207472616e73666572206f6620746f6b656e2074686174206960448201526839903737ba1037bbb760b91b60648201526084016109e2565b6001600160a01b0382166122cf5760405162461bcd60e51b8152602060048201526024808201527f4552433732313a207472616e7366657220746f20746865207a65726f206164646044820152637265737360e01b60648201526084016109e2565b6122da83838361292f565b6122e5600082611cba565b6001600160a01b038316600090815260036020526040812080546001929061230e90849061384c565b90915550506001600160a01b038216600090815260036020526040812080546001929061233c9084906137f0565b909155505060008181526002602052604080822080546001600160a01b0319166001600160a01b0386811691821790925591518493918716917fddf252ad1be2c89b69c2b068fc378daa952ba7f163c4a11628f55a4df523b3ef91a4505050565b6000611019838361293a565b611139600b82611bfc565b60006123bf82611615565b90506123cd8160008461292f565b6123d8600083611cba565b6001600160a01b038116600090815260036020526040812080546001929061240190849061384c565b909155505060008281526002602052604080822080546001600160a01b0319169055518391906001600160a01b038416907fddf252ad1be2c89b69c2b068fc378daa952ba7f163c4a11628f55a4df523b3ef908390a45050565b611139600b82612964565b600a80546001600160a01b038381166001600160a01b0319831681179093556040519116919082907f8be0079c531659141344cd1fd0a4f28419497f9722a3daafe3b4186f6b6457e090600090a35050565b60006108e2825490565b60006001600160a01b0382166125255760405162461bcd60e51b815260206004820152602260248201527f526f6c65733a206163636f756e7420697320746865207a65726f206164647265604482015261737360f01b60648201526084016109e2565b506001600160a01b03166000908152602091909152604090205460ff1690565b6001600160a01b03841661255857600080fd5b815161256357600080fd5b61256c82611e97565b1561257657600080fd5b61257f83611c9d565b61258857600080fd5b600061259383611d34565b9050600081600d60008781526020019081526020016000206040516020016125bc9291906135a0565b604051602081830303815290604052905060006125d882611594565b90506000612680600d600089815260200190815260200160002080546125fd9061388f565b80601f01602080910402602001604051908101604052809291908181526020018280546126299061388f565b80156126765780601f1061264b57610100808354040283529160200191612676565b820191906000526020600020905b81548152906001019060200180831161265957829003601f168201915b5050505050611e97565b905080600114156126a5576000878152600c602052604090206126a390836129e6565b505b8451156126bc576126b78883876128fc565b6126c6565b6126c68883612069565b6126d08284612083565b817fc5beef08f693b11c316c0c8394a377a0033c9cf701b8cd8afd79cecef60c3952846040516127009190613629565b60405180910390a25050505050505050565b61271d8484846121f2565b612729848484846129f2565b61182d5760405162461bcd60e51b81526004016109e29061363c565b61274e82611c9d565b61275757600080fd5b6000828152600e602052604080822080546001600160a01b0319166001600160a01b0385169081179091559051909184917fcbae0978f0621ebb4707a96540f8d3a937104526ceef2cdf1cf07b25c5e48cd49190a35050565b60006127bb82611d34565b9050600081600d60008681526020019081526020016000206040516020016127e49291906135a0565b6040516020818303038152906040529050600061280082611594565b6000868152600c6020526040902090915061281b9082612aff565b506000858152600e60205260409020546001600160a01b031615612856576000858152600e6020526040902080546001600160a01b03191690555b6000818152600d60205260409020805461286f9061388f565b15905061288d576000818152600d6020526040812061288d91612fd4565b612896816123b4565b5050505050565b6060600f80546108f79061388f565b60006001600160e01b031982166380ac58cd60e01b14806128dd57506001600160e01b03198216635b5e139f60e01b145b806108e257506301ffc9a760e01b6001600160e01b03198316146108e2565b6129068383612b0b565b61291360008484846129f2565b610b185760405162461bcd60e51b81526004016109e29061363c565b610b18838383612c4a565b600082600001828154811061295157612951613911565b9060005260206000200154905092915050565b61296e82826124c2565b6129c45760405162461bcd60e51b815260206004820152602160248201527f526f6c65733a206163636f756e7420646f6573206e6f74206861766520726f6c6044820152606560f81b60648201526084016109e2565b6001600160a01b0316600090815260209190915260409020805460ff19169055565b60006110198383612d02565b60006001600160a01b0384163b15612af457604051630a85bd0160e11b81526001600160a01b0385169063150b7a0290612a369033908990889088906004016135ec565b602060405180830381600087803b158015612a5057600080fd5b505af1925050508015612a80575060408051601f3d908101601f19168201909252612a7d91810190613387565b60015b612ada573d808015612aae576040519150601f19603f3d011682016040523d82523d6000602084013e612ab3565b606091505b508051612ad25760405162461bcd60e51b81526004016109e29061363c565b805181602001fd5b6001600160e01b031916630a85bd0160e11b149050611290565b506001949350505050565b60006110198383612d51565b6001600160a01b038216612b615760405162461bcd60e51b815260206004820181905260248201527f4552433732313a206d696e7420746f20746865207a65726f206164647265737360448201526064016109e2565b612b6a81611c9d565b15612bb75760405162461bcd60e51b815260206004820152601c60248201527f4552433732313a20746f6b656e20616c7265616479206d696e7465640000000060448201526064016109e2565b612bc36000838361292f565b6001600160a01b0382166000908152600360205260408120805460019290612bec9084906137f0565b909155505060008181526002602052604080822080546001600160a01b0319166001600160a01b03861690811790915590518392907fddf252ad1be2c89b69c2b068fc378daa952ba7f163c4a11628f55a4df523b3ef908290a45050565b6001600160a01b038316612ca557612ca081600880546000838152600960205260408120829055600182018355919091527ff3f7a9fe364faab93b216da50a3214154f22a0a2b415b23a84c8169e8b636ee30155565b612cc8565b816001600160a01b0316836001600160a01b031614612cc857612cc88382612e44565b6001600160a01b038216612cdf57610b1881612ee1565b826001600160a01b0316826001600160a01b031614610b1857610b188282612f90565b6000818152600183016020526040812054612d49575081546001818101845560008481526020808220909301849055845484825282860190935260409020919091556108e2565b5060006108e2565b60008181526001830160205260408120548015612e3a576000612d7560018361384c565b8554909150600090612d899060019061384c565b9050818114612dee576000866000018281548110612da957612da9613911565b9060005260206000200154905080876000018481548110612dcc57612dcc613911565b6000918252602080832090910192909255918252600188019052604090208390555b8554869080612dff57612dff6138fb565b6001900381819060005260206000200160009055905585600101600086815260200190815260200160002060009055600193505050506108e2565b60009150506108e2565b60006001612e51846116bf565b612e5b919061384c565b600083815260076020526040902054909150808214612eae576001600160a01b03841660009081526006602090815260408083208584528252808320548484528184208190558352600790915290208190555b5060009182526007602090815260408084208490556001600160a01b039094168352600681528383209183525290812055565b600854600090612ef39060019061384c565b60008381526009602052604081205460088054939450909284908110612f1b57612f1b613911565b906000526020600020015490508060088381548110612f3c57612f3c613911565b6000918252602080832090910192909255828152600990915260408082208490558582528120556008805480612f7457612f746138fb565b6001900381819060005260206000200160009055905550505050565b6000612f9b836116bf565b6001600160a01b039093166000908152600660209081526040808320868452825280832085905593825260079052919091209190915550565b508054612fe09061388f565b6000825580601f10612ff0575050565b601f0160209004906000526020600020908101906111399190613092565b82805461301a9061388f565b90600052602060002090601f01602090048101928261303c5760008555613082565b82601f1061305557805160ff1916838001178555613082565b82800160010185558215613082579182015b82811115613082578251825591602001919060010190613067565b5061308e929150613092565b5090565b5b8082111561308e5760008155600101613093565b600067ffffffffffffffff808411156130c2576130c2613927565b604051601f8501601f19908116603f011681019082821181831017156130ea576130ea613927565b8160405280935085815286868601111561310357600080fd5b858560208301376000602087830101525050509392505050565b80356001600160a01b038116811461313457600080fd5b919050565b600082601f83011261314a57600080fd5b611019838335602085016130a7565b60006020828403121561316b57600080fd5b6110198261311d565b6000806040838503121561318757600080fd5b6131908361311d565b915061319e6020840161311d565b90509250929050565b6000806000606084860312156131bc57600080fd5b6131c58461311d565b92506131d36020850161311d565b9150604084013590509250925092565b600080600080608085870312156131f957600080fd5b6132028561311d565b93506132106020860161311d565b925060408501359150606085013567ffffffffffffffff81111561323357600080fd5b8501601f8101871361324457600080fd5b613253878235602084016130a7565b91505092959194509250565b6000806040838503121561327257600080fd5b61327b8361311d565b91506020830135801515811461329057600080fd5b809150509250929050565b600080604083850312156132ae57600080fd5b6132b78361311d565b9150602083013567ffffffffffffffff8111156132d357600080fd5b6132df85828601613139565b9150509250929050565b600080604083850312156132fc57600080fd5b6133058361311d565b946020939093013593505050565b60008060006060848603121561332857600080fd5b6133318461311d565b925060208401359150604084013567ffffffffffffffff81111561335457600080fd5b61336086828701613139565b9150509250925092565b60006020828403121561337c57600080fd5b81356110198161393d565b60006020828403121561339957600080fd5b81516110198161393d565b6000602082840312156133b657600080fd5b813567ffffffffffffffff8111156133cd57600080fd5b61129084828501613139565b6000602082840312156133eb57600080fd5b5035919050565b6000806040838503121561340557600080fd5b8235915061319e6020840161311d565b6000806040838503121561342857600080fd5b82359150602083013567ffffffffffffffff8111156132d357600080fd5b6000806040838503121561345957600080fd5b50508035926020909101359150565b60008151808452613480816020860160208601613863565b601f01601f19169290920160200192915050565b8054600090600181811c90808316806134ae57607f831692505b60208084108214156134d057634e487b7160e01b600052602260045260246000fd5b8180156134e457600181146134f557613522565b60ff19861689528489019650613522565b60008881526020902060005b8681101561351a5781548b820152908501908301613501565b505084890196505b50505050505092915050565b60008251613540818460208701613863565b9190910192915050565b6000835161355c818460208801613863565b835190830190613570818360208801613863565b01949350505050565b6000835161358b818460208801613863565b61359781840185613494565b95945050505050565b600083516135b2818460208801613863565b601760f91b9083019081526135976001820185613494565b600083516135dc818460208801613863565b9190910191825250602001919050565b6001600160a01b038581168252841660208201526040810183905260806060820181905260009061361f90830184613468565b9695505050505050565b6020815260006110196020830184613468565b60208082526032908201527f4552433732313a207472616e7366657220746f206e6f6e20455243373231526560408201527131b2b4bb32b91034b6b83632b6b2b73a32b960711b606082015260800190565b60208082526025908201527f446f6d61696e207265717569726573206174206c656173742033206368617261604082015264637465727360d81b606082015260800190565b60208082526035908201527f496e73756666696369656e7420546f6b656e206f7220546f6b656e2076616c7560408201527419481cd95b9d081a5cc81b9bdd0818dbdc9c9958dd605a1b606082015260800190565b6020808252818101527f4f776e61626c653a2063616c6c6572206973206e6f7420746865206f776e6572604082015260600190565b60208082526031908201527f4552433732313a207472616e736665722063616c6c6572206973206e6f74206f6040820152701ddb995c881b9bdc88185c1c1c9bdd9959607a1b606082015260800190565b60208082526022908201527f546f70206c6576656c20646f6d61696e206d757374206265206e6f6e2d656d70604082015261747960f01b606082015260800190565b60008219821115613803576138036138e5565b500190565b600060ff821660ff84168060ff03821115613825576138256138e5565b019392505050565b6000816000190483118215151615613847576138476138e5565b500290565b60008282101561385e5761385e6138e5565b500390565b60005b8381101561387e578181015183820152602001613866565b8381111561182d5750506000910152565b600181811c908216806138a357607f821691505b602082108114156138c457634e487b7160e01b600052602260045260246000fd5b50919050565b60006000198214156138de576138de6138e5565b5060010190565b634e487b7160e01b600052601160045260246000fd5b634e487b7160e01b600052603160045260246000fd5b634e487b7160e01b600052603260045260246000fd5b634e487b7160e01b600052604160045260246000fd5b6001600160e01b03198116811461113957600080fdfea26469706673582212200ed9fcacdb9e65c22adb7f9caa965361f2916b61a9319e1137c0b8b3761ef90464736f6c63430008070033",
			"opcodes": "PUSH1 0xA0 PUSH1 0x40 DUP2 SWAP1 MSTORE PUSH1 0x0 PUSH1 0x80 DUP2 SWAP1 MSTORE PUSH3 0x1B SWAP2 PUSH1 0xF SWAP2 PUSH3 0x290 JUMP JUMPDEST POP PUSH1 0x40 DUP1 MLOAD PUSH1 0x20 DUP2 ADD SWAP2 DUP3 SWAP1 MSTORE PUSH1 0x0 SWAP1 DUP2 SWAP1 MSTORE PUSH3 0x3C SWAP2 PUSH1 0x10 SWAP2 PUSH3 0x290 JUMP JUMPDEST POP PUSH1 0x11 DUP1 SLOAD PUSH1 0xFF NOT AND PUSH1 0x1 OR SWAP1 SSTORE PUSH8 0xDE0B6B3A7640000 PUSH1 0x12 SSTORE PUSH1 0xA PUSH1 0x13 SSTORE PUSH1 0x5 PUSH1 0x14 SSTORE CALLVALUE DUP1 ISZERO PUSH3 0x6D JUMPI PUSH1 0x0 DUP1 REVERT JUMPDEST POP PUSH1 0x40 DUP1 MLOAD DUP1 DUP3 ADD DUP3 MSTORE PUSH1 0x1A DUP2 MSTORE PUSH32 0x4F6173697320456D6572616C64204E616D652053657276696365000000000000 PUSH1 0x20 DUP1 DUP4 ADD SWAP2 DUP3 MSTORE DUP4 MLOAD DUP1 DUP6 ADD SWAP1 SWAP5 MSTORE PUSH1 0x4 DUP5 MSTORE PUSH4 0x4F454E53 PUSH1 0xE0 SHL SWAP1 DUP5 ADD MSTORE DUP2 MLOAD SWAP2 SWAP3 SWAP2 PUSH3 0xCF SWAP2 PUSH1 0x0 SWAP2 PUSH3 0x290 JUMP JUMPDEST POP DUP1 MLOAD PUSH3 0xE5 SWAP1 PUSH1 0x1 SWAP1 PUSH1 0x20 DUP5 ADD SWAP1 PUSH3 0x290 JUMP JUMPDEST POP POP POP PUSH3 0x102 PUSH3 0xFC PUSH3 0x113 PUSH1 0x20 SHL PUSH1 0x20 SHR JUMP JUMPDEST PUSH3 0x117 JUMP JUMPDEST PUSH3 0x10D CALLER PUSH3 0x169 JUMP JUMPDEST PUSH3 0x373 JUMP JUMPDEST CALLER SWAP1 JUMP JUMPDEST PUSH1 0xA DUP1 SLOAD PUSH1 0x1 PUSH1 0x1 PUSH1 0xA0 SHL SUB DUP4 DUP2 AND PUSH1 0x1 PUSH1 0x1 PUSH1 0xA0 SHL SUB NOT DUP4 AND DUP2 OR SWAP1 SWAP4 SSTORE PUSH1 0x40 MLOAD SWAP2 AND SWAP2 SWAP1 DUP3 SWAP1 PUSH32 0x8BE0079C531659141344CD1FD0A4F28419497F9722A3DAAFE3B4186F6B6457E0 SWAP1 PUSH1 0x0 SWAP1 LOG3 POP POP JUMP JUMPDEST PUSH3 0x184 DUP2 PUSH1 0xB PUSH3 0x187 PUSH1 0x20 SHL PUSH3 0x1BFC OR SWAP1 SWAP2 SWAP1 PUSH1 0x20 SHR JUMP JUMPDEST POP JUMP JUMPDEST PUSH3 0x193 DUP3 DUP3 PUSH3 0x20B JUMP JUMPDEST ISZERO PUSH3 0x1E6 JUMPI PUSH1 0x40 MLOAD PUSH3 0x461BCD PUSH1 0xE5 SHL DUP2 MSTORE PUSH1 0x20 PUSH1 0x4 DUP3 ADD MSTORE PUSH1 0x1F PUSH1 0x24 DUP3 ADD MSTORE PUSH32 0x526F6C65733A206163636F756E7420616C72656164792068617320726F6C6500 PUSH1 0x44 DUP3 ADD MSTORE PUSH1 0x64 ADD JUMPDEST PUSH1 0x40 MLOAD DUP1 SWAP2 SUB SWAP1 REVERT JUMPDEST PUSH1 0x1 PUSH1 0x1 PUSH1 0xA0 SHL SUB AND PUSH1 0x0 SWAP1 DUP2 MSTORE PUSH1 0x20 SWAP2 SWAP1 SWAP2 MSTORE PUSH1 0x40 SWAP1 KECCAK256 DUP1 SLOAD PUSH1 0xFF NOT AND PUSH1 0x1 OR SWAP1 SSTORE JUMP JUMPDEST PUSH1 0x0 PUSH1 0x1 PUSH1 0x1 PUSH1 0xA0 SHL SUB DUP3 AND PUSH3 0x270 JUMPI PUSH1 0x40 MLOAD PUSH3 0x461BCD PUSH1 0xE5 SHL DUP2 MSTORE PUSH1 0x20 PUSH1 0x4 DUP3 ADD MSTORE PUSH1 0x22 PUSH1 0x24 DUP3 ADD MSTORE PUSH32 0x526F6C65733A206163636F756E7420697320746865207A65726F206164647265 PUSH1 0x44 DUP3 ADD MSTORE PUSH2 0x7373 PUSH1 0xF0 SHL PUSH1 0x64 DUP3 ADD MSTORE PUSH1 0x84 ADD PUSH3 0x1DD JUMP JUMPDEST POP PUSH1 0x1 PUSH1 0x1 PUSH1 0xA0 SHL SUB AND PUSH1 0x0 SWAP1 DUP2 MSTORE PUSH1 0x20 SWAP2 SWAP1 SWAP2 MSTORE PUSH1 0x40 SWAP1 KECCAK256 SLOAD PUSH1 0xFF AND SWAP1 JUMP JUMPDEST DUP3 DUP1 SLOAD PUSH3 0x29E SWAP1 PUSH3 0x336 JUMP JUMPDEST SWAP1 PUSH1 0x0 MSTORE PUSH1 0x20 PUSH1 0x0 KECCAK256 SWAP1 PUSH1 0x1F ADD PUSH1 0x20 SWAP1 DIV DUP2 ADD SWAP3 DUP3 PUSH3 0x2C2 JUMPI PUSH1 0x0 DUP6 SSTORE PUSH3 0x30D JUMP JUMPDEST DUP3 PUSH1 0x1F LT PUSH3 0x2DD JUMPI DUP1 MLOAD PUSH1 0xFF NOT AND DUP4 DUP1 ADD OR DUP6 SSTORE PUSH3 0x30D JUMP JUMPDEST DUP3 DUP1 ADD PUSH1 0x1 ADD DUP6 SSTORE DUP3 ISZERO PUSH3 0x30D JUMPI SWAP2 DUP3 ADD JUMPDEST DUP3 DUP2 GT ISZERO PUSH3 0x30D JUMPI DUP3 MLOAD DUP3 SSTORE SWAP2 PUSH1 0x20 ADD SWAP2 SWAP1 PUSH1 0x1 ADD SWAP1 PUSH3 0x2F0 JUMP JUMPDEST POP PUSH3 0x31B SWAP3 SWAP2 POP PUSH3 0x31F JUMP JUMPDEST POP SWAP1 JUMP JUMPDEST JUMPDEST DUP1 DUP3 GT ISZERO PUSH3 0x31B JUMPI PUSH1 0x0 DUP2 SSTORE PUSH1 0x1 ADD PUSH3 0x320 JUMP JUMPDEST PUSH1 0x1 DUP2 DUP2 SHR SWAP1 DUP3 AND DUP1 PUSH3 0x34B JUMPI PUSH1 0x7F DUP3 AND SWAP2 POP JUMPDEST PUSH1 0x20 DUP3 LT DUP2 EQ ISZERO PUSH3 0x36D JUMPI PUSH4 0x4E487B71 PUSH1 0xE0 SHL PUSH1 0x0 MSTORE PUSH1 0x22 PUSH1 0x4 MSTORE PUSH1 0x24 PUSH1 0x0 REVERT JUMPDEST POP SWAP2 SWAP1 POP JUMP JUMPDEST PUSH2 0x3989 DUP1 PUSH3 0x383 PUSH1 0x0 CODECOPY PUSH1 0x0 RETURN INVALID PUSH1 0x80 PUSH1 0x40 MSTORE PUSH1 0x4 CALLDATASIZE LT PUSH2 0x2C9 JUMPI PUSH1 0x0 CALLDATALOAD PUSH1 0xE0 SHR DUP1 PUSH4 0x5D893BA0 GT PUSH2 0x175 JUMPI DUP1 PUSH4 0x98D5FDCA GT PUSH2 0xDC JUMPI DUP1 PUSH4 0xBC7B6D62 GT PUSH2 0x95 JUMPI DUP1 PUSH4 0xC87B56DD GT PUSH2 0x6F JUMPI DUP1 PUSH4 0xC87B56DD EQ PUSH2 0x839 JUMPI DUP1 PUSH4 0xD2315630 EQ PUSH2 0x859 JUMPI DUP1 PUSH4 0xE985E9C5 EQ PUSH2 0x86E JUMPI DUP1 PUSH4 0xF2FDE38B EQ PUSH2 0x8B7 JUMPI PUSH1 0x0 DUP1 REVERT JUMPDEST DUP1 PUSH4 0xBC7B6D62 EQ PUSH2 0x7E4 JUMPI DUP1 PUSH4 0xC479A804 EQ PUSH2 0x804 JUMPI DUP1 PUSH4 0xC6438CB8 EQ PUSH2 0x824 JUMPI PUSH1 0x0 DUP1 REVERT JUMPDEST DUP1 PUSH4 0x98D5FDCA EQ PUSH2 0x72F JUMPI DUP1 PUSH4 0xA22CB465 EQ PUSH2 0x744 JUMPI DUP1 PUSH4 0xAB3B87FE EQ PUSH2 0x764 JUMPI DUP1 PUSH4 0xAD59E226 EQ PUSH2 0x784 JUMPI DUP1 PUSH4 0xB3F9E4CB EQ PUSH2 0x7A4 JUMPI DUP1 PUSH4 0xB88D4FDE EQ PUSH2 0x7C4 JUMPI PUSH1 0x0 DUP1 REVERT JUMPDEST DUP1 PUSH4 0x7EF09BCA GT PUSH2 0x12E JUMPI DUP1 PUSH4 0x7EF09BCA EQ PUSH2 0x687 JUMPI DUP1 PUSH4 0x8DA5CB5B EQ PUSH2 0x6A7 JUMPI DUP1 PUSH4 0x8F55EE79 EQ PUSH2 0x6C5 JUMPI DUP1 PUSH4 0x91B7F5ED EQ PUSH2 0x6DA JUMPI DUP1 PUSH4 0x95D89B41 EQ PUSH2 0x6FA JUMPI DUP1 PUSH4 0x98A60243 EQ PUSH2 0x70F JUMPI PUSH1 0x0 DUP1 REVERT JUMPDEST DUP1 PUSH4 0x5D893BA0 EQ PUSH2 0x5D8 JUMPI DUP1 PUSH4 0x6352211E EQ PUSH2 0x5F2 JUMPI DUP1 PUSH4 0x69E2F0FB EQ PUSH2 0x612 JUMPI DUP1 PUSH4 0x70A08231 EQ PUSH2 0x632 JUMPI DUP1 PUSH4 0x715018A6 EQ PUSH2 0x652 JUMPI DUP1 PUSH4 0x76F909AE EQ PUSH2 0x667 JUMPI PUSH1 0x0 DUP1 REVERT JUMPDEST DUP1 PUSH4 0x358DEB1C GT PUSH2 0x234 JUMPI DUP1 PUSH4 0x4AAF4A12 GT PUSH2 0x1ED JUMPI DUP1 PUSH4 0x4F6CCCE7 GT PUSH2 0x1C7 JUMPI DUP1 PUSH4 0x4F6CCCE7 EQ PUSH2 0x558 JUMPI DUP1 PUSH4 0x5040DDF2 EQ PUSH2 0x578 JUMPI DUP1 PUSH4 0x50B3A144 EQ PUSH2 0x598 JUMPI DUP1 PUSH4 0x55F804B3 EQ PUSH2 0x5B8 JUMPI PUSH1 0x0 DUP1 REVERT JUMPDEST DUP1 PUSH4 0x4AAF4A12 EQ PUSH2 0x503 JUMPI DUP1 PUSH4 0x4CD637B5 EQ PUSH2 0x523 JUMPI DUP1 PUSH4 0x4F558E79 EQ PUSH2 0x538 JUMPI PUSH1 0x0 DUP1 REVERT JUMPDEST DUP1 PUSH4 0x358DEB1C EQ PUSH2 0x466 JUMPI DUP1 PUSH4 0x3CCFD60B EQ PUSH2 0x47B JUMPI DUP1 PUSH4 0x3DD1EB61 EQ PUSH2 0x483 JUMPI DUP1 PUSH4 0x42842E0E EQ PUSH2 0x4A3 JUMPI DUP1 PUSH4 0x42966C68 EQ PUSH2 0x4C3 JUMPI DUP1 PUSH4 0x430C2081 EQ PUSH2 0x4E3 JUMPI PUSH1 0x0 DUP1 REVERT JUMPDEST DUP1 PUSH4 0x1C3B028E GT PUSH2 0x286 JUMPI DUP1 PUSH4 0x1C3B028E EQ PUSH2 0x3BE JUMPI DUP1 PUSH4 0x1ED40559 EQ PUSH2 0x3D1 JUMPI DUP1 PUSH4 0x22434836 EQ PUSH2 0x3E6 JUMPI DUP1 PUSH4 0x23B872DD EQ PUSH2 0x406 JUMPI DUP1 PUSH4 0x2DC50D9A EQ PUSH2 0x426 JUMPI DUP1 PUSH4 0x2F745C59 EQ PUSH2 0x446 JUMPI PUSH1 0x0 DUP1 REVERT JUMPDEST DUP1 PUSH4 0x1FFC9A7 EQ PUSH2 0x2CE JUMPI DUP1 PUSH4 0x6FDDE03 EQ PUSH2 0x303 JUMPI DUP1 PUSH4 0x81812FC EQ PUSH2 0x325 JUMPI DUP1 PUSH4 0x95EA7B3 EQ PUSH2 0x35D JUMPI DUP1 PUSH4 0xBB78EC1 EQ PUSH2 0x37F JUMPI DUP1 PUSH4 0x18160DDD EQ PUSH2 0x39F JUMPI JUMPDEST PUSH1 0x0 DUP1 REVERT JUMPDEST CALLVALUE DUP1 ISZERO PUSH2 0x2DA JUMPI PUSH1 0x0 DUP1 REVERT JUMPDEST POP PUSH2 0x2EE PUSH2 0x2E9 CALLDATASIZE PUSH1 0x4 PUSH2 0x336A JUMP JUMPDEST PUSH2 0x8D7 JUMP JUMPDEST PUSH1 0x40 MLOAD SWAP1 ISZERO ISZERO DUP2 MSTORE PUSH1 0x20 ADD JUMPDEST PUSH1 0x40 MLOAD DUP1 SWAP2 SUB SWAP1 RETURN JUMPDEST CALLVALUE DUP1 ISZERO PUSH2 0x30F JUMPI PUSH1 0x0 DUP1 REVERT JUMPDEST POP PUSH2 0x318 PUSH2 0x8E8 JUMP JUMPDEST PUSH1 0x40 MLOAD PUSH2 0x2FA SWAP2 SWAP1 PUSH2 0x3629 JUMP JUMPDEST CALLVALUE DUP1 ISZERO PUSH2 0x331 JUMPI PUSH1 0x0 DUP1 REVERT JUMPDEST POP PUSH2 0x345 PUSH2 0x340 CALLDATASIZE PUSH1 0x4 PUSH2 0x33D9 JUMP JUMPDEST PUSH2 0x97A JUMP JUMPDEST PUSH1 0x40 MLOAD PUSH1 0x1 PUSH1 0x1 PUSH1 0xA0 SHL SUB SWAP1 SWAP2 AND DUP2 MSTORE PUSH1 0x20 ADD PUSH2 0x2FA JUMP JUMPDEST CALLVALUE DUP1 ISZERO PUSH2 0x369 JUMPI PUSH1 0x0 DUP1 REVERT JUMPDEST POP PUSH2 0x37D PUSH2 0x378 CALLDATASIZE PUSH1 0x4 PUSH2 0x32E9 JUMP JUMPDEST PUSH2 0xA07 JUMP JUMPDEST STOP JUMPDEST CALLVALUE DUP1 ISZERO PUSH2 0x38B JUMPI PUSH1 0x0 DUP1 REVERT JUMPDEST POP PUSH2 0x318 PUSH2 0x39A CALLDATASIZE PUSH1 0x4 PUSH2 0x33D9 JUMP JUMPDEST PUSH2 0xB1D JUMP JUMPDEST CALLVALUE DUP1 ISZERO PUSH2 0x3AB JUMPI PUSH1 0x0 DUP1 REVERT JUMPDEST POP PUSH1 0x8 SLOAD JUMPDEST PUSH1 0x40 MLOAD SWAP1 DUP2 MSTORE PUSH1 0x20 ADD PUSH2 0x2FA JUMP JUMPDEST PUSH2 0x37D PUSH2 0x3CC CALLDATASIZE PUSH1 0x4 PUSH2 0x33A4 JUMP JUMPDEST PUSH2 0xBB7 JUMP JUMPDEST CALLVALUE DUP1 ISZERO PUSH2 0x3DD JUMPI PUSH1 0x0 DUP1 REVERT JUMPDEST POP PUSH2 0x37D PUSH2 0xF46 JUMP JUMPDEST CALLVALUE DUP1 ISZERO PUSH2 0x3F2 JUMPI PUSH1 0x0 DUP1 REVERT JUMPDEST POP PUSH2 0x37D PUSH2 0x401 CALLDATASIZE PUSH1 0x4 PUSH2 0x3446 JUMP JUMPDEST PUSH2 0xF84 JUMP JUMPDEST CALLVALUE DUP1 ISZERO PUSH2 0x412 JUMPI PUSH1 0x0 DUP1 REVERT JUMPDEST POP PUSH2 0x37D PUSH2 0x421 CALLDATASIZE PUSH1 0x4 PUSH2 0x31A7 JUMP JUMPDEST PUSH2 0xFB9 JUMP JUMPDEST CALLVALUE DUP1 ISZERO PUSH2 0x432 JUMPI PUSH1 0x0 DUP1 REVERT JUMPDEST POP PUSH2 0x3B0 PUSH2 0x441 CALLDATASIZE PUSH1 0x4 PUSH2 0x3446 JUMP JUMPDEST PUSH2 0xFEB JUMP JUMPDEST CALLVALUE DUP1 ISZERO PUSH2 0x452 JUMPI PUSH1 0x0 DUP1 REVERT JUMPDEST POP PUSH2 0x3B0 PUSH2 0x461 CALLDATASIZE PUSH1 0x4 PUSH2 0x32E9 JUMP JUMPDEST PUSH2 0x1020 JUMP JUMPDEST CALLVALUE DUP1 ISZERO PUSH2 0x472 JUMPI PUSH1 0x0 DUP1 REVERT JUMPDEST POP PUSH1 0x13 SLOAD PUSH2 0x3B0 JUMP JUMPDEST PUSH2 0x37D PUSH2 0x10B6 JUMP JUMPDEST CALLVALUE DUP1 ISZERO PUSH2 0x48F JUMPI PUSH1 0x0 DUP1 REVERT JUMPDEST POP PUSH2 0x37D PUSH2 0x49E CALLDATASIZE PUSH1 0x4 PUSH2 0x3159 JUMP JUMPDEST PUSH2 0x1106 JUMP JUMPDEST CALLVALUE DUP1 ISZERO PUSH2 0x4AF JUMPI PUSH1 0x0 DUP1 REVERT JUMPDEST POP PUSH2 0x37D PUSH2 0x4BE CALLDATASIZE PUSH1 0x4 PUSH2 0x31A7 JUMP JUMPDEST PUSH2 0x113C JUMP JUMPDEST CALLVALUE DUP1 ISZERO PUSH2 0x4CF JUMPI PUSH1 0x0 DUP1 REVERT JUMPDEST POP PUSH2 0x37D PUSH2 0x4DE CALLDATASIZE PUSH1 0x4 PUSH2 0x33D9 JUMP JUMPDEST PUSH2 0x1157 JUMP JUMPDEST CALLVALUE DUP1 ISZERO PUSH2 0x4EF JUMPI PUSH1 0x0 DUP1 REVERT JUMPDEST POP PUSH2 0x2EE PUSH2 0x4FE CALLDATASIZE PUSH1 0x4 PUSH2 0x32E9 JUMP JUMPDEST PUSH2 0x123F JUMP JUMPDEST CALLVALUE DUP1 ISZERO PUSH2 0x50F JUMPI PUSH1 0x0 DUP1 REVERT JUMPDEST POP PUSH2 0x345 PUSH2 0x51E CALLDATASIZE PUSH1 0x4 PUSH2 0x33A4 JUMP JUMPDEST PUSH2 0x124B JUMP JUMPDEST CALLVALUE DUP1 ISZERO PUSH2 0x52F JUMPI PUSH1 0x0 DUP1 REVERT JUMPDEST POP PUSH2 0x3B0 PUSH2 0x1298 JUMP JUMPDEST CALLVALUE DUP1 ISZERO PUSH2 0x544 JUMPI PUSH1 0x0 DUP1 REVERT JUMPDEST POP PUSH2 0x2EE PUSH2 0x553 CALLDATASIZE PUSH1 0x4 PUSH2 0x33D9 JUMP JUMPDEST PUSH2 0x12AE JUMP JUMPDEST CALLVALUE DUP1 ISZERO PUSH2 0x564 JUMPI PUSH1 0x0 DUP1 REVERT JUMPDEST POP PUSH2 0x3B0 PUSH2 0x573 CALLDATASIZE PUSH1 0x4 PUSH2 0x33D9 JUMP JUMPDEST PUSH2 0x12B9 JUMP JUMPDEST CALLVALUE DUP1 ISZERO PUSH2 0x584 JUMPI PUSH1 0x0 DUP1 REVERT JUMPDEST POP PUSH2 0x37D PUSH2 0x593 CALLDATASIZE PUSH1 0x4 PUSH2 0x329B JUMP JUMPDEST PUSH2 0x134C JUMP JUMPDEST CALLVALUE DUP1 ISZERO PUSH2 0x5A4 JUMPI PUSH1 0x0 DUP1 REVERT JUMPDEST POP PUSH2 0x3B0 PUSH2 0x5B3 CALLDATASIZE PUSH1 0x4 PUSH2 0x33A4 JUMP JUMPDEST PUSH2 0x1594 JUMP JUMPDEST CALLVALUE DUP1 ISZERO PUSH2 0x5C4 JUMPI PUSH1 0x0 DUP1 REVERT JUMPDEST POP PUSH2 0x37D PUSH2 0x5D3 CALLDATASIZE PUSH1 0x4 PUSH2 0x33A4 JUMP JUMPDEST PUSH2 0x15D4 JUMP JUMPDEST CALLVALUE DUP1 ISZERO PUSH2 0x5E4 JUMPI PUSH1 0x0 DUP1 REVERT JUMPDEST POP PUSH1 0x11 SLOAD PUSH2 0x2EE SWAP1 PUSH1 0xFF AND DUP2 JUMP JUMPDEST CALLVALUE DUP1 ISZERO PUSH2 0x5FE JUMPI PUSH1 0x0 DUP1 REVERT JUMPDEST POP PUSH2 0x345 PUSH2 0x60D CALLDATASIZE PUSH1 0x4 PUSH2 0x33D9 JUMP JUMPDEST PUSH2 0x1615 JUMP JUMPDEST CALLVALUE DUP1 ISZERO PUSH2 0x61E JUMPI PUSH1 0x0 DUP1 REVERT JUMPDEST POP PUSH2 0x37D PUSH2 0x62D CALLDATASIZE PUSH1 0x4 PUSH2 0x3159 JUMP JUMPDEST PUSH2 0x168C JUMP JUMPDEST CALLVALUE DUP1 ISZERO PUSH2 0x63E JUMPI PUSH1 0x0 DUP1 REVERT JUMPDEST POP PUSH2 0x3B0 PUSH2 0x64D CALLDATASIZE PUSH1 0x4 PUSH2 0x3159 JUMP JUMPDEST PUSH2 0x16BF JUMP JUMPDEST CALLVALUE DUP1 ISZERO PUSH2 0x65E JUMPI PUSH1 0x0 DUP1 REVERT JUMPDEST POP PUSH2 0x37D PUSH2 0x1746 JUMP JUMPDEST CALLVALUE DUP1 ISZERO PUSH2 0x673 JUMPI PUSH1 0x0 DUP1 REVERT JUMPDEST POP PUSH2 0x3B0 PUSH2 0x682 CALLDATASIZE PUSH1 0x4 PUSH2 0x33D9 JUMP JUMPDEST PUSH2 0x177A JUMP JUMPDEST CALLVALUE DUP1 ISZERO PUSH2 0x693 JUMPI PUSH1 0x0 DUP1 REVERT JUMPDEST POP PUSH2 0x2EE PUSH2 0x6A2 CALLDATASIZE PUSH1 0x4 PUSH2 0x3159 JUMP JUMPDEST PUSH2 0x17A5 JUMP JUMPDEST CALLVALUE DUP1 ISZERO PUSH2 0x6B3 JUMPI PUSH1 0x0 DUP1 REVERT JUMPDEST POP PUSH1 0xA SLOAD PUSH1 0x1 PUSH1 0x1 PUSH1 0xA0 SHL SUB AND PUSH2 0x345 JUMP JUMPDEST CALLVALUE DUP1 ISZERO PUSH2 0x6D1 JUMPI PUSH1 0x0 DUP1 REVERT JUMPDEST POP PUSH2 0x318 PUSH2 0x17B2 JUMP JUMPDEST CALLVALUE DUP1 ISZERO PUSH2 0x6E6 JUMPI PUSH1 0x0 DUP1 REVERT JUMPDEST POP PUSH2 0x37D PUSH2 0x6F5 CALLDATASIZE PUSH1 0x4 PUSH2 0x33D9 JUMP JUMPDEST PUSH2 0x17C1 JUMP JUMPDEST CALLVALUE DUP1 ISZERO PUSH2 0x706 JUMPI PUSH1 0x0 DUP1 REVERT JUMPDEST POP PUSH2 0x318 PUSH2 0x17F0 JUMP JUMPDEST CALLVALUE DUP1 ISZERO PUSH2 0x71B JUMPI PUSH1 0x0 DUP1 REVERT JUMPDEST POP PUSH2 0x37D PUSH2 0x72A CALLDATASIZE PUSH1 0x4 PUSH2 0x3313 JUMP JUMPDEST PUSH2 0x17FF JUMP JUMPDEST CALLVALUE DUP1 ISZERO PUSH2 0x73B JUMPI PUSH1 0x0 DUP1 REVERT JUMPDEST POP PUSH1 0x12 SLOAD PUSH2 0x3B0 JUMP JUMPDEST CALLVALUE DUP1 ISZERO PUSH2 0x750 JUMPI PUSH1 0x0 DUP1 REVERT JUMPDEST POP PUSH2 0x37D PUSH2 0x75F CALLDATASIZE PUSH1 0x4 PUSH2 0x325F JUMP JUMPDEST PUSH2 0x1833 JUMP JUMPDEST CALLVALUE DUP1 ISZERO PUSH2 0x770 JUMPI PUSH1 0x0 DUP1 REVERT JUMPDEST POP PUSH2 0x37D PUSH2 0x77F CALLDATASIZE PUSH1 0x4 PUSH2 0x32E9 JUMP JUMPDEST PUSH2 0x18F8 JUMP JUMPDEST CALLVALUE DUP1 ISZERO PUSH2 0x790 JUMPI PUSH1 0x0 DUP1 REVERT JUMPDEST POP PUSH2 0x37D PUSH2 0x79F CALLDATASIZE PUSH1 0x4 PUSH2 0x33A4 JUMP JUMPDEST PUSH2 0x191E JUMP JUMPDEST CALLVALUE DUP1 ISZERO PUSH2 0x7B0 JUMPI PUSH1 0x0 DUP1 REVERT JUMPDEST POP PUSH2 0x345 PUSH2 0x7BF CALLDATASIZE PUSH1 0x4 PUSH2 0x33D9 JUMP JUMPDEST PUSH2 0x195B JUMP JUMPDEST CALLVALUE DUP1 ISZERO PUSH2 0x7D0 JUMPI PUSH1 0x0 DUP1 REVERT JUMPDEST POP PUSH2 0x37D PUSH2 0x7DF CALLDATASIZE PUSH1 0x4 PUSH2 0x31E3 JUMP JUMPDEST PUSH2 0x197D JUMP JUMPDEST CALLVALUE DUP1 ISZERO PUSH2 0x7F0 JUMPI PUSH1 0x0 DUP1 REVERT JUMPDEST POP PUSH2 0x37D PUSH2 0x7FF CALLDATASIZE PUSH1 0x4 PUSH2 0x33F2 JUMP JUMPDEST PUSH2 0x19AF JUMP JUMPDEST CALLVALUE DUP1 ISZERO PUSH2 0x810 JUMPI PUSH1 0x0 DUP1 REVERT JUMPDEST POP PUSH2 0x37D PUSH2 0x81F CALLDATASIZE PUSH1 0x4 PUSH2 0x3415 JUMP JUMPDEST PUSH2 0x19CC JUMP JUMPDEST CALLVALUE DUP1 ISZERO PUSH2 0x830 JUMPI PUSH1 0x0 DUP1 REVERT JUMPDEST POP PUSH2 0x3B0 PUSH2 0x19E9 JUMP JUMPDEST CALLVALUE DUP1 ISZERO PUSH2 0x845 JUMPI PUSH1 0x0 DUP1 REVERT JUMPDEST POP PUSH2 0x318 PUSH2 0x854 CALLDATASIZE PUSH1 0x4 PUSH2 0x33D9 JUMP JUMPDEST PUSH2 0x19FA JUMP JUMPDEST CALLVALUE DUP1 ISZERO PUSH2 0x865 JUMPI PUSH1 0x0 DUP1 REVERT JUMPDEST POP PUSH1 0x14 SLOAD PUSH2 0x3B0 JUMP JUMPDEST CALLVALUE DUP1 ISZERO PUSH2 0x87A JUMPI PUSH1 0x0 DUP1 REVERT JUMPDEST POP PUSH2 0x2EE PUSH2 0x889 CALLDATASIZE PUSH1 0x4 PUSH2 0x3174 JUMP JUMPDEST PUSH1 0x1 PUSH1 0x1 PUSH1 0xA0 SHL SUB SWAP2 DUP3 AND PUSH1 0x0 SWAP1 DUP2 MSTORE PUSH1 0x5 PUSH1 0x20 SWAP1 DUP2 MSTORE PUSH1 0x40 DUP1 DUP4 KECCAK256 SWAP4 SWAP1 SWAP5 AND DUP3 MSTORE SWAP2 SWAP1 SWAP2 MSTORE KECCAK256 SLOAD PUSH1 0xFF AND SWAP1 JUMP JUMPDEST CALLVALUE DUP1 ISZERO PUSH2 0x8C3 JUMPI PUSH1 0x0 DUP1 REVERT JUMPDEST POP PUSH2 0x37D PUSH2 0x8D2 CALLDATASIZE PUSH1 0x4 PUSH2 0x3159 JUMP JUMPDEST PUSH2 0x1B64 JUMP JUMPDEST PUSH1 0x0 PUSH2 0x8E2 DUP3 PUSH2 0x1C78 JUMP JUMPDEST SWAP3 SWAP2 POP POP JUMP JUMPDEST PUSH1 0x60 PUSH1 0x0 DUP1 SLOAD PUSH2 0x8F7 SWAP1 PUSH2 0x388F JUMP JUMPDEST DUP1 PUSH1 0x1F ADD PUSH1 0x20 DUP1 SWAP2 DIV MUL PUSH1 0x20 ADD PUSH1 0x40 MLOAD SWAP1 DUP2 ADD PUSH1 0x40 MSTORE DUP1 SWAP3 SWAP2 SWAP1 DUP2 DUP2 MSTORE PUSH1 0x20 ADD DUP3 DUP1 SLOAD PUSH2 0x923 SWAP1 PUSH2 0x388F JUMP JUMPDEST DUP1 ISZERO PUSH2 0x970 JUMPI DUP1 PUSH1 0x1F LT PUSH2 0x945 JUMPI PUSH2 0x100 DUP1 DUP4 SLOAD DIV MUL DUP4 MSTORE SWAP2 PUSH1 0x20 ADD SWAP2 PUSH2 0x970 JUMP JUMPDEST DUP3 ADD SWAP2 SWAP1 PUSH1 0x0 MSTORE PUSH1 0x20 PUSH1 0x0 KECCAK256 SWAP1 JUMPDEST DUP2 SLOAD DUP2 MSTORE SWAP1 PUSH1 0x1 ADD SWAP1 PUSH1 0x20 ADD DUP1 DUP4 GT PUSH2 0x953 JUMPI DUP3 SWAP1 SUB PUSH1 0x1F AND DUP3 ADD SWAP2 JUMPDEST POP POP POP POP POP SWAP1 POP SWAP1 JUMP JUMPDEST PUSH1 0x0 PUSH2 0x985 DUP3 PUSH2 0x1C9D JUMP JUMPDEST PUSH2 0x9EB JUMPI PUSH1 0x40 MLOAD PUSH3 0x461BCD PUSH1 0xE5 SHL DUP2 MSTORE PUSH1 0x20 PUSH1 0x4 DUP3 ADD MSTORE PUSH1 0x2C PUSH1 0x24 DUP3 ADD MSTORE PUSH32 0x4552433732313A20617070726F76656420717565727920666F72206E6F6E6578 PUSH1 0x44 DUP3 ADD MSTORE PUSH12 0x34B9BA32B73A103A37B5B2B7 PUSH1 0xA1 SHL PUSH1 0x64 DUP3 ADD MSTORE PUSH1 0x84 ADD JUMPDEST PUSH1 0x40 MLOAD DUP1 SWAP2 SUB SWAP1 REVERT JUMPDEST POP PUSH1 0x0 SWAP1 DUP2 MSTORE PUSH1 0x4 PUSH1 0x20 MSTORE PUSH1 0x40 SWAP1 KECCAK256 SLOAD PUSH1 0x1 PUSH1 0x1 PUSH1 0xA0 SHL SUB AND SWAP1 JUMP JUMPDEST PUSH1 0x0 PUSH2 0xA12 DUP3 PUSH2 0x1615 JUMP JUMPDEST SWAP1 POP DUP1 PUSH1 0x1 PUSH1 0x1 PUSH1 0xA0 SHL SUB AND DUP4 PUSH1 0x1 PUSH1 0x1 PUSH1 0xA0 SHL SUB AND EQ ISZERO PUSH2 0xA80 JUMPI PUSH1 0x40 MLOAD PUSH3 0x461BCD PUSH1 0xE5 SHL DUP2 MSTORE PUSH1 0x20 PUSH1 0x4 DUP3 ADD MSTORE PUSH1 0x21 PUSH1 0x24 DUP3 ADD MSTORE PUSH32 0x4552433732313A20617070726F76616C20746F2063757272656E74206F776E65 PUSH1 0x44 DUP3 ADD MSTORE PUSH1 0x39 PUSH1 0xF9 SHL PUSH1 0x64 DUP3 ADD MSTORE PUSH1 0x84 ADD PUSH2 0x9E2 JUMP JUMPDEST CALLER PUSH1 0x1 PUSH1 0x1 PUSH1 0xA0 SHL SUB DUP3 AND EQ DUP1 PUSH2 0xA9C JUMPI POP PUSH2 0xA9C DUP2 CALLER PUSH2 0x889 JUMP JUMPDEST PUSH2 0xB0E JUMPI PUSH1 0x40 MLOAD PUSH3 0x461BCD PUSH1 0xE5 SHL DUP2 MSTORE PUSH1 0x20 PUSH1 0x4 DUP3 ADD MSTORE PUSH1 0x38 PUSH1 0x24 DUP3 ADD MSTORE PUSH32 0x4552433732313A20617070726F76652063616C6C6572206973206E6F74206F77 PUSH1 0x44 DUP3 ADD MSTORE PUSH32 0x6E6572206E6F7220617070726F76656420666F7220616C6C0000000000000000 PUSH1 0x64 DUP3 ADD MSTORE PUSH1 0x84 ADD PUSH2 0x9E2 JUMP JUMPDEST PUSH2 0xB18 DUP4 DUP4 PUSH2 0x1CBA JUMP JUMPDEST POP POP POP JUMP JUMPDEST PUSH1 0xD PUSH1 0x20 MSTORE PUSH1 0x0 SWAP1 DUP2 MSTORE PUSH1 0x40 SWAP1 KECCAK256 DUP1 SLOAD PUSH2 0xB36 SWAP1 PUSH2 0x388F JUMP JUMPDEST DUP1 PUSH1 0x1F ADD PUSH1 0x20 DUP1 SWAP2 DIV MUL PUSH1 0x20 ADD PUSH1 0x40 MLOAD SWAP1 DUP2 ADD PUSH1 0x40 MSTORE DUP1 SWAP3 SWAP2 SWAP1 DUP2 DUP2 MSTORE PUSH1 0x20 ADD DUP3 DUP1 SLOAD PUSH2 0xB62 SWAP1 PUSH2 0x388F JUMP JUMPDEST DUP1 ISZERO PUSH2 0xBAF JUMPI DUP1 PUSH1 0x1F LT PUSH2 0xB84 JUMPI PUSH2 0x100 DUP1 DUP4 SLOAD DIV MUL DUP4 MSTORE SWAP2 PUSH1 0x20 ADD SWAP2 PUSH2 0xBAF JUMP JUMPDEST DUP3 ADD SWAP2 SWAP1 PUSH1 0x0 MSTORE PUSH1 0x20 PUSH1 0x0 KECCAK256 SWAP1 JUMPDEST DUP2 SLOAD DUP2 MSTORE SWAP1 PUSH1 0x1 ADD SWAP1 PUSH1 0x20 ADD DUP1 DUP4 GT PUSH2 0xB92 JUMPI DUP3 SWAP1 SUB PUSH1 0x1F AND DUP3 ADD SWAP2 JUMPDEST POP POP POP POP POP DUP2 JUMP JUMPDEST PUSH1 0x11 SLOAD PUSH1 0xFF AND PUSH2 0xC09 JUMPI PUSH1 0x40 MLOAD PUSH3 0x461BCD PUSH1 0xE5 SHL DUP2 MSTORE PUSH1 0x20 PUSH1 0x4 DUP3 ADD MSTORE PUSH1 0x1A PUSH1 0x24 DUP3 ADD MSTORE PUSH32 0x53616C65206D7573742062652061637469766520746F20627579000000000000 PUSH1 0x44 DUP3 ADD MSTORE PUSH1 0x64 ADD PUSH2 0x9E2 JUMP JUMPDEST PUSH1 0x10 DUP1 SLOAD PUSH2 0xC16 SWAP1 PUSH2 0x388F JUMP JUMPDEST ISZERO ISZERO SWAP1 POP PUSH2 0xC36 JUMPI PUSH1 0x40 MLOAD PUSH3 0x461BCD PUSH1 0xE5 SHL DUP2 MSTORE PUSH1 0x4 ADD PUSH2 0x9E2 SWAP1 PUSH2 0x37AE JUMP JUMPDEST DUP1 MLOAD DUP1 PUSH2 0xC80 JUMPI PUSH1 0x40 MLOAD PUSH3 0x461BCD PUSH1 0xE5 SHL DUP2 MSTORE PUSH1 0x20 PUSH1 0x4 DUP3 ADD MSTORE PUSH1 0x18 PUSH1 0x24 DUP3 ADD MSTORE PUSH24 0x446F6D61696E206D757374206265206E6F6E2D656D707479 PUSH1 0x40 SHL PUSH1 0x44 DUP3 ADD MSTORE PUSH1 0x64 ADD PUSH2 0x9E2 JUMP JUMPDEST PUSH1 0x3 DUP2 LT ISZERO PUSH2 0xCA1 JUMPI PUSH1 0x40 MLOAD PUSH3 0x461BCD PUSH1 0xE5 SHL DUP2 MSTORE PUSH1 0x4 ADD PUSH2 0x9E2 SWAP1 PUSH2 0x368E JUMP JUMPDEST DUP1 PUSH1 0x3 EQ ISZERO PUSH2 0xCDE JUMPI PUSH2 0xCBF PUSH1 0x13 SLOAD PUSH2 0xCB9 PUSH1 0x12 SLOAD SWAP1 JUMP JUMPDEST SWAP1 PUSH2 0x1D28 JUMP JUMPDEST CALLVALUE LT ISZERO PUSH2 0xCDE JUMPI PUSH1 0x40 MLOAD PUSH3 0x461BCD PUSH1 0xE5 SHL DUP2 MSTORE PUSH1 0x4 ADD PUSH2 0x9E2 SWAP1 PUSH2 0x36D3 JUMP JUMPDEST DUP1 PUSH1 0x4 EQ ISZERO PUSH2 0xD15 JUMPI PUSH2 0xCF6 PUSH1 0x14 SLOAD PUSH2 0xCB9 PUSH1 0x12 SLOAD SWAP1 JUMP JUMPDEST CALLVALUE LT ISZERO PUSH2 0xD15 JUMPI PUSH1 0x40 MLOAD PUSH3 0x461BCD PUSH1 0xE5 SHL DUP2 MSTORE PUSH1 0x4 ADD PUSH2 0x9E2 SWAP1 PUSH2 0x36D3 JUMP JUMPDEST PUSH1 0x5 DUP2 LT PUSH2 0xD3F JUMPI PUSH1 0x12 SLOAD CALLVALUE LT ISZERO PUSH2 0xD3F JUMPI PUSH1 0x40 MLOAD PUSH3 0x461BCD PUSH1 0xE5 SHL DUP2 MSTORE PUSH1 0x4 ADD PUSH2 0x9E2 SWAP1 PUSH2 0x36D3 JUMP JUMPDEST PUSH1 0x0 PUSH2 0xD4A DUP4 PUSH2 0x1D34 JUMP JUMPDEST SWAP1 POP PUSH1 0x0 PUSH2 0xD57 DUP3 PUSH2 0x1E97 JUMP JUMPDEST SWAP1 POP PUSH1 0x1 DUP2 GT ISZERO PUSH2 0xDA8 JUMPI PUSH1 0x1 DUP2 GT ISZERO PUSH2 0xDA8 JUMPI PUSH1 0x40 MLOAD PUSH3 0x461BCD PUSH1 0xE5 SHL DUP2 MSTORE PUSH1 0x20 PUSH1 0x4 DUP3 ADD MSTORE PUSH1 0x12 PUSH1 0x24 DUP3 ADD MSTORE PUSH18 0x111BDB585A5B881B9BDD081CDD5C1C1BDC9D PUSH1 0x72 SHL PUSH1 0x44 DUP3 ADD MSTORE PUSH1 0x64 ADD PUSH2 0x9E2 JUMP JUMPDEST DUP1 PUSH2 0xE77 JUMPI PUSH1 0x0 PUSH2 0xE43 DUP4 PUSH1 0x10 DUP1 SLOAD PUSH2 0xDC0 SWAP1 PUSH2 0x388F JUMP JUMPDEST DUP1 PUSH1 0x1F ADD PUSH1 0x20 DUP1 SWAP2 DIV MUL PUSH1 0x20 ADD PUSH1 0x40 MLOAD SWAP1 DUP2 ADD PUSH1 0x40 MSTORE DUP1 SWAP3 SWAP2 SWAP1 DUP2 DUP2 MSTORE PUSH1 0x20 ADD DUP3 DUP1 SLOAD PUSH2 0xDEC SWAP1 PUSH2 0x388F JUMP JUMPDEST DUP1 ISZERO PUSH2 0xE39 JUMPI DUP1 PUSH1 0x1F LT PUSH2 0xE0E JUMPI PUSH2 0x100 DUP1 DUP4 SLOAD DIV MUL DUP4 MSTORE SWAP2 PUSH1 0x20 ADD SWAP2 PUSH2 0xE39 JUMP JUMPDEST DUP3 ADD SWAP2 SWAP1 PUSH1 0x0 MSTORE PUSH1 0x20 PUSH1 0x0 KECCAK256 SWAP1 JUMPDEST DUP2 SLOAD DUP2 MSTORE SWAP1 PUSH1 0x1 ADD SWAP1 PUSH1 0x20 ADD DUP1 DUP4 GT PUSH2 0xE1C JUMPI DUP3 SWAP1 SUB PUSH1 0x1F AND DUP3 ADD SWAP2 JUMPDEST POP POP POP POP POP PUSH2 0x1EF6 JUMP JUMPDEST SWAP1 POP DUP1 PUSH1 0x0 NOT EQ ISZERO PUSH2 0xE75 JUMPI DUP3 PUSH1 0x10 PUSH1 0x40 MLOAD PUSH1 0x20 ADD PUSH2 0xE63 SWAP3 SWAP2 SWAP1 PUSH2 0x3579 JUMP JUMPDEST PUSH1 0x40 MLOAD PUSH1 0x20 DUP2 DUP4 SUB SUB DUP2 MSTORE SWAP1 PUSH1 0x40 MSTORE SWAP3 POP JUMPDEST POP JUMPDEST PUSH1 0x0 DUP3 PUSH1 0x40 MLOAD PUSH1 0x20 ADD PUSH2 0xE8A SWAP2 SWAP1 PUSH2 0x352E JUMP JUMPDEST PUSH1 0x40 MLOAD PUSH1 0x20 DUP2 DUP4 SUB SUB DUP2 MSTORE SWAP1 PUSH1 0x40 MSTORE DUP1 MLOAD SWAP1 PUSH1 0x20 ADD KECCAK256 PUSH1 0x0 SHR SWAP1 POP PUSH2 0xEAE DUP2 PUSH2 0x1C9D JUMP JUMPDEST ISZERO PUSH2 0xEF3 JUMPI PUSH1 0x40 MLOAD PUSH3 0x461BCD PUSH1 0xE5 SHL DUP2 MSTORE PUSH1 0x20 PUSH1 0x4 DUP3 ADD MSTORE PUSH1 0x15 PUSH1 0x24 DUP3 ADD MSTORE PUSH21 0x446F6D61696E20616C726561647920657869737473 PUSH1 0x58 SHL PUSH1 0x44 DUP3 ADD MSTORE PUSH1 0x64 ADD PUSH2 0x9E2 JUMP JUMPDEST PUSH2 0xEFD CALLER DUP3 PUSH2 0x2069 JUMP JUMPDEST PUSH2 0xF07 DUP2 DUP5 PUSH2 0x2083 JUMP JUMPDEST DUP1 PUSH32 0xC5BEEF08F693B11C316C0C8394A377A0033C9CF701B8CD8AFD79CECEF60C3952 DUP5 PUSH1 0x40 MLOAD PUSH2 0xF37 SWAP2 SWAP1 PUSH2 0x3629 JUMP JUMPDEST PUSH1 0x40 MLOAD DUP1 SWAP2 SUB SWAP1 LOG2 POP POP POP POP POP JUMP JUMPDEST PUSH1 0xA SLOAD PUSH1 0x1 PUSH1 0x1 PUSH1 0xA0 SHL SUB AND CALLER EQ PUSH2 0xF70 JUMPI PUSH1 0x40 MLOAD PUSH3 0x461BCD PUSH1 0xE5 SHL DUP2 MSTORE PUSH1 0x4 ADD PUSH2 0x9E2 SWAP1 PUSH2 0x3728 JUMP JUMPDEST PUSH1 0x11 DUP1 SLOAD PUSH1 0xFF NOT DUP2 AND PUSH1 0xFF SWAP1 SWAP2 AND ISZERO OR SWAP1 SSTORE JUMP JUMPDEST PUSH1 0xA SLOAD PUSH1 0x1 PUSH1 0x1 PUSH1 0xA0 SHL SUB AND CALLER EQ PUSH2 0xFAE JUMPI PUSH1 0x40 MLOAD PUSH3 0x461BCD PUSH1 0xE5 SHL DUP2 MSTORE PUSH1 0x4 ADD PUSH2 0x9E2 SWAP1 PUSH2 0x3728 JUMP JUMPDEST PUSH1 0x13 SWAP2 SWAP1 SWAP2 SSTORE PUSH1 0x14 SSTORE JUMP JUMPDEST PUSH2 0xFC4 CALLER JUMPDEST DUP3 PUSH2 0x210C JUMP JUMPDEST PUSH2 0xFE0 JUMPI PUSH1 0x40 MLOAD PUSH3 0x461BCD PUSH1 0xE5 SHL DUP2 MSTORE PUSH1 0x4 ADD PUSH2 0x9E2 SWAP1 PUSH2 0x375D JUMP JUMPDEST PUSH2 0xB18 DUP4 DUP4 DUP4 PUSH2 0x21F2 JUMP JUMPDEST PUSH1 0x0 DUP2 PUSH2 0xFF7 DUP5 PUSH2 0x177A JUMP JUMPDEST GT PUSH2 0x1001 JUMPI PUSH1 0x0 DUP1 REVERT JUMPDEST PUSH1 0x0 DUP4 DUP2 MSTORE PUSH1 0xC PUSH1 0x20 MSTORE PUSH1 0x40 SWAP1 KECCAK256 PUSH2 0x1019 SWAP1 DUP4 PUSH2 0x239D JUMP JUMPDEST SWAP4 SWAP3 POP POP POP JUMP JUMPDEST PUSH1 0x0 PUSH2 0x102B DUP4 PUSH2 0x16BF JUMP JUMPDEST DUP3 LT PUSH2 0x108D JUMPI PUSH1 0x40 MLOAD PUSH3 0x461BCD PUSH1 0xE5 SHL DUP2 MSTORE PUSH1 0x20 PUSH1 0x4 DUP3 ADD MSTORE PUSH1 0x2B PUSH1 0x24 DUP3 ADD MSTORE PUSH32 0x455243373231456E756D657261626C653A206F776E657220696E646578206F75 PUSH1 0x44 DUP3 ADD MSTORE PUSH11 0x74206F6620626F756E6473 PUSH1 0xA8 SHL PUSH1 0x64 DUP3 ADD MSTORE PUSH1 0x84 ADD PUSH2 0x9E2 JUMP JUMPDEST POP PUSH1 0x1 PUSH1 0x1 PUSH1 0xA0 SHL SUB SWAP2 SWAP1 SWAP2 AND PUSH1 0x0 SWAP1 DUP2 MSTORE PUSH1 0x6 PUSH1 0x20 SWAP1 DUP2 MSTORE PUSH1 0x40 DUP1 DUP4 KECCAK256 SWAP4 DUP4 MSTORE SWAP3 SWAP1 MSTORE KECCAK256 SLOAD SWAP1 JUMP JUMPDEST PUSH1 0xA SLOAD PUSH1 0x1 PUSH1 0x1 PUSH1 0xA0 SHL SUB AND CALLER EQ PUSH2 0x10E0 JUMPI PUSH1 0x40 MLOAD PUSH3 0x461BCD PUSH1 0xE5 SHL DUP2 MSTORE PUSH1 0x4 ADD PUSH2 0x9E2 SWAP1 PUSH2 0x3728 JUMP JUMPDEST PUSH1 0x40 MLOAD CALLER SWAP1 SELFBALANCE DUP1 ISZERO PUSH2 0x8FC MUL SWAP2 PUSH1 0x0 DUP2 DUP2 DUP2 DUP6 DUP9 DUP9 CALL SWAP4 POP POP POP POP PUSH2 0x1104 JUMPI PUSH1 0x0 DUP1 REVERT JUMPDEST JUMP JUMPDEST PUSH1 0xA SLOAD PUSH1 0x1 PUSH1 0x1 PUSH1 0xA0 SHL SUB AND CALLER EQ PUSH2 0x1130 JUMPI PUSH1 0x40 MLOAD PUSH3 0x461BCD PUSH1 0xE5 SHL DUP2 MSTORE PUSH1 0x4 ADD PUSH2 0x9E2 SWAP1 PUSH2 0x3728 JUMP JUMPDEST PUSH2 0x1139 DUP2 PUSH2 0x23A9 JUMP JUMPDEST POP JUMP JUMPDEST PUSH2 0xB18 DUP4 DUP4 DUP4 PUSH1 0x40 MLOAD DUP1 PUSH1 0x20 ADD PUSH1 0x40 MSTORE DUP1 PUSH1 0x0 DUP2 MSTORE POP PUSH2 0x197D JUMP JUMPDEST PUSH2 0x1160 CALLER PUSH2 0xFBE JUMP JUMPDEST PUSH2 0x11C5 JUMPI PUSH1 0x40 MLOAD PUSH3 0x461BCD PUSH1 0xE5 SHL DUP2 MSTORE PUSH1 0x20 PUSH1 0x4 DUP3 ADD MSTORE PUSH1 0x30 PUSH1 0x24 DUP3 ADD MSTORE PUSH32 0x4552433732314275726E61626C653A2063616C6C6572206973206E6F74206F77 PUSH1 0x44 DUP3 ADD MSTORE PUSH16 0x1B995C881B9BDC88185C1C1C9BDD9959 PUSH1 0x82 SHL PUSH1 0x64 DUP3 ADD MSTORE PUSH1 0x84 ADD PUSH2 0x9E2 JUMP JUMPDEST PUSH1 0x0 DUP2 DUP2 MSTORE PUSH1 0xD PUSH1 0x20 MSTORE PUSH1 0x40 SWAP1 KECCAK256 DUP1 SLOAD PUSH2 0x11DE SWAP1 PUSH2 0x388F JUMP JUMPDEST ISZERO SWAP1 POP PUSH2 0x11FC JUMPI PUSH1 0x0 DUP2 DUP2 MSTORE PUSH1 0xD PUSH1 0x20 MSTORE PUSH1 0x40 DUP2 KECCAK256 PUSH2 0x11FC SWAP2 PUSH2 0x2FD4 JUMP JUMPDEST PUSH1 0x0 DUP2 DUP2 MSTORE PUSH1 0xE PUSH1 0x20 MSTORE PUSH1 0x40 SWAP1 KECCAK256 SLOAD PUSH1 0x1 PUSH1 0x1 PUSH1 0xA0 SHL SUB AND ISZERO PUSH2 0x1236 JUMPI PUSH1 0x0 DUP2 DUP2 MSTORE PUSH1 0xE PUSH1 0x20 MSTORE PUSH1 0x40 SWAP1 KECCAK256 DUP1 SLOAD PUSH1 0x1 PUSH1 0x1 PUSH1 0xA0 SHL SUB NOT AND SWAP1 SSTORE JUMPDEST PUSH2 0x1139 DUP2 PUSH2 0x23B4 JUMP JUMPDEST PUSH1 0x0 PUSH2 0x1019 DUP4 DUP4 PUSH2 0x210C JUMP JUMPDEST PUSH1 0x0 DUP1 PUSH2 0x1257 DUP4 PUSH2 0x1D34 JUMP JUMPDEST SWAP1 POP PUSH1 0x0 DUP2 PUSH1 0x40 MLOAD PUSH1 0x20 ADD PUSH2 0x126C SWAP2 SWAP1 PUSH2 0x352E JUMP JUMPDEST PUSH1 0x40 MLOAD PUSH1 0x20 DUP2 DUP4 SUB SUB DUP2 MSTORE SWAP1 PUSH1 0x40 MSTORE DUP1 MLOAD SWAP1 PUSH1 0x20 ADD KECCAK256 PUSH1 0x0 SHR SWAP1 POP PUSH2 0x1290 DUP2 PUSH2 0x1615 JUMP JUMPDEST SWAP5 SWAP4 POP POP POP POP JUMP JUMPDEST PUSH1 0x0 PUSH2 0x12A9 PUSH1 0x14 SLOAD PUSH2 0xCB9 PUSH1 0x12 SLOAD SWAP1 JUMP JUMPDEST SWAP1 POP SWAP1 JUMP JUMPDEST PUSH1 0x0 PUSH2 0x8E2 DUP3 PUSH2 0x1C9D JUMP JUMPDEST PUSH1 0x0 PUSH2 0x12C4 PUSH1 0x8 SLOAD SWAP1 JUMP JUMPDEST DUP3 LT PUSH2 0x1327 JUMPI PUSH1 0x40 MLOAD PUSH3 0x461BCD PUSH1 0xE5 SHL DUP2 MSTORE PUSH1 0x20 PUSH1 0x4 DUP3 ADD MSTORE PUSH1 0x2C PUSH1 0x24 DUP3 ADD MSTORE PUSH32 0x455243373231456E756D657261626C653A20676C6F62616C20696E646578206F PUSH1 0x44 DUP3 ADD MSTORE PUSH12 0x7574206F6620626F756E6473 PUSH1 0xA0 SHL PUSH1 0x64 DUP3 ADD MSTORE PUSH1 0x84 ADD PUSH2 0x9E2 JUMP JUMPDEST PUSH1 0x8 DUP3 DUP2 SLOAD DUP2 LT PUSH2 0x133A JUMPI PUSH2 0x133A PUSH2 0x3911 JUMP JUMPDEST SWAP1 PUSH1 0x0 MSTORE PUSH1 0x20 PUSH1 0x0 KECCAK256 ADD SLOAD SWAP1 POP SWAP2 SWAP1 POP JUMP JUMPDEST PUSH1 0xA SLOAD PUSH1 0x1 PUSH1 0x1 PUSH1 0xA0 SHL SUB AND CALLER EQ PUSH2 0x1376 JUMPI PUSH1 0x40 MLOAD PUSH3 0x461BCD PUSH1 0xE5 SHL DUP2 MSTORE PUSH1 0x4 ADD PUSH2 0x9E2 SWAP1 PUSH2 0x3728 JUMP JUMPDEST PUSH1 0x1 PUSH1 0x1 PUSH1 0xA0 SHL SUB DUP3 AND PUSH2 0x13C1 JUMPI PUSH1 0x40 MLOAD PUSH3 0x461BCD PUSH1 0xE5 SHL DUP2 MSTORE PUSH1 0x20 PUSH1 0x4 DUP3 ADD MSTORE PUSH1 0x12 PUSH1 0x24 DUP3 ADD MSTORE PUSH18 0x151BC81859191C995CDCC81A5CC81B9D5B1B PUSH1 0x72 SHL PUSH1 0x44 DUP3 ADD MSTORE PUSH1 0x64 ADD PUSH2 0x9E2 JUMP JUMPDEST PUSH1 0x10 DUP1 SLOAD PUSH2 0x13CE SWAP1 PUSH2 0x388F JUMP JUMPDEST ISZERO ISZERO SWAP1 POP PUSH2 0x13EE JUMPI PUSH1 0x40 MLOAD PUSH3 0x461BCD PUSH1 0xE5 SHL DUP2 MSTORE PUSH1 0x4 ADD PUSH2 0x9E2 SWAP1 PUSH2 0x37AE JUMP JUMPDEST DUP1 MLOAD PUSH2 0x1437 JUMPI PUSH1 0x40 MLOAD PUSH3 0x461BCD PUSH1 0xE5 SHL DUP2 MSTORE PUSH1 0x20 PUSH1 0x4 DUP3 ADD MSTORE PUSH1 0x18 PUSH1 0x24 DUP3 ADD MSTORE PUSH24 0x446F6D61696E206D757374206265206E6F6E2D656D707479 PUSH1 0x40 SHL PUSH1 0x44 DUP3 ADD MSTORE PUSH1 0x64 ADD PUSH2 0x9E2 JUMP JUMPDEST PUSH1 0x3 DUP2 MLOAD LT ISZERO PUSH2 0x1459 JUMPI PUSH1 0x40 MLOAD PUSH3 0x461BCD PUSH1 0xE5 SHL DUP2 MSTORE PUSH1 0x4 ADD PUSH2 0x9E2 SWAP1 PUSH2 0x368E JUMP JUMPDEST PUSH1 0x0 PUSH2 0x1464 DUP3 PUSH2 0x1D34 JUMP JUMPDEST SWAP1 POP PUSH1 0x0 PUSH2 0x1471 DUP3 PUSH2 0x1E97 JUMP JUMPDEST SWAP1 POP PUSH1 0x1 DUP2 GT ISZERO PUSH2 0x14C2 JUMPI PUSH1 0x1 DUP2 GT ISZERO PUSH2 0x14C2 JUMPI PUSH1 0x40 MLOAD PUSH3 0x461BCD PUSH1 0xE5 SHL DUP2 MSTORE PUSH1 0x20 PUSH1 0x4 DUP3 ADD MSTORE PUSH1 0x12 PUSH1 0x24 DUP3 ADD MSTORE PUSH18 0x111BDB585A5B881B9BDD081CDD5C1C1BDC9D PUSH1 0x72 SHL PUSH1 0x44 DUP3 ADD MSTORE PUSH1 0x64 ADD PUSH2 0x9E2 JUMP JUMPDEST DUP1 PUSH2 0x150E JUMPI PUSH1 0x0 PUSH2 0x14DA DUP4 PUSH1 0x10 DUP1 SLOAD PUSH2 0xDC0 SWAP1 PUSH2 0x388F JUMP JUMPDEST SWAP1 POP DUP1 PUSH1 0x0 NOT EQ ISZERO PUSH2 0x150C JUMPI DUP3 PUSH1 0x10 PUSH1 0x40 MLOAD PUSH1 0x20 ADD PUSH2 0x14FA SWAP3 SWAP2 SWAP1 PUSH2 0x3579 JUMP JUMPDEST PUSH1 0x40 MLOAD PUSH1 0x20 DUP2 DUP4 SUB SUB DUP2 MSTORE SWAP1 PUSH1 0x40 MSTORE SWAP3 POP JUMPDEST POP JUMPDEST PUSH1 0x0 DUP3 PUSH1 0x40 MLOAD PUSH1 0x20 ADD PUSH2 0x1521 SWAP2 SWAP1 PUSH2 0x352E JUMP JUMPDEST PUSH1 0x40 MLOAD PUSH1 0x20 DUP2 DUP4 SUB SUB DUP2 MSTORE SWAP1 PUSH1 0x40 MSTORE DUP1 MLOAD SWAP1 PUSH1 0x20 ADD KECCAK256 PUSH1 0x0 SHR SWAP1 POP PUSH2 0x1545 DUP2 PUSH2 0x1C9D JUMP JUMPDEST ISZERO PUSH2 0x158A JUMPI PUSH1 0x40 MLOAD PUSH3 0x461BCD PUSH1 0xE5 SHL DUP2 MSTORE PUSH1 0x20 PUSH1 0x4 DUP3 ADD MSTORE PUSH1 0x15 PUSH1 0x24 DUP3 ADD MSTORE PUSH21 0x446F6D61696E20616C726561647920657869737473 PUSH1 0x58 SHL PUSH1 0x44 DUP3 ADD MSTORE PUSH1 0x64 ADD PUSH2 0x9E2 JUMP JUMPDEST PUSH2 0xEFD DUP6 DUP3 PUSH2 0x2069 JUMP JUMPDEST PUSH1 0x0 DUP2 MLOAD PUSH1 0x0 EQ ISZERO PUSH2 0x15A5 JUMPI PUSH1 0x0 DUP1 REVERT JUMPDEST DUP2 PUSH1 0x40 MLOAD PUSH1 0x20 ADD PUSH2 0x15B6 SWAP2 SWAP1 PUSH2 0x352E JUMP JUMPDEST PUSH1 0x40 DUP1 MLOAD PUSH1 0x1F NOT DUP2 DUP5 SUB ADD DUP2 MSTORE SWAP2 SWAP1 MSTORE DUP1 MLOAD PUSH1 0x20 SWAP1 SWAP2 ADD KECCAK256 SWAP3 SWAP2 POP POP JUMP JUMPDEST PUSH1 0xA SLOAD PUSH1 0x1 PUSH1 0x1 PUSH1 0xA0 SHL SUB AND CALLER EQ PUSH2 0x15FE JUMPI PUSH1 0x40 MLOAD PUSH3 0x461BCD PUSH1 0xE5 SHL DUP2 MSTORE PUSH1 0x4 ADD PUSH2 0x9E2 SWAP1 PUSH2 0x3728 JUMP JUMPDEST DUP1 MLOAD PUSH2 0x1611 SWAP1 PUSH1 0xF SWAP1 PUSH1 0x20 DUP5 ADD SWAP1 PUSH2 0x300E JUMP JUMPDEST POP POP JUMP JUMPDEST PUSH1 0x0 DUP2 DUP2 MSTORE PUSH1 0x2 PUSH1 0x20 MSTORE PUSH1 0x40 DUP2 KECCAK256 SLOAD PUSH1 0x1 PUSH1 0x1 PUSH1 0xA0 SHL SUB AND DUP1 PUSH2 0x8E2 JUMPI PUSH1 0x40 MLOAD PUSH3 0x461BCD PUSH1 0xE5 SHL DUP2 MSTORE PUSH1 0x20 PUSH1 0x4 DUP3 ADD MSTORE PUSH1 0x29 PUSH1 0x24 DUP3 ADD MSTORE PUSH32 0x4552433732313A206F776E657220717565727920666F72206E6F6E6578697374 PUSH1 0x44 DUP3 ADD MSTORE PUSH9 0x32B73A103A37B5B2B7 PUSH1 0xB9 SHL PUSH1 0x64 DUP3 ADD MSTORE PUSH1 0x84 ADD PUSH2 0x9E2 JUMP JUMPDEST PUSH1 0xA SLOAD PUSH1 0x1 PUSH1 0x1 PUSH1 0xA0 SHL SUB AND CALLER EQ PUSH2 0x16B6 JUMPI PUSH1 0x40 MLOAD PUSH3 0x461BCD PUSH1 0xE5 SHL DUP2 MSTORE PUSH1 0x4 ADD PUSH2 0x9E2 SWAP1 PUSH2 0x3728 JUMP JUMPDEST PUSH2 0x1139 DUP2 PUSH2 0x245B JUMP JUMPDEST PUSH1 0x0 PUSH1 0x1 PUSH1 0x1 PUSH1 0xA0 SHL SUB DUP3 AND PUSH2 0x172A JUMPI PUSH1 0x40 MLOAD PUSH3 0x461BCD PUSH1 0xE5 SHL DUP2 MSTORE PUSH1 0x20 PUSH1 0x4 DUP3 ADD MSTORE PUSH1 0x2A PUSH1 0x24 DUP3 ADD MSTORE PUSH32 0x4552433732313A2062616C616E636520717565727920666F7220746865207A65 PUSH1 0x44 DUP3 ADD MSTORE PUSH10 0x726F2061646472657373 PUSH1 0xB0 SHL PUSH1 0x64 DUP3 ADD MSTORE PUSH1 0x84 ADD PUSH2 0x9E2 JUMP JUMPDEST POP PUSH1 0x1 PUSH1 0x1 PUSH1 0xA0 SHL SUB AND PUSH1 0x0 SWAP1 DUP2 MSTORE PUSH1 0x3 PUSH1 0x20 MSTORE PUSH1 0x40 SWAP1 KECCAK256 SLOAD SWAP1 JUMP JUMPDEST PUSH1 0xA SLOAD PUSH1 0x1 PUSH1 0x1 PUSH1 0xA0 SHL SUB AND CALLER EQ PUSH2 0x1770 JUMPI PUSH1 0x40 MLOAD PUSH3 0x461BCD PUSH1 0xE5 SHL DUP2 MSTORE PUSH1 0x4 ADD PUSH2 0x9E2 SWAP1 PUSH2 0x3728 JUMP JUMPDEST PUSH2 0x1104 PUSH1 0x0 PUSH2 0x2466 JUMP JUMPDEST PUSH1 0x0 PUSH2 0x1785 DUP3 PUSH2 0x1C9D JUMP JUMPDEST PUSH2 0x178E JUMPI PUSH1 0x0 DUP1 REVERT JUMPDEST PUSH1 0x0 DUP3 DUP2 MSTORE PUSH1 0xC PUSH1 0x20 MSTORE PUSH1 0x40 SWAP1 KECCAK256 PUSH2 0x8E2 SWAP1 PUSH2 0x24B8 JUMP JUMPDEST PUSH1 0x0 PUSH2 0x8E2 PUSH1 0xB DUP4 PUSH2 0x24C2 JUMP JUMPDEST PUSH1 0x60 PUSH1 0x10 DUP1 SLOAD PUSH2 0x8F7 SWAP1 PUSH2 0x388F JUMP JUMPDEST PUSH1 0xA SLOAD PUSH1 0x1 PUSH1 0x1 PUSH1 0xA0 SHL SUB AND CALLER EQ PUSH2 0x17EB JUMPI PUSH1 0x40 MLOAD PUSH3 0x461BCD PUSH1 0xE5 SHL DUP2 MSTORE PUSH1 0x4 ADD PUSH2 0x9E2 SWAP1 PUSH2 0x3728 JUMP JUMPDEST PUSH1 0x12 SSTORE JUMP JUMPDEST PUSH1 0x60 PUSH1 0x1 DUP1 SLOAD PUSH2 0x8F7 SWAP1 PUSH2 0x388F JUMP JUMPDEST DUP2 PUSH2 0x1809 CALLER PUSH2 0xFBE JUMP JUMPDEST PUSH2 0x1812 JUMPI PUSH1 0x0 DUP1 REVERT JUMPDEST PUSH2 0x182D DUP5 DUP5 DUP5 PUSH1 0x40 MLOAD DUP1 PUSH1 0x20 ADD PUSH1 0x40 MSTORE DUP1 PUSH1 0x0 DUP2 MSTORE POP PUSH2 0x2545 JUMP JUMPDEST POP POP POP POP JUMP JUMPDEST PUSH1 0x1 PUSH1 0x1 PUSH1 0xA0 SHL SUB DUP3 AND CALLER EQ ISZERO PUSH2 0x188C JUMPI PUSH1 0x40 MLOAD PUSH3 0x461BCD PUSH1 0xE5 SHL DUP2 MSTORE PUSH1 0x20 PUSH1 0x4 DUP3 ADD MSTORE PUSH1 0x19 PUSH1 0x24 DUP3 ADD MSTORE PUSH32 0x4552433732313A20617070726F766520746F2063616C6C657200000000000000 PUSH1 0x44 DUP3 ADD MSTORE PUSH1 0x64 ADD PUSH2 0x9E2 JUMP JUMPDEST CALLER PUSH1 0x0 DUP2 DUP2 MSTORE PUSH1 0x5 PUSH1 0x20 SWAP1 DUP2 MSTORE PUSH1 0x40 DUP1 DUP4 KECCAK256 PUSH1 0x1 PUSH1 0x1 PUSH1 0xA0 SHL SUB DUP8 AND DUP1 DUP6 MSTORE SWAP1 DUP4 MSTORE SWAP3 DUP2 SWAP1 KECCAK256 DUP1 SLOAD PUSH1 0xFF NOT AND DUP7 ISZERO ISZERO SWAP1 DUP2 OR SWAP1 SWAP2 SSTORE SWAP1 MLOAD SWAP1 DUP2 MSTORE SWAP2 SWAP3 SWAP2 PUSH32 0x17307EAB39AB6107E8899845AD3D59BD9653F200F220920489CA2B5937696C31 SWAP2 ADD PUSH1 0x40 MLOAD DUP1 SWAP2 SUB SWAP1 LOG3 POP POP JUMP JUMPDEST DUP1 PUSH2 0x1902 CALLER PUSH2 0xFBE JUMP JUMPDEST PUSH2 0x190B JUMPI PUSH1 0x0 DUP1 REVERT JUMPDEST PUSH2 0xB18 PUSH2 0x1917 DUP4 PUSH2 0x1615 JUMP JUMPDEST DUP5 DUP5 PUSH2 0x21F2 JUMP JUMPDEST PUSH1 0xA SLOAD PUSH1 0x1 PUSH1 0x1 PUSH1 0xA0 SHL SUB AND CALLER EQ PUSH2 0x1948 JUMPI PUSH1 0x40 MLOAD PUSH3 0x461BCD PUSH1 0xE5 SHL DUP2 MSTORE PUSH1 0x4 ADD PUSH2 0x9E2 SWAP1 PUSH2 0x3728 JUMP JUMPDEST DUP1 MLOAD PUSH2 0x1611 SWAP1 PUSH1 0x10 SWAP1 PUSH1 0x20 DUP5 ADD SWAP1 PUSH2 0x300E JUMP JUMPDEST PUSH1 0x0 DUP2 DUP2 MSTORE PUSH1 0xE PUSH1 0x20 MSTORE PUSH1 0x40 DUP2 KECCAK256 SLOAD PUSH1 0x1 PUSH1 0x1 PUSH1 0xA0 SHL SUB AND DUP1 PUSH2 0x8E2 JUMPI PUSH1 0x0 DUP1 REVERT JUMPDEST PUSH2 0x1987 CALLER DUP4 PUSH2 0x210C JUMP JUMPDEST PUSH2 0x19A3 JUMPI PUSH1 0x40 MLOAD PUSH3 0x461BCD PUSH1 0xE5 SHL DUP2 MSTORE PUSH1 0x4 ADD PUSH2 0x9E2 SWAP1 PUSH2 0x375D JUMP JUMPDEST PUSH2 0x182D DUP5 DUP5 DUP5 DUP5 PUSH2 0x2712 JUMP JUMPDEST DUP2 PUSH2 0x19B9 CALLER PUSH2 0xFBE JUMP JUMPDEST PUSH2 0x19C2 JUMPI PUSH1 0x0 DUP1 REVERT JUMPDEST PUSH2 0xB18 DUP4 DUP4 PUSH2 0x2745 JUMP JUMPDEST DUP2 PUSH2 0x19D6 CALLER PUSH2 0xFBE JUMP JUMPDEST PUSH2 0x19DF JUMPI PUSH1 0x0 DUP1 REVERT JUMPDEST PUSH2 0xB18 DUP4 DUP4 PUSH2 0x27B0 JUMP JUMPDEST PUSH1 0x0 PUSH2 0x12A9 PUSH1 0x13 SLOAD PUSH2 0xCB9 PUSH1 0x12 SLOAD SWAP1 JUMP JUMPDEST PUSH1 0x60 PUSH2 0x1A05 DUP3 PUSH2 0x1C9D JUMP JUMPDEST PUSH2 0x1A69 JUMPI PUSH1 0x40 MLOAD PUSH3 0x461BCD PUSH1 0xE5 SHL DUP2 MSTORE PUSH1 0x20 PUSH1 0x4 DUP3 ADD MSTORE PUSH1 0x2F PUSH1 0x24 DUP3 ADD MSTORE PUSH32 0x4552433732314D657461646174613A2055524920717565727920666F72206E6F PUSH1 0x44 DUP3 ADD MSTORE PUSH15 0x3732BC34B9BA32B73A103A37B5B2B7 PUSH1 0x89 SHL PUSH1 0x64 DUP3 ADD MSTORE PUSH1 0x84 ADD PUSH2 0x9E2 JUMP JUMPDEST PUSH1 0x0 DUP3 DUP2 MSTORE PUSH1 0xD PUSH1 0x20 MSTORE PUSH1 0x40 DUP2 KECCAK256 DUP1 SLOAD PUSH2 0x1A82 SWAP1 PUSH2 0x388F JUMP JUMPDEST DUP1 PUSH1 0x1F ADD PUSH1 0x20 DUP1 SWAP2 DIV MUL PUSH1 0x20 ADD PUSH1 0x40 MLOAD SWAP1 DUP2 ADD PUSH1 0x40 MSTORE DUP1 SWAP3 SWAP2 SWAP1 DUP2 DUP2 MSTORE PUSH1 0x20 ADD DUP3 DUP1 SLOAD PUSH2 0x1AAE SWAP1 PUSH2 0x388F JUMP JUMPDEST DUP1 ISZERO PUSH2 0x1AFB JUMPI DUP1 PUSH1 0x1F LT PUSH2 0x1AD0 JUMPI PUSH2 0x100 DUP1 DUP4 SLOAD DIV MUL DUP4 MSTORE SWAP2 PUSH1 0x20 ADD SWAP2 PUSH2 0x1AFB JUMP JUMPDEST DUP3 ADD SWAP2 SWAP1 PUSH1 0x0 MSTORE PUSH1 0x20 PUSH1 0x0 KECCAK256 SWAP1 JUMPDEST DUP2 SLOAD DUP2 MSTORE SWAP1 PUSH1 0x1 ADD SWAP1 PUSH1 0x20 ADD DUP1 DUP4 GT PUSH2 0x1ADE JUMPI DUP3 SWAP1 SUB PUSH1 0x1F AND DUP3 ADD SWAP2 JUMPDEST POP POP POP POP POP SWAP1 POP PUSH1 0x0 PUSH2 0x1B0C PUSH2 0x289D JUMP JUMPDEST SWAP1 POP DUP1 MLOAD PUSH1 0x0 EQ ISZERO PUSH2 0x1B1F JUMPI POP SWAP3 SWAP2 POP POP JUMP JUMPDEST DUP2 MLOAD ISZERO PUSH2 0x1B51 JUMPI DUP1 DUP3 PUSH1 0x40 MLOAD PUSH1 0x20 ADD PUSH2 0x1B39 SWAP3 SWAP2 SWAP1 PUSH2 0x354A JUMP JUMPDEST PUSH1 0x40 MLOAD PUSH1 0x20 DUP2 DUP4 SUB SUB DUP2 MSTORE SWAP1 PUSH1 0x40 MSTORE SWAP3 POP POP POP SWAP2 SWAP1 POP JUMP JUMPDEST DUP1 DUP5 PUSH1 0x40 MLOAD PUSH1 0x20 ADD PUSH2 0x1B39 SWAP3 SWAP2 SWAP1 PUSH2 0x35CA JUMP JUMPDEST PUSH1 0xA SLOAD PUSH1 0x1 PUSH1 0x1 PUSH1 0xA0 SHL SUB AND CALLER EQ PUSH2 0x1B8E JUMPI PUSH1 0x40 MLOAD PUSH3 0x461BCD PUSH1 0xE5 SHL DUP2 MSTORE PUSH1 0x4 ADD PUSH2 0x9E2 SWAP1 PUSH2 0x3728 JUMP JUMPDEST PUSH1 0x1 PUSH1 0x1 PUSH1 0xA0 SHL SUB DUP2 AND PUSH2 0x1BF3 JUMPI PUSH1 0x40 MLOAD PUSH3 0x461BCD PUSH1 0xE5 SHL DUP2 MSTORE PUSH1 0x20 PUSH1 0x4 DUP3 ADD MSTORE PUSH1 0x26 PUSH1 0x24 DUP3 ADD MSTORE PUSH32 0x4F776E61626C653A206E6577206F776E657220697320746865207A65726F2061 PUSH1 0x44 DUP3 ADD MSTORE PUSH6 0x646472657373 PUSH1 0xD0 SHL PUSH1 0x64 DUP3 ADD MSTORE PUSH1 0x84 ADD PUSH2 0x9E2 JUMP JUMPDEST PUSH2 0x1139 DUP2 PUSH2 0x2466 JUMP JUMPDEST PUSH2 0x1C06 DUP3 DUP3 PUSH2 0x24C2 JUMP JUMPDEST ISZERO PUSH2 0x1C53 JUMPI PUSH1 0x40 MLOAD PUSH3 0x461BCD PUSH1 0xE5 SHL DUP2 MSTORE PUSH1 0x20 PUSH1 0x4 DUP3 ADD MSTORE PUSH1 0x1F PUSH1 0x24 DUP3 ADD MSTORE PUSH32 0x526F6C65733A206163636F756E7420616C72656164792068617320726F6C6500 PUSH1 0x44 DUP3 ADD MSTORE PUSH1 0x64 ADD PUSH2 0x9E2 JUMP JUMPDEST PUSH1 0x1 PUSH1 0x1 PUSH1 0xA0 SHL SUB AND PUSH1 0x0 SWAP1 DUP2 MSTORE PUSH1 0x20 SWAP2 SWAP1 SWAP2 MSTORE PUSH1 0x40 SWAP1 KECCAK256 DUP1 SLOAD PUSH1 0xFF NOT AND PUSH1 0x1 OR SWAP1 SSTORE JUMP JUMPDEST PUSH1 0x0 PUSH1 0x1 PUSH1 0x1 PUSH1 0xE0 SHL SUB NOT DUP3 AND PUSH4 0x780E9D63 PUSH1 0xE0 SHL EQ DUP1 PUSH2 0x8E2 JUMPI POP PUSH2 0x8E2 DUP3 PUSH2 0x28AC JUMP JUMPDEST PUSH1 0x0 SWAP1 DUP2 MSTORE PUSH1 0x2 PUSH1 0x20 MSTORE PUSH1 0x40 SWAP1 KECCAK256 SLOAD PUSH1 0x1 PUSH1 0x1 PUSH1 0xA0 SHL SUB AND ISZERO ISZERO SWAP1 JUMP JUMPDEST PUSH1 0x0 DUP2 DUP2 MSTORE PUSH1 0x4 PUSH1 0x20 MSTORE PUSH1 0x40 SWAP1 KECCAK256 DUP1 SLOAD PUSH1 0x1 PUSH1 0x1 PUSH1 0xA0 SHL SUB NOT AND PUSH1 0x1 PUSH1 0x1 PUSH1 0xA0 SHL SUB DUP5 AND SWAP1 DUP2 OR SWAP1 SWAP2 SSTORE DUP2 SWAP1 PUSH2 0x1CEF DUP3 PUSH2 0x1615 JUMP JUMPDEST PUSH1 0x1 PUSH1 0x1 PUSH1 0xA0 SHL SUB AND PUSH32 0x8C5BE1E5EBEC7D5BD14F71427D1E84F3DD0314C0F7B2291E5B200AC8C7C3B925 PUSH1 0x40 MLOAD PUSH1 0x40 MLOAD DUP1 SWAP2 SUB SWAP1 LOG4 POP POP JUMP JUMPDEST PUSH1 0x0 PUSH2 0x1019 DUP3 DUP5 PUSH2 0x382D JUMP JUMPDEST PUSH1 0x60 PUSH1 0x0 DUP3 SWAP1 POP PUSH1 0x0 DUP2 MLOAD PUSH8 0xFFFFFFFFFFFFFFFF DUP2 GT ISZERO PUSH2 0x1D57 JUMPI PUSH2 0x1D57 PUSH2 0x3927 JUMP JUMPDEST PUSH1 0x40 MLOAD SWAP1 DUP1 DUP3 MSTORE DUP1 PUSH1 0x1F ADD PUSH1 0x1F NOT AND PUSH1 0x20 ADD DUP3 ADD PUSH1 0x40 MSTORE DUP1 ISZERO PUSH2 0x1D81 JUMPI PUSH1 0x20 DUP3 ADD DUP2 DUP1 CALLDATASIZE DUP4 CALLDATACOPY ADD SWAP1 POP JUMPDEST POP SWAP1 POP PUSH1 0x0 JUMPDEST DUP3 MLOAD DUP2 LT ISZERO PUSH2 0x1E8F JUMPI PUSH1 0x41 DUP4 DUP3 DUP2 MLOAD DUP2 LT PUSH2 0x1DA4 JUMPI PUSH2 0x1DA4 PUSH2 0x3911 JUMP JUMPDEST ADD PUSH1 0x20 ADD MLOAD PUSH1 0xF8 SHR LT DUP1 ISZERO SWAP1 PUSH2 0x1DD4 JUMPI POP PUSH1 0x5A DUP4 DUP3 DUP2 MLOAD DUP2 LT PUSH2 0x1DC9 JUMPI PUSH2 0x1DC9 PUSH2 0x3911 JUMP JUMPDEST ADD PUSH1 0x20 ADD MLOAD PUSH1 0xF8 SHR GT ISZERO JUMPDEST ISZERO PUSH2 0x1E36 JUMPI DUP3 DUP2 DUP2 MLOAD DUP2 LT PUSH2 0x1DEB JUMPI PUSH2 0x1DEB PUSH2 0x3911 JUMP JUMPDEST PUSH1 0x20 ADD ADD MLOAD PUSH1 0xF8 SHR PUSH1 0xF8 SHL PUSH1 0xF8 SHR PUSH1 0x20 PUSH2 0x1E05 SWAP2 SWAP1 PUSH2 0x3808 JUMP JUMPDEST PUSH1 0xF8 SHL DUP3 DUP3 DUP2 MLOAD DUP2 LT PUSH2 0x1E1A JUMPI PUSH2 0x1E1A PUSH2 0x3911 JUMP JUMPDEST PUSH1 0x20 ADD ADD SWAP1 PUSH1 0x1 PUSH1 0x1 PUSH1 0xF8 SHL SUB NOT AND SWAP1 DUP2 PUSH1 0x0 BYTE SWAP1 MSTORE8 POP PUSH2 0x1E7D JUMP JUMPDEST DUP3 DUP2 DUP2 MLOAD DUP2 LT PUSH2 0x1E48 JUMPI PUSH2 0x1E48 PUSH2 0x3911 JUMP JUMPDEST PUSH1 0x20 ADD ADD MLOAD PUSH1 0xF8 SHR PUSH1 0xF8 SHL DUP3 DUP3 DUP2 MLOAD DUP2 LT PUSH2 0x1E65 JUMPI PUSH2 0x1E65 PUSH2 0x3911 JUMP JUMPDEST PUSH1 0x20 ADD ADD SWAP1 PUSH1 0x1 PUSH1 0x1 PUSH1 0xF8 SHL SUB NOT AND SWAP1 DUP2 PUSH1 0x0 BYTE SWAP1 MSTORE8 POP JUMPDEST DUP1 PUSH2 0x1E87 DUP2 PUSH2 0x38CA JUMP JUMPDEST SWAP2 POP POP PUSH2 0x1D87 JUMP JUMPDEST POP SWAP4 SWAP3 POP POP POP JUMP JUMPDEST DUP1 MLOAD PUSH1 0x0 SWAP1 PUSH1 0x1 DUP4 DUP2 ADD SWAP2 DUP5 ADD ADD DUP3 DUP1 JUMPDEST DUP3 DUP5 LT ISZERO PUSH2 0x1EED JUMPI DUP4 MLOAD PUSH1 0xFF AND PUSH1 0x2E DUP2 EQ ISZERO PUSH2 0x1ECC JUMPI PUSH2 0x1EC9 PUSH1 0x1 DUP5 PUSH2 0x37F0 JUMP JUMPDEST SWAP3 POP JUMPDEST PUSH2 0x1ED7 PUSH1 0x1 DUP7 PUSH2 0x37F0 JUMP JUMPDEST SWAP5 POP POP DUP1 DUP1 PUSH2 0x1EE5 SWAP1 PUSH2 0x38CA JUMP JUMPDEST SWAP2 POP POP PUSH2 0x1EA8 JUMP JUMPDEST POP SWAP5 SWAP4 POP POP POP POP JUMP JUMPDEST DUP2 MLOAD PUSH1 0x0 SWAP1 DUP4 SWAP1 DUP4 SWAP1 PUSH1 0x1 GT DUP1 PUSH2 0x1F0E JUMPI POP PUSH1 0x1 DUP2 MLOAD LT JUMPDEST DUP1 PUSH2 0x1F1A JUMPI POP DUP2 MLOAD DUP2 MLOAD GT JUMPDEST ISZERO PUSH2 0x1F2B JUMPI PUSH1 0x0 NOT SWAP3 POP POP POP PUSH2 0x8E2 JUMP JUMPDEST PUSH16 0xFFFFFFFFFFFFFFFFFFFFFFFFFFFFFFFF DUP3 MLOAD GT ISZERO PUSH2 0x1F50 JUMPI PUSH1 0x0 NOT SWAP3 POP POP POP PUSH2 0x8E2 JUMP JUMPDEST PUSH1 0x0 DUP1 JUMPDEST DUP4 MLOAD DUP2 LT ISZERO PUSH2 0x205B JUMPI DUP3 PUSH1 0x0 DUP2 MLOAD DUP2 LT PUSH2 0x1F70 JUMPI PUSH2 0x1F70 PUSH2 0x3911 JUMP JUMPDEST PUSH1 0x20 ADD ADD MLOAD PUSH1 0xF8 SHR PUSH1 0xF8 SHL PUSH1 0x1 PUSH1 0x1 PUSH1 0xF8 SHL SUB NOT AND DUP5 DUP3 DUP2 MLOAD DUP2 LT PUSH2 0x1F97 JUMPI PUSH2 0x1F97 PUSH2 0x3911 JUMP JUMPDEST ADD PUSH1 0x20 ADD MLOAD PUSH1 0x1 PUSH1 0x1 PUSH1 0xF8 SHL SUB NOT AND EQ ISZERO PUSH2 0x2049 JUMPI PUSH1 0x1 SWAP2 POP JUMPDEST DUP3 MLOAD DUP3 LT DUP1 ISZERO PUSH2 0x1FCA JUMPI POP DUP4 MLOAD PUSH2 0x1FC8 DUP4 DUP4 PUSH2 0x37F0 JUMP JUMPDEST LT JUMPDEST DUP1 ISZERO PUSH2 0x201E JUMPI POP DUP3 DUP3 DUP2 MLOAD DUP2 LT PUSH2 0x1FE3 JUMPI PUSH2 0x1FE3 PUSH2 0x3911 JUMP JUMPDEST ADD PUSH1 0x20 ADD MLOAD PUSH1 0x1 PUSH1 0x1 PUSH1 0xF8 SHL SUB NOT AND DUP5 PUSH2 0x1FFD DUP5 DUP5 PUSH2 0x37F0 JUMP JUMPDEST DUP2 MLOAD DUP2 LT PUSH2 0x200D JUMPI PUSH2 0x200D PUSH2 0x3911 JUMP JUMPDEST ADD PUSH1 0x20 ADD MLOAD PUSH1 0x1 PUSH1 0x1 PUSH1 0xF8 SHL SUB NOT AND EQ JUMPDEST ISZERO PUSH2 0x2035 JUMPI DUP2 PUSH2 0x202D DUP2 PUSH2 0x38CA JUMP JUMPDEST SWAP3 POP POP PUSH2 0x1FB1 JUMP JUMPDEST DUP3 MLOAD DUP3 EQ ISZERO PUSH2 0x2049 JUMPI SWAP4 POP PUSH2 0x8E2 SWAP3 POP POP POP JUMP JUMPDEST DUP1 PUSH2 0x2053 DUP2 PUSH2 0x38CA JUMP JUMPDEST SWAP2 POP POP PUSH2 0x1F54 JUMP JUMPDEST POP PUSH1 0x0 NOT SWAP4 POP POP POP POP PUSH2 0x8E2 JUMP JUMPDEST PUSH2 0x1611 DUP3 DUP3 PUSH1 0x40 MLOAD DUP1 PUSH1 0x20 ADD PUSH1 0x40 MSTORE DUP1 PUSH1 0x0 DUP2 MSTORE POP PUSH2 0x28FC JUMP JUMPDEST PUSH2 0x208C DUP3 PUSH2 0x1C9D JUMP JUMPDEST PUSH2 0x20ED JUMPI PUSH1 0x40 MLOAD PUSH3 0x461BCD PUSH1 0xE5 SHL DUP2 MSTORE PUSH1 0x20 PUSH1 0x4 DUP3 ADD MSTORE PUSH1 0x2C PUSH1 0x24 DUP3 ADD MSTORE PUSH32 0x4552433732314D657461646174613A2055524920736574206F66206E6F6E6578 PUSH1 0x44 DUP3 ADD MSTORE PUSH12 0x34B9BA32B73A103A37B5B2B7 PUSH1 0xA1 SHL PUSH1 0x64 DUP3 ADD MSTORE PUSH1 0x84 ADD PUSH2 0x9E2 JUMP JUMPDEST PUSH1 0x0 DUP3 DUP2 MSTORE PUSH1 0xD PUSH1 0x20 SWAP1 DUP2 MSTORE PUSH1 0x40 SWAP1 SWAP2 KECCAK256 DUP3 MLOAD PUSH2 0xB18 SWAP3 DUP5 ADD SWAP1 PUSH2 0x300E JUMP JUMPDEST PUSH1 0x0 PUSH2 0x2117 DUP3 PUSH2 0x1C9D JUMP JUMPDEST PUSH2 0x2178 JUMPI PUSH1 0x40 MLOAD PUSH3 0x461BCD PUSH1 0xE5 SHL DUP2 MSTORE PUSH1 0x20 PUSH1 0x4 DUP3 ADD MSTORE PUSH1 0x2C PUSH1 0x24 DUP3 ADD MSTORE PUSH32 0x4552433732313A206F70657261746F7220717565727920666F72206E6F6E6578 PUSH1 0x44 DUP3 ADD MSTORE PUSH12 0x34B9BA32B73A103A37B5B2B7 PUSH1 0xA1 SHL PUSH1 0x64 DUP3 ADD MSTORE PUSH1 0x84 ADD PUSH2 0x9E2 JUMP JUMPDEST PUSH1 0x0 PUSH2 0x2183 DUP4 PUSH2 0x1615 JUMP JUMPDEST SWAP1 POP DUP1 PUSH1 0x1 PUSH1 0x1 PUSH1 0xA0 SHL SUB AND DUP5 PUSH1 0x1 PUSH1 0x1 PUSH1 0xA0 SHL SUB AND EQ DUP1 PUSH2 0x21BE JUMPI POP DUP4 PUSH1 0x1 PUSH1 0x1 PUSH1 0xA0 SHL SUB AND PUSH2 0x21B3 DUP5 PUSH2 0x97A JUMP JUMPDEST PUSH1 0x1 PUSH1 0x1 PUSH1 0xA0 SHL SUB AND EQ JUMPDEST DUP1 PUSH2 0x1290 JUMPI POP PUSH1 0x1 PUSH1 0x1 PUSH1 0xA0 SHL SUB DUP1 DUP3 AND PUSH1 0x0 SWAP1 DUP2 MSTORE PUSH1 0x5 PUSH1 0x20 SWAP1 DUP2 MSTORE PUSH1 0x40 DUP1 DUP4 KECCAK256 SWAP4 DUP9 AND DUP4 MSTORE SWAP3 SWAP1 MSTORE KECCAK256 SLOAD PUSH1 0xFF AND PUSH2 0x1290 JUMP JUMPDEST DUP3 PUSH1 0x1 PUSH1 0x1 PUSH1 0xA0 SHL SUB AND PUSH2 0x2205 DUP3 PUSH2 0x1615 JUMP JUMPDEST PUSH1 0x1 PUSH1 0x1 PUSH1 0xA0 SHL SUB AND EQ PUSH2 0x226D JUMPI PUSH1 0x40 MLOAD PUSH3 0x461BCD PUSH1 0xE5 SHL DUP2 MSTORE PUSH1 0x20 PUSH1 0x4 DUP3 ADD MSTORE PUSH1 0x29 PUSH1 0x24 DUP3 ADD MSTORE PUSH32 0x4552433732313A207472616E73666572206F6620746F6B656E20746861742069 PUSH1 0x44 DUP3 ADD MSTORE PUSH9 0x39903737BA1037BBB7 PUSH1 0xB9 SHL PUSH1 0x64 DUP3 ADD MSTORE PUSH1 0x84 ADD PUSH2 0x9E2 JUMP JUMPDEST PUSH1 0x1 PUSH1 0x1 PUSH1 0xA0 SHL SUB DUP3 AND PUSH2 0x22CF JUMPI PUSH1 0x40 MLOAD PUSH3 0x461BCD PUSH1 0xE5 SHL DUP2 MSTORE PUSH1 0x20 PUSH1 0x4 DUP3 ADD MSTORE PUSH1 0x24 DUP1 DUP3 ADD MSTORE PUSH32 0x4552433732313A207472616E7366657220746F20746865207A65726F20616464 PUSH1 0x44 DUP3 ADD MSTORE PUSH4 0x72657373 PUSH1 0xE0 SHL PUSH1 0x64 DUP3 ADD MSTORE PUSH1 0x84 ADD PUSH2 0x9E2 JUMP JUMPDEST PUSH2 0x22DA DUP4 DUP4 DUP4 PUSH2 0x292F JUMP JUMPDEST PUSH2 0x22E5 PUSH1 0x0 DUP3 PUSH2 0x1CBA JUMP JUMPDEST PUSH1 0x1 PUSH1 0x1 PUSH1 0xA0 SHL SUB DUP4 AND PUSH1 0x0 SWAP1 DUP2 MSTORE PUSH1 0x3 PUSH1 0x20 MSTORE PUSH1 0x40 DUP2 KECCAK256 DUP1 SLOAD PUSH1 0x1 SWAP3 SWAP1 PUSH2 0x230E SWAP1 DUP5 SWAP1 PUSH2 0x384C JUMP JUMPDEST SWAP1 SWAP2 SSTORE POP POP PUSH1 0x1 PUSH1 0x1 PUSH1 0xA0 SHL SUB DUP3 AND PUSH1 0x0 SWAP1 DUP2 MSTORE PUSH1 0x3 PUSH1 0x20 MSTORE PUSH1 0x40 DUP2 KECCAK256 DUP1 SLOAD PUSH1 0x1 SWAP3 SWAP1 PUSH2 0x233C SWAP1 DUP5 SWAP1 PUSH2 0x37F0 JUMP JUMPDEST SWAP1 SWAP2 SSTORE POP POP PUSH1 0x0 DUP2 DUP2 MSTORE PUSH1 0x2 PUSH1 0x20 MSTORE PUSH1 0x40 DUP1 DUP3 KECCAK256 DUP1 SLOAD PUSH1 0x1 PUSH1 0x1 PUSH1 0xA0 SHL SUB NOT AND PUSH1 0x1 PUSH1 0x1 PUSH1 0xA0 SHL SUB DUP7 DUP2 AND SWAP2 DUP3 OR SWAP1 SWAP3 SSTORE SWAP2 MLOAD DUP5 SWAP4 SWAP2 DUP8 AND SWAP2 PUSH32 0xDDF252AD1BE2C89B69C2B068FC378DAA952BA7F163C4A11628F55A4DF523B3EF SWAP2 LOG4 POP POP POP JUMP JUMPDEST PUSH1 0x0 PUSH2 0x1019 DUP4 DUP4 PUSH2 0x293A JUMP JUMPDEST PUSH2 0x1139 PUSH1 0xB DUP3 PUSH2 0x1BFC JUMP JUMPDEST PUSH1 0x0 PUSH2 0x23BF DUP3 PUSH2 0x1615 JUMP JUMPDEST SWAP1 POP PUSH2 0x23CD DUP2 PUSH1 0x0 DUP5 PUSH2 0x292F JUMP JUMPDEST PUSH2 0x23D8 PUSH1 0x0 DUP4 PUSH2 0x1CBA JUMP JUMPDEST PUSH1 0x1 PUSH1 0x1 PUSH1 0xA0 SHL SUB DUP2 AND PUSH1 0x0 SWAP1 DUP2 MSTORE PUSH1 0x3 PUSH1 0x20 MSTORE PUSH1 0x40 DUP2 KECCAK256 DUP1 SLOAD PUSH1 0x1 SWAP3 SWAP1 PUSH2 0x2401 SWAP1 DUP5 SWAP1 PUSH2 0x384C JUMP JUMPDEST SWAP1 SWAP2 SSTORE POP POP PUSH1 0x0 DUP3 DUP2 MSTORE PUSH1 0x2 PUSH1 0x20 MSTORE PUSH1 0x40 DUP1 DUP3 KECCAK256 DUP1 SLOAD PUSH1 0x1 PUSH1 0x1 PUSH1 0xA0 SHL SUB NOT AND SWAP1 SSTORE MLOAD DUP4 SWAP2 SWAP1 PUSH1 0x1 PUSH1 0x1 PUSH1 0xA0 SHL SUB DUP5 AND SWAP1 PUSH32 0xDDF252AD1BE2C89B69C2B068FC378DAA952BA7F163C4A11628F55A4DF523B3EF SWAP1 DUP4 SWAP1 LOG4 POP POP JUMP JUMPDEST PUSH2 0x1139 PUSH1 0xB DUP3 PUSH2 0x2964 JUMP JUMPDEST PUSH1 0xA DUP1 SLOAD PUSH1 0x1 PUSH1 0x1 PUSH1 0xA0 SHL SUB DUP4 DUP2 AND PUSH1 0x1 PUSH1 0x1 PUSH1 0xA0 SHL SUB NOT DUP4 AND DUP2 OR SWAP1 SWAP4 SSTORE PUSH1 0x40 MLOAD SWAP2 AND SWAP2 SWAP1 DUP3 SWAP1 PUSH32 0x8BE0079C531659141344CD1FD0A4F28419497F9722A3DAAFE3B4186F6B6457E0 SWAP1 PUSH1 0x0 SWAP1 LOG3 POP POP JUMP JUMPDEST PUSH1 0x0 PUSH2 0x8E2 DUP3 SLOAD SWAP1 JUMP JUMPDEST PUSH1 0x0 PUSH1 0x1 PUSH1 0x1 PUSH1 0xA0 SHL SUB DUP3 AND PUSH2 0x2525 JUMPI PUSH1 0x40 MLOAD PUSH3 0x461BCD PUSH1 0xE5 SHL DUP2 MSTORE PUSH1 0x20 PUSH1 0x4 DUP3 ADD MSTORE PUSH1 0x22 PUSH1 0x24 DUP3 ADD MSTORE PUSH32 0x526F6C65733A206163636F756E7420697320746865207A65726F206164647265 PUSH1 0x44 DUP3 ADD MSTORE PUSH2 0x7373 PUSH1 0xF0 SHL PUSH1 0x64 DUP3 ADD MSTORE PUSH1 0x84 ADD PUSH2 0x9E2 JUMP JUMPDEST POP PUSH1 0x1 PUSH1 0x1 PUSH1 0xA0 SHL SUB AND PUSH1 0x0 SWAP1 DUP2 MSTORE PUSH1 0x20 SWAP2 SWAP1 SWAP2 MSTORE PUSH1 0x40 SWAP1 KECCAK256 SLOAD PUSH1 0xFF AND SWAP1 JUMP JUMPDEST PUSH1 0x1 PUSH1 0x1 PUSH1 0xA0 SHL SUB DUP5 AND PUSH2 0x2558 JUMPI PUSH1 0x0 DUP1 REVERT JUMPDEST DUP2 MLOAD PUSH2 0x2563 JUMPI PUSH1 0x0 DUP1 REVERT JUMPDEST PUSH2 0x256C DUP3 PUSH2 0x1E97 JUMP JUMPDEST ISZERO PUSH2 0x2576 JUMPI PUSH1 0x0 DUP1 REVERT JUMPDEST PUSH2 0x257F DUP4 PUSH2 0x1C9D JUMP JUMPDEST PUSH2 0x2588 JUMPI PUSH1 0x0 DUP1 REVERT JUMPDEST PUSH1 0x0 PUSH2 0x2593 DUP4 PUSH2 0x1D34 JUMP JUMPDEST SWAP1 POP PUSH1 0x0 DUP2 PUSH1 0xD PUSH1 0x0 DUP8 DUP2 MSTORE PUSH1 0x20 ADD SWAP1 DUP2 MSTORE PUSH1 0x20 ADD PUSH1 0x0 KECCAK256 PUSH1 0x40 MLOAD PUSH1 0x20 ADD PUSH2 0x25BC SWAP3 SWAP2 SWAP1 PUSH2 0x35A0 JUMP JUMPDEST PUSH1 0x40 MLOAD PUSH1 0x20 DUP2 DUP4 SUB SUB DUP2 MSTORE SWAP1 PUSH1 0x40 MSTORE SWAP1 POP PUSH1 0x0 PUSH2 0x25D8 DUP3 PUSH2 0x1594 JUMP JUMPDEST SWAP1 POP PUSH1 0x0 PUSH2 0x2680 PUSH1 0xD PUSH1 0x0 DUP10 DUP2 MSTORE PUSH1 0x20 ADD SWAP1 DUP2 MSTORE PUSH1 0x20 ADD PUSH1 0x0 KECCAK256 DUP1 SLOAD PUSH2 0x25FD SWAP1 PUSH2 0x388F JUMP JUMPDEST DUP1 PUSH1 0x1F ADD PUSH1 0x20 DUP1 SWAP2 DIV MUL PUSH1 0x20 ADD PUSH1 0x40 MLOAD SWAP1 DUP2 ADD PUSH1 0x40 MSTORE DUP1 SWAP3 SWAP2 SWAP1 DUP2 DUP2 MSTORE PUSH1 0x20 ADD DUP3 DUP1 SLOAD PUSH2 0x2629 SWAP1 PUSH2 0x388F JUMP JUMPDEST DUP1 ISZERO PUSH2 0x2676 JUMPI DUP1 PUSH1 0x1F LT PUSH2 0x264B JUMPI PUSH2 0x100 DUP1 DUP4 SLOAD DIV MUL DUP4 MSTORE SWAP2 PUSH1 0x20 ADD SWAP2 PUSH2 0x2676 JUMP JUMPDEST DUP3 ADD SWAP2 SWAP1 PUSH1 0x0 MSTORE PUSH1 0x20 PUSH1 0x0 KECCAK256 SWAP1 JUMPDEST DUP2 SLOAD DUP2 MSTORE SWAP1 PUSH1 0x1 ADD SWAP1 PUSH1 0x20 ADD DUP1 DUP4 GT PUSH2 0x2659 JUMPI DUP3 SWAP1 SUB PUSH1 0x1F AND DUP3 ADD SWAP2 JUMPDEST POP POP POP POP POP PUSH2 0x1E97 JUMP JUMPDEST SWAP1 POP DUP1 PUSH1 0x1 EQ ISZERO PUSH2 0x26A5 JUMPI PUSH1 0x0 DUP8 DUP2 MSTORE PUSH1 0xC PUSH1 0x20 MSTORE PUSH1 0x40 SWAP1 KECCAK256 PUSH2 0x26A3 SWAP1 DUP4 PUSH2 0x29E6 JUMP JUMPDEST POP JUMPDEST DUP5 MLOAD ISZERO PUSH2 0x26BC JUMPI PUSH2 0x26B7 DUP9 DUP4 DUP8 PUSH2 0x28FC JUMP JUMPDEST PUSH2 0x26C6 JUMP JUMPDEST PUSH2 0x26C6 DUP9 DUP4 PUSH2 0x2069 JUMP JUMPDEST PUSH2 0x26D0 DUP3 DUP5 PUSH2 0x2083 JUMP JUMPDEST DUP2 PUSH32 0xC5BEEF08F693B11C316C0C8394A377A0033C9CF701B8CD8AFD79CECEF60C3952 DUP5 PUSH1 0x40 MLOAD PUSH2 0x2700 SWAP2 SWAP1 PUSH2 0x3629 JUMP JUMPDEST PUSH1 0x40 MLOAD DUP1 SWAP2 SUB SWAP1 LOG2 POP POP POP POP POP POP POP POP JUMP JUMPDEST PUSH2 0x271D DUP5 DUP5 DUP5 PUSH2 0x21F2 JUMP JUMPDEST PUSH2 0x2729 DUP5 DUP5 DUP5 DUP5 PUSH2 0x29F2 JUMP JUMPDEST PUSH2 0x182D JUMPI PUSH1 0x40 MLOAD PUSH3 0x461BCD PUSH1 0xE5 SHL DUP2 MSTORE PUSH1 0x4 ADD PUSH2 0x9E2 SWAP1 PUSH2 0x363C JUMP JUMPDEST PUSH2 0x274E DUP3 PUSH2 0x1C9D JUMP JUMPDEST PUSH2 0x2757 JUMPI PUSH1 0x0 DUP1 REVERT JUMPDEST PUSH1 0x0 DUP3 DUP2 MSTORE PUSH1 0xE PUSH1 0x20 MSTORE PUSH1 0x40 DUP1 DUP3 KECCAK256 DUP1 SLOAD PUSH1 0x1 PUSH1 0x1 PUSH1 0xA0 SHL SUB NOT AND PUSH1 0x1 PUSH1 0x1 PUSH1 0xA0 SHL SUB DUP6 AND SWAP1 DUP2 OR SWAP1 SWAP2 SSTORE SWAP1 MLOAD SWAP1 SWAP2 DUP5 SWAP2 PUSH32 0xCBAE0978F0621EBB4707A96540F8D3A937104526CEEF2CDF1CF07B25C5E48CD4 SWAP2 SWAP1 LOG3 POP POP JUMP JUMPDEST PUSH1 0x0 PUSH2 0x27BB DUP3 PUSH2 0x1D34 JUMP JUMPDEST SWAP1 POP PUSH1 0x0 DUP2 PUSH1 0xD PUSH1 0x0 DUP7 DUP2 MSTORE PUSH1 0x20 ADD SWAP1 DUP2 MSTORE PUSH1 0x20 ADD PUSH1 0x0 KECCAK256 PUSH1 0x40 MLOAD PUSH1 0x20 ADD PUSH2 0x27E4 SWAP3 SWAP2 SWAP1 PUSH2 0x35A0 JUMP JUMPDEST PUSH1 0x40 MLOAD PUSH1 0x20 DUP2 DUP4 SUB SUB DUP2 MSTORE SWAP1 PUSH1 0x40 MSTORE SWAP1 POP PUSH1 0x0 PUSH2 0x2800 DUP3 PUSH2 0x1594 JUMP JUMPDEST PUSH1 0x0 DUP7 DUP2 MSTORE PUSH1 0xC PUSH1 0x20 MSTORE PUSH1 0x40 SWAP1 KECCAK256 SWAP1 SWAP2 POP PUSH2 0x281B SWAP1 DUP3 PUSH2 0x2AFF JUMP JUMPDEST POP PUSH1 0x0 DUP6 DUP2 MSTORE PUSH1 0xE PUSH1 0x20 MSTORE PUSH1 0x40 SWAP1 KECCAK256 SLOAD PUSH1 0x1 PUSH1 0x1 PUSH1 0xA0 SHL SUB AND ISZERO PUSH2 0x2856 JUMPI PUSH1 0x0 DUP6 DUP2 MSTORE PUSH1 0xE PUSH1 0x20 MSTORE PUSH1 0x40 SWAP1 KECCAK256 DUP1 SLOAD PUSH1 0x1 PUSH1 0x1 PUSH1 0xA0 SHL SUB NOT AND SWAP1 SSTORE JUMPDEST PUSH1 0x0 DUP2 DUP2 MSTORE PUSH1 0xD PUSH1 0x20 MSTORE PUSH1 0x40 SWAP1 KECCAK256 DUP1 SLOAD PUSH2 0x286F SWAP1 PUSH2 0x388F JUMP JUMPDEST ISZERO SWAP1 POP PUSH2 0x288D JUMPI PUSH1 0x0 DUP2 DUP2 MSTORE PUSH1 0xD PUSH1 0x20 MSTORE PUSH1 0x40 DUP2 KECCAK256 PUSH2 0x288D SWAP2 PUSH2 0x2FD4 JUMP JUMPDEST PUSH2 0x2896 DUP2 PUSH2 0x23B4 JUMP JUMPDEST POP POP POP POP POP JUMP JUMPDEST PUSH1 0x60 PUSH1 0xF DUP1 SLOAD PUSH2 0x8F7 SWAP1 PUSH2 0x388F JUMP JUMPDEST PUSH1 0x0 PUSH1 0x1 PUSH1 0x1 PUSH1 0xE0 SHL SUB NOT DUP3 AND PUSH4 0x80AC58CD PUSH1 0xE0 SHL EQ DUP1 PUSH2 0x28DD JUMPI POP PUSH1 0x1 PUSH1 0x1 PUSH1 0xE0 SHL SUB NOT DUP3 AND PUSH4 0x5B5E139F PUSH1 0xE0 SHL EQ JUMPDEST DUP1 PUSH2 0x8E2 JUMPI POP PUSH4 0x1FFC9A7 PUSH1 0xE0 SHL PUSH1 0x1 PUSH1 0x1 PUSH1 0xE0 SHL SUB NOT DUP4 AND EQ PUSH2 0x8E2 JUMP JUMPDEST PUSH2 0x2906 DUP4 DUP4 PUSH2 0x2B0B JUMP JUMPDEST PUSH2 0x2913 PUSH1 0x0 DUP5 DUP5 DUP5 PUSH2 0x29F2 JUMP JUMPDEST PUSH2 0xB18 JUMPI PUSH1 0x40 MLOAD PUSH3 0x461BCD PUSH1 0xE5 SHL DUP2 MSTORE PUSH1 0x4 ADD PUSH2 0x9E2 SWAP1 PUSH2 0x363C JUMP JUMPDEST PUSH2 0xB18 DUP4 DUP4 DUP4 PUSH2 0x2C4A JUMP JUMPDEST PUSH1 0x0 DUP3 PUSH1 0x0 ADD DUP3 DUP2 SLOAD DUP2 LT PUSH2 0x2951 JUMPI PUSH2 0x2951 PUSH2 0x3911 JUMP JUMPDEST SWAP1 PUSH1 0x0 MSTORE PUSH1 0x20 PUSH1 0x0 KECCAK256 ADD SLOAD SWAP1 POP SWAP3 SWAP2 POP POP JUMP JUMPDEST PUSH2 0x296E DUP3 DUP3 PUSH2 0x24C2 JUMP JUMPDEST PUSH2 0x29C4 JUMPI PUSH1 0x40 MLOAD PUSH3 0x461BCD PUSH1 0xE5 SHL DUP2 MSTORE PUSH1 0x20 PUSH1 0x4 DUP3 ADD MSTORE PUSH1 0x21 PUSH1 0x24 DUP3 ADD MSTORE PUSH32 0x526F6C65733A206163636F756E7420646F6573206E6F74206861766520726F6C PUSH1 0x44 DUP3 ADD MSTORE PUSH1 0x65 PUSH1 0xF8 SHL PUSH1 0x64 DUP3 ADD MSTORE PUSH1 0x84 ADD PUSH2 0x9E2 JUMP JUMPDEST PUSH1 0x1 PUSH1 0x1 PUSH1 0xA0 SHL SUB AND PUSH1 0x0 SWAP1 DUP2 MSTORE PUSH1 0x20 SWAP2 SWAP1 SWAP2 MSTORE PUSH1 0x40 SWAP1 KECCAK256 DUP1 SLOAD PUSH1 0xFF NOT AND SWAP1 SSTORE JUMP JUMPDEST PUSH1 0x0 PUSH2 0x1019 DUP4 DUP4 PUSH2 0x2D02 JUMP JUMPDEST PUSH1 0x0 PUSH1 0x1 PUSH1 0x1 PUSH1 0xA0 SHL SUB DUP5 AND EXTCODESIZE ISZERO PUSH2 0x2AF4 JUMPI PUSH1 0x40 MLOAD PUSH4 0xA85BD01 PUSH1 0xE1 SHL DUP2 MSTORE PUSH1 0x1 PUSH1 0x1 PUSH1 0xA0 SHL SUB DUP6 AND SWAP1 PUSH4 0x150B7A02 SWAP1 PUSH2 0x2A36 SWAP1 CALLER SWAP1 DUP10 SWAP1 DUP9 SWAP1 DUP9 SWAP1 PUSH1 0x4 ADD PUSH2 0x35EC JUMP JUMPDEST PUSH1 0x20 PUSH1 0x40 MLOAD DUP1 DUP4 SUB DUP2 PUSH1 0x0 DUP8 DUP1 EXTCODESIZE ISZERO DUP1 ISZERO PUSH2 0x2A50 JUMPI PUSH1 0x0 DUP1 REVERT JUMPDEST POP GAS CALL SWAP3 POP POP POP DUP1 ISZERO PUSH2 0x2A80 JUMPI POP PUSH1 0x40 DUP1 MLOAD PUSH1 0x1F RETURNDATASIZE SWAP1 DUP2 ADD PUSH1 0x1F NOT AND DUP3 ADD SWAP1 SWAP3 MSTORE PUSH2 0x2A7D SWAP2 DUP2 ADD SWAP1 PUSH2 0x3387 JUMP JUMPDEST PUSH1 0x1 JUMPDEST PUSH2 0x2ADA JUMPI RETURNDATASIZE DUP1 DUP1 ISZERO PUSH2 0x2AAE JUMPI PUSH1 0x40 MLOAD SWAP2 POP PUSH1 0x1F NOT PUSH1 0x3F RETURNDATASIZE ADD AND DUP3 ADD PUSH1 0x40 MSTORE RETURNDATASIZE DUP3 MSTORE RETURNDATASIZE PUSH1 0x0 PUSH1 0x20 DUP5 ADD RETURNDATACOPY PUSH2 0x2AB3 JUMP JUMPDEST PUSH1 0x60 SWAP2 POP JUMPDEST POP DUP1 MLOAD PUSH2 0x2AD2 JUMPI PUSH1 0x40 MLOAD PUSH3 0x461BCD PUSH1 0xE5 SHL DUP2 MSTORE PUSH1 0x4 ADD PUSH2 0x9E2 SWAP1 PUSH2 0x363C JUMP JUMPDEST DUP1 MLOAD DUP2 PUSH1 0x20 ADD REVERT JUMPDEST PUSH1 0x1 PUSH1 0x1 PUSH1 0xE0 SHL SUB NOT AND PUSH4 0xA85BD01 PUSH1 0xE1 SHL EQ SWAP1 POP PUSH2 0x1290 JUMP JUMPDEST POP PUSH1 0x1 SWAP5 SWAP4 POP POP POP POP JUMP JUMPDEST PUSH1 0x0 PUSH2 0x1019 DUP4 DUP4 PUSH2 0x2D51 JUMP JUMPDEST PUSH1 0x1 PUSH1 0x1 PUSH1 0xA0 SHL SUB DUP3 AND PUSH2 0x2B61 JUMPI PUSH1 0x40 MLOAD PUSH3 0x461BCD PUSH1 0xE5 SHL DUP2 MSTORE PUSH1 0x20 PUSH1 0x4 DUP3 ADD DUP2 SWAP1 MSTORE PUSH1 0x24 DUP3 ADD MSTORE PUSH32 0x4552433732313A206D696E7420746F20746865207A65726F2061646472657373 PUSH1 0x44 DUP3 ADD MSTORE PUSH1 0x64 ADD PUSH2 0x9E2 JUMP JUMPDEST PUSH2 0x2B6A DUP2 PUSH2 0x1C9D JUMP JUMPDEST ISZERO PUSH2 0x2BB7 JUMPI PUSH1 0x40 MLOAD PUSH3 0x461BCD PUSH1 0xE5 SHL DUP2 MSTORE PUSH1 0x20 PUSH1 0x4 DUP3 ADD MSTORE PUSH1 0x1C PUSH1 0x24 DUP3 ADD MSTORE PUSH32 0x4552433732313A20746F6B656E20616C7265616479206D696E74656400000000 PUSH1 0x44 DUP3 ADD MSTORE PUSH1 0x64 ADD PUSH2 0x9E2 JUMP JUMPDEST PUSH2 0x2BC3 PUSH1 0x0 DUP4 DUP4 PUSH2 0x292F JUMP JUMPDEST PUSH1 0x1 PUSH1 0x1 PUSH1 0xA0 SHL SUB DUP3 AND PUSH1 0x0 SWAP1 DUP2 MSTORE PUSH1 0x3 PUSH1 0x20 MSTORE PUSH1 0x40 DUP2 KECCAK256 DUP1 SLOAD PUSH1 0x1 SWAP3 SWAP1 PUSH2 0x2BEC SWAP1 DUP5 SWAP1 PUSH2 0x37F0 JUMP JUMPDEST SWAP1 SWAP2 SSTORE POP POP PUSH1 0x0 DUP2 DUP2 MSTORE PUSH1 0x2 PUSH1 0x20 MSTORE PUSH1 0x40 DUP1 DUP3 KECCAK256 DUP1 SLOAD PUSH1 0x1 PUSH1 0x1 PUSH1 0xA0 SHL SUB NOT AND PUSH1 0x1 PUSH1 0x1 PUSH1 0xA0 SHL SUB DUP7 AND SWAP1 DUP2 OR SWAP1 SWAP2 SSTORE SWAP1 MLOAD DUP4 SWAP3 SWAP1 PUSH32 0xDDF252AD1BE2C89B69C2B068FC378DAA952BA7F163C4A11628F55A4DF523B3EF SWAP1 DUP3 SWAP1 LOG4 POP POP JUMP JUMPDEST PUSH1 0x1 PUSH1 0x1 PUSH1 0xA0 SHL SUB DUP4 AND PUSH2 0x2CA5 JUMPI PUSH2 0x2CA0 DUP2 PUSH1 0x8 DUP1 SLOAD PUSH1 0x0 DUP4 DUP2 MSTORE PUSH1 0x9 PUSH1 0x20 MSTORE PUSH1 0x40 DUP2 KECCAK256 DUP3 SWAP1 SSTORE PUSH1 0x1 DUP3 ADD DUP4 SSTORE SWAP2 SWAP1 SWAP2 MSTORE PUSH32 0xF3F7A9FE364FAAB93B216DA50A3214154F22A0A2B415B23A84C8169E8B636EE3 ADD SSTORE JUMP JUMPDEST PUSH2 0x2CC8 JUMP JUMPDEST DUP2 PUSH1 0x1 PUSH1 0x1 PUSH1 0xA0 SHL SUB AND DUP4 PUSH1 0x1 PUSH1 0x1 PUSH1 0xA0 SHL SUB AND EQ PUSH2 0x2CC8 JUMPI PUSH2 0x2CC8 DUP4 DUP3 PUSH2 0x2E44 JUMP JUMPDEST PUSH1 0x1 PUSH1 0x1 PUSH1 0xA0 SHL SUB DUP3 AND PUSH2 0x2CDF JUMPI PUSH2 0xB18 DUP2 PUSH2 0x2EE1 JUMP JUMPDEST DUP3 PUSH1 0x1 PUSH1 0x1 PUSH1 0xA0 SHL SUB AND DUP3 PUSH1 0x1 PUSH1 0x1 PUSH1 0xA0 SHL SUB AND EQ PUSH2 0xB18 JUMPI PUSH2 0xB18 DUP3 DUP3 PUSH2 0x2F90 JUMP JUMPDEST PUSH1 0x0 DUP2 DUP2 MSTORE PUSH1 0x1 DUP4 ADD PUSH1 0x20 MSTORE PUSH1 0x40 DUP2 KECCAK256 SLOAD PUSH2 0x2D49 JUMPI POP DUP2 SLOAD PUSH1 0x1 DUP2 DUP2 ADD DUP5 SSTORE PUSH1 0x0 DUP5 DUP2 MSTORE PUSH1 0x20 DUP1 DUP3 KECCAK256 SWAP1 SWAP4 ADD DUP5 SWAP1 SSTORE DUP5 SLOAD DUP5 DUP3 MSTORE DUP3 DUP7 ADD SWAP1 SWAP4 MSTORE PUSH1 0x40 SWAP1 KECCAK256 SWAP2 SWAP1 SWAP2 SSTORE PUSH2 0x8E2 JUMP JUMPDEST POP PUSH1 0x0 PUSH2 0x8E2 JUMP JUMPDEST PUSH1 0x0 DUP2 DUP2 MSTORE PUSH1 0x1 DUP4 ADD PUSH1 0x20 MSTORE PUSH1 0x40 DUP2 KECCAK256 SLOAD DUP1 ISZERO PUSH2 0x2E3A JUMPI PUSH1 0x0 PUSH2 0x2D75 PUSH1 0x1 DUP4 PUSH2 0x384C JUMP JUMPDEST DUP6 SLOAD SWAP1 SWAP2 POP PUSH1 0x0 SWAP1 PUSH2 0x2D89 SWAP1 PUSH1 0x1 SWAP1 PUSH2 0x384C JUMP JUMPDEST SWAP1 POP DUP2 DUP2 EQ PUSH2 0x2DEE JUMPI PUSH1 0x0 DUP7 PUSH1 0x0 ADD DUP3 DUP2 SLOAD DUP2 LT PUSH2 0x2DA9 JUMPI PUSH2 0x2DA9 PUSH2 0x3911 JUMP JUMPDEST SWAP1 PUSH1 0x0 MSTORE PUSH1 0x20 PUSH1 0x0 KECCAK256 ADD SLOAD SWAP1 POP DUP1 DUP8 PUSH1 0x0 ADD DUP5 DUP2 SLOAD DUP2 LT PUSH2 0x2DCC JUMPI PUSH2 0x2DCC PUSH2 0x3911 JUMP JUMPDEST PUSH1 0x0 SWAP2 DUP3 MSTORE PUSH1 0x20 DUP1 DUP4 KECCAK256 SWAP1 SWAP2 ADD SWAP3 SWAP1 SWAP3 SSTORE SWAP2 DUP3 MSTORE PUSH1 0x1 DUP9 ADD SWAP1 MSTORE PUSH1 0x40 SWAP1 KECCAK256 DUP4 SWAP1 SSTORE JUMPDEST DUP6 SLOAD DUP7 SWAP1 DUP1 PUSH2 0x2DFF JUMPI PUSH2 0x2DFF PUSH2 0x38FB JUMP JUMPDEST PUSH1 0x1 SWAP1 SUB DUP2 DUP2 SWAP1 PUSH1 0x0 MSTORE PUSH1 0x20 PUSH1 0x0 KECCAK256 ADD PUSH1 0x0 SWAP1 SSTORE SWAP1 SSTORE DUP6 PUSH1 0x1 ADD PUSH1 0x0 DUP7 DUP2 MSTORE PUSH1 0x20 ADD SWAP1 DUP2 MSTORE PUSH1 0x20 ADD PUSH1 0x0 KECCAK256 PUSH1 0x0 SWAP1 SSTORE PUSH1 0x1 SWAP4 POP POP POP POP PUSH2 0x8E2 JUMP JUMPDEST PUSH1 0x0 SWAP2 POP POP PUSH2 0x8E2 JUMP JUMPDEST PUSH1 0x0 PUSH1 0x1 PUSH2 0x2E51 DUP5 PUSH2 0x16BF JUMP JUMPDEST PUSH2 0x2E5B SWAP2 SWAP1 PUSH2 0x384C JUMP JUMPDEST PUSH1 0x0 DUP4 DUP2 MSTORE PUSH1 0x7 PUSH1 0x20 MSTORE PUSH1 0x40 SWAP1 KECCAK256 SLOAD SWAP1 SWAP2 POP DUP1 DUP3 EQ PUSH2 0x2EAE JUMPI PUSH1 0x1 PUSH1 0x1 PUSH1 0xA0 SHL SUB DUP5 AND PUSH1 0x0 SWAP1 DUP2 MSTORE PUSH1 0x6 PUSH1 0x20 SWAP1 DUP2 MSTORE PUSH1 0x40 DUP1 DUP4 KECCAK256 DUP6 DUP5 MSTORE DUP3 MSTORE DUP1 DUP4 KECCAK256 SLOAD DUP5 DUP5 MSTORE DUP2 DUP5 KECCAK256 DUP2 SWAP1 SSTORE DUP4 MSTORE PUSH1 0x7 SWAP1 SWAP2 MSTORE SWAP1 KECCAK256 DUP2 SWAP1 SSTORE JUMPDEST POP PUSH1 0x0 SWAP2 DUP3 MSTORE PUSH1 0x7 PUSH1 0x20 SWAP1 DUP2 MSTORE PUSH1 0x40 DUP1 DUP5 KECCAK256 DUP5 SWAP1 SSTORE PUSH1 0x1 PUSH1 0x1 PUSH1 0xA0 SHL SUB SWAP1 SWAP5 AND DUP4 MSTORE PUSH1 0x6 DUP2 MSTORE DUP4 DUP4 KECCAK256 SWAP2 DUP4 MSTORE MSTORE SWAP1 DUP2 KECCAK256 SSTORE JUMP JUMPDEST PUSH1 0x8 SLOAD PUSH1 0x0 SWAP1 PUSH2 0x2EF3 SWAP1 PUSH1 0x1 SWAP1 PUSH2 0x384C JUMP JUMPDEST PUSH1 0x0 DUP4 DUP2 MSTORE PUSH1 0x9 PUSH1 0x20 MSTORE PUSH1 0x40 DUP2 KECCAK256 SLOAD PUSH1 0x8 DUP1 SLOAD SWAP4 SWAP5 POP SWAP1 SWAP3 DUP5 SWAP1 DUP2 LT PUSH2 0x2F1B JUMPI PUSH2 0x2F1B PUSH2 0x3911 JUMP JUMPDEST SWAP1 PUSH1 0x0 MSTORE PUSH1 0x20 PUSH1 0x0 KECCAK256 ADD SLOAD SWAP1 POP DUP1 PUSH1 0x8 DUP4 DUP2 SLOAD DUP2 LT PUSH2 0x2F3C JUMPI PUSH2 0x2F3C PUSH2 0x3911 JUMP JUMPDEST PUSH1 0x0 SWAP2 DUP3 MSTORE PUSH1 0x20 DUP1 DUP4 KECCAK256 SWAP1 SWAP2 ADD SWAP3 SWAP1 SWAP3 SSTORE DUP3 DUP2 MSTORE PUSH1 0x9 SWAP1 SWAP2 MSTORE PUSH1 0x40 DUP1 DUP3 KECCAK256 DUP5 SWAP1 SSTORE DUP6 DUP3 MSTORE DUP2 KECCAK256 SSTORE PUSH1 0x8 DUP1 SLOAD DUP1 PUSH2 0x2F74 JUMPI PUSH2 0x2F74 PUSH2 0x38FB JUMP JUMPDEST PUSH1 0x1 SWAP1 SUB DUP2 DUP2 SWAP1 PUSH1 0x0 MSTORE PUSH1 0x20 PUSH1 0x0 KECCAK256 ADD PUSH1 0x0 SWAP1 SSTORE SWAP1 SSTORE POP POP POP POP JUMP JUMPDEST PUSH1 0x0 PUSH2 0x2F9B DUP4 PUSH2 0x16BF JUMP JUMPDEST PUSH1 0x1 PUSH1 0x1 PUSH1 0xA0 SHL SUB SWAP1 SWAP4 AND PUSH1 0x0 SWAP1 DUP2 MSTORE PUSH1 0x6 PUSH1 0x20 SWAP1 DUP2 MSTORE PUSH1 0x40 DUP1 DUP4 KECCAK256 DUP7 DUP5 MSTORE DUP3 MSTORE DUP1 DUP4 KECCAK256 DUP6 SWAP1 SSTORE SWAP4 DUP3 MSTORE PUSH1 0x7 SWAP1 MSTORE SWAP2 SWAP1 SWAP2 KECCAK256 SWAP2 SWAP1 SWAP2 SSTORE POP JUMP JUMPDEST POP DUP1 SLOAD PUSH2 0x2FE0 SWAP1 PUSH2 0x388F JUMP JUMPDEST PUSH1 0x0 DUP3 SSTORE DUP1 PUSH1 0x1F LT PUSH2 0x2FF0 JUMPI POP POP JUMP JUMPDEST PUSH1 0x1F ADD PUSH1 0x20 SWAP1 DIV SWAP1 PUSH1 0x0 MSTORE PUSH1 0x20 PUSH1 0x0 KECCAK256 SWAP1 DUP2 ADD SWAP1 PUSH2 0x1139 SWAP2 SWAP1 PUSH2 0x3092 JUMP JUMPDEST DUP3 DUP1 SLOAD PUSH2 0x301A SWAP1 PUSH2 0x388F JUMP JUMPDEST SWAP1 PUSH1 0x0 MSTORE PUSH1 0x20 PUSH1 0x0 KECCAK256 SWAP1 PUSH1 0x1F ADD PUSH1 0x20 SWAP1 DIV DUP2 ADD SWAP3 DUP3 PUSH2 0x303C JUMPI PUSH1 0x0 DUP6 SSTORE PUSH2 0x3082 JUMP JUMPDEST DUP3 PUSH1 0x1F LT PUSH2 0x3055 JUMPI DUP1 MLOAD PUSH1 0xFF NOT AND DUP4 DUP1 ADD OR DUP6 SSTORE PUSH2 0x3082 JUMP JUMPDEST DUP3 DUP1 ADD PUSH1 0x1 ADD DUP6 SSTORE DUP3 ISZERO PUSH2 0x3082 JUMPI SWAP2 DUP3 ADD JUMPDEST DUP3 DUP2 GT ISZERO PUSH2 0x3082 JUMPI DUP3 MLOAD DUP3 SSTORE SWAP2 PUSH1 0x20 ADD SWAP2 SWAP1 PUSH1 0x1 ADD SWAP1 PUSH2 0x3067 JUMP JUMPDEST POP PUSH2 0x308E SWAP3 SWAP2 POP PUSH2 0x3092 JUMP JUMPDEST POP SWAP1 JUMP JUMPDEST JUMPDEST DUP1 DUP3 GT ISZERO PUSH2 0x308E JUMPI PUSH1 0x0 DUP2 SSTORE PUSH1 0x1 ADD PUSH2 0x3093 JUMP JUMPDEST PUSH1 0x0 PUSH8 0xFFFFFFFFFFFFFFFF DUP1 DUP5 GT ISZERO PUSH2 0x30C2 JUMPI PUSH2 0x30C2 PUSH2 0x3927 JUMP JUMPDEST PUSH1 0x40 MLOAD PUSH1 0x1F DUP6 ADD PUSH1 0x1F NOT SWAP1 DUP2 AND PUSH1 0x3F ADD AND DUP2 ADD SWAP1 DUP3 DUP3 GT DUP2 DUP4 LT OR ISZERO PUSH2 0x30EA JUMPI PUSH2 0x30EA PUSH2 0x3927 JUMP JUMPDEST DUP2 PUSH1 0x40 MSTORE DUP1 SWAP4 POP DUP6 DUP2 MSTORE DUP7 DUP7 DUP7 ADD GT ISZERO PUSH2 0x3103 JUMPI PUSH1 0x0 DUP1 REVERT JUMPDEST DUP6 DUP6 PUSH1 0x20 DUP4 ADD CALLDATACOPY PUSH1 0x0 PUSH1 0x20 DUP8 DUP4 ADD ADD MSTORE POP POP POP SWAP4 SWAP3 POP POP POP JUMP JUMPDEST DUP1 CALLDATALOAD PUSH1 0x1 PUSH1 0x1 PUSH1 0xA0 SHL SUB DUP2 AND DUP2 EQ PUSH2 0x3134 JUMPI PUSH1 0x0 DUP1 REVERT JUMPDEST SWAP2 SWAP1 POP JUMP JUMPDEST PUSH1 0x0 DUP3 PUSH1 0x1F DUP4 ADD SLT PUSH2 0x314A JUMPI PUSH1 0x0 DUP1 REVERT JUMPDEST PUSH2 0x1019 DUP4 DUP4 CALLDATALOAD PUSH1 0x20 DUP6 ADD PUSH2 0x30A7 JUMP JUMPDEST PUSH1 0x0 PUSH1 0x20 DUP3 DUP5 SUB SLT ISZERO PUSH2 0x316B JUMPI PUSH1 0x0 DUP1 REVERT JUMPDEST PUSH2 0x1019 DUP3 PUSH2 0x311D JUMP JUMPDEST PUSH1 0x0 DUP1 PUSH1 0x40 DUP4 DUP6 SUB SLT ISZERO PUSH2 0x3187 JUMPI PUSH1 0x0 DUP1 REVERT JUMPDEST PUSH2 0x3190 DUP4 PUSH2 0x311D JUMP JUMPDEST SWAP2 POP PUSH2 0x319E PUSH1 0x20 DUP5 ADD PUSH2 0x311D JUMP JUMPDEST SWAP1 POP SWAP3 POP SWAP3 SWAP1 POP JUMP JUMPDEST PUSH1 0x0 DUP1 PUSH1 0x0 PUSH1 0x60 DUP5 DUP7 SUB SLT ISZERO PUSH2 0x31BC JUMPI PUSH1 0x0 DUP1 REVERT JUMPDEST PUSH2 0x31C5 DUP5 PUSH2 0x311D JUMP JUMPDEST SWAP3 POP PUSH2 0x31D3 PUSH1 0x20 DUP6 ADD PUSH2 0x311D JUMP JUMPDEST SWAP2 POP PUSH1 0x40 DUP5 ADD CALLDATALOAD SWAP1 POP SWAP3 POP SWAP3 POP SWAP3 JUMP JUMPDEST PUSH1 0x0 DUP1 PUSH1 0x0 DUP1 PUSH1 0x80 DUP6 DUP8 SUB SLT ISZERO PUSH2 0x31F9 JUMPI PUSH1 0x0 DUP1 REVERT JUMPDEST PUSH2 0x3202 DUP6 PUSH2 0x311D JUMP JUMPDEST SWAP4 POP PUSH2 0x3210 PUSH1 0x20 DUP7 ADD PUSH2 0x311D JUMP JUMPDEST SWAP3 POP PUSH1 0x40 DUP6 ADD CALLDATALOAD SWAP2 POP PUSH1 0x60 DUP6 ADD CALLDATALOAD PUSH8 0xFFFFFFFFFFFFFFFF DUP2 GT ISZERO PUSH2 0x3233 JUMPI PUSH1 0x0 DUP1 REVERT JUMPDEST DUP6 ADD PUSH1 0x1F DUP2 ADD DUP8 SGT PUSH2 0x3244 JUMPI PUSH1 0x0 DUP1 REVERT JUMPDEST PUSH2 0x3253 DUP8 DUP3 CALLDATALOAD PUSH1 0x20 DUP5 ADD PUSH2 0x30A7 JUMP JUMPDEST SWAP2 POP POP SWAP3 SWAP6 SWAP2 SWAP5 POP SWAP3 POP JUMP JUMPDEST PUSH1 0x0 DUP1 PUSH1 0x40 DUP4 DUP6 SUB SLT ISZERO PUSH2 0x3272 JUMPI PUSH1 0x0 DUP1 REVERT JUMPDEST PUSH2 0x327B DUP4 PUSH2 0x311D JUMP JUMPDEST SWAP2 POP PUSH1 0x20 DUP4 ADD CALLDATALOAD DUP1 ISZERO ISZERO DUP2 EQ PUSH2 0x3290 JUMPI PUSH1 0x0 DUP1 REVERT JUMPDEST DUP1 SWAP2 POP POP SWAP3 POP SWAP3 SWAP1 POP JUMP JUMPDEST PUSH1 0x0 DUP1 PUSH1 0x40 DUP4 DUP6 SUB SLT ISZERO PUSH2 0x32AE JUMPI PUSH1 0x0 DUP1 REVERT JUMPDEST PUSH2 0x32B7 DUP4 PUSH2 0x311D JUMP JUMPDEST SWAP2 POP PUSH1 0x20 DUP4 ADD CALLDATALOAD PUSH8 0xFFFFFFFFFFFFFFFF DUP2 GT ISZERO PUSH2 0x32D3 JUMPI PUSH1 0x0 DUP1 REVERT JUMPDEST PUSH2 0x32DF DUP6 DUP3 DUP7 ADD PUSH2 0x3139 JUMP JUMPDEST SWAP2 POP POP SWAP3 POP SWAP3 SWAP1 POP JUMP JUMPDEST PUSH1 0x0 DUP1 PUSH1 0x40 DUP4 DUP6 SUB SLT ISZERO PUSH2 0x32FC JUMPI PUSH1 0x0 DUP1 REVERT JUMPDEST PUSH2 0x3305 DUP4 PUSH2 0x311D JUMP JUMPDEST SWAP5 PUSH1 0x20 SWAP4 SWAP1 SWAP4 ADD CALLDATALOAD SWAP4 POP POP POP JUMP JUMPDEST PUSH1 0x0 DUP1 PUSH1 0x0 PUSH1 0x60 DUP5 DUP7 SUB SLT ISZERO PUSH2 0x3328 JUMPI PUSH1 0x0 DUP1 REVERT JUMPDEST PUSH2 0x3331 DUP5 PUSH2 0x311D JUMP JUMPDEST SWAP3 POP PUSH1 0x20 DUP5 ADD CALLDATALOAD SWAP2 POP PUSH1 0x40 DUP5 ADD CALLDATALOAD PUSH8 0xFFFFFFFFFFFFFFFF DUP2 GT ISZERO PUSH2 0x3354 JUMPI PUSH1 0x0 DUP1 REVERT JUMPDEST PUSH2 0x3360 DUP7 DUP3 DUP8 ADD PUSH2 0x3139 JUMP JUMPDEST SWAP2 POP POP SWAP3 POP SWAP3 POP SWAP3 JUMP JUMPDEST PUSH1 0x0 PUSH1 0x20 DUP3 DUP5 SUB SLT ISZERO PUSH2 0x337C JUMPI PUSH1 0x0 DUP1 REVERT JUMPDEST DUP2 CALLDATALOAD PUSH2 0x1019 DUP2 PUSH2 0x393D JUMP JUMPDEST PUSH1 0x0 PUSH1 0x20 DUP3 DUP5 SUB SLT ISZERO PUSH2 0x3399 JUMPI PUSH1 0x0 DUP1 REVERT JUMPDEST DUP2 MLOAD PUSH2 0x1019 DUP2 PUSH2 0x393D JUMP JUMPDEST PUSH1 0x0 PUSH1 0x20 DUP3 DUP5 SUB SLT ISZERO PUSH2 0x33B6 JUMPI PUSH1 0x0 DUP1 REVERT JUMPDEST DUP2 CALLDATALOAD PUSH8 0xFFFFFFFFFFFFFFFF DUP2 GT ISZERO PUSH2 0x33CD JUMPI PUSH1 0x0 DUP1 REVERT JUMPDEST PUSH2 0x1290 DUP5 DUP3 DUP6 ADD PUSH2 0x3139 JUMP JUMPDEST PUSH1 0x0 PUSH1 0x20 DUP3 DUP5 SUB SLT ISZERO PUSH2 0x33EB JUMPI PUSH1 0x0 DUP1 REVERT JUMPDEST POP CALLDATALOAD SWAP2 SWAP1 POP JUMP JUMPDEST PUSH1 0x0 DUP1 PUSH1 0x40 DUP4 DUP6 SUB SLT ISZERO PUSH2 0x3405 JUMPI PUSH1 0x0 DUP1 REVERT JUMPDEST DUP3 CALLDATALOAD SWAP2 POP PUSH2 0x319E PUSH1 0x20 DUP5 ADD PUSH2 0x311D JUMP JUMPDEST PUSH1 0x0 DUP1 PUSH1 0x40 DUP4 DUP6 SUB SLT ISZERO PUSH2 0x3428 JUMPI PUSH1 0x0 DUP1 REVERT JUMPDEST DUP3 CALLDATALOAD SWAP2 POP PUSH1 0x20 DUP4 ADD CALLDATALOAD PUSH8 0xFFFFFFFFFFFFFFFF DUP2 GT ISZERO PUSH2 0x32D3 JUMPI PUSH1 0x0 DUP1 REVERT JUMPDEST PUSH1 0x0 DUP1 PUSH1 0x40 DUP4 DUP6 SUB SLT ISZERO PUSH2 0x3459 JUMPI PUSH1 0x0 DUP1 REVERT JUMPDEST POP POP DUP1 CALLDATALOAD SWAP3 PUSH1 0x20 SWAP1 SWAP2 ADD CALLDATALOAD SWAP2 POP JUMP JUMPDEST PUSH1 0x0 DUP2 MLOAD DUP1 DUP5 MSTORE PUSH2 0x3480 DUP2 PUSH1 0x20 DUP7 ADD PUSH1 0x20 DUP7 ADD PUSH2 0x3863 JUMP JUMPDEST PUSH1 0x1F ADD PUSH1 0x1F NOT AND SWAP3 SWAP1 SWAP3 ADD PUSH1 0x20 ADD SWAP3 SWAP2 POP POP JUMP JUMPDEST DUP1 SLOAD PUSH1 0x0 SWAP1 PUSH1 0x1 DUP2 DUP2 SHR SWAP1 DUP1 DUP4 AND DUP1 PUSH2 0x34AE JUMPI PUSH1 0x7F DUP4 AND SWAP3 POP JUMPDEST PUSH1 0x20 DUP1 DUP5 LT DUP3 EQ ISZERO PUSH2 0x34D0 JUMPI PUSH4 0x4E487B71 PUSH1 0xE0 SHL PUSH1 0x0 MSTORE PUSH1 0x22 PUSH1 0x4 MSTORE PUSH1 0x24 PUSH1 0x0 REVERT JUMPDEST DUP2 DUP1 ISZERO PUSH2 0x34E4 JUMPI PUSH1 0x1 DUP2 EQ PUSH2 0x34F5 JUMPI PUSH2 0x3522 JUMP JUMPDEST PUSH1 0xFF NOT DUP7 AND DUP10 MSTORE DUP5 DUP10 ADD SWAP7 POP PUSH2 0x3522 JUMP JUMPDEST PUSH1 0x0 DUP9 DUP2 MSTORE PUSH1 0x20 SWAP1 KECCAK256 PUSH1 0x0 JUMPDEST DUP7 DUP2 LT ISZERO PUSH2 0x351A JUMPI DUP2 SLOAD DUP12 DUP3 ADD MSTORE SWAP1 DUP6 ADD SWAP1 DUP4 ADD PUSH2 0x3501 JUMP JUMPDEST POP POP DUP5 DUP10 ADD SWAP7 POP JUMPDEST POP POP POP POP POP POP SWAP3 SWAP2 POP POP JUMP JUMPDEST PUSH1 0x0 DUP3 MLOAD PUSH2 0x3540 DUP2 DUP5 PUSH1 0x20 DUP8 ADD PUSH2 0x3863 JUMP JUMPDEST SWAP2 SWAP1 SWAP2 ADD SWAP3 SWAP2 POP POP JUMP JUMPDEST PUSH1 0x0 DUP4 MLOAD PUSH2 0x355C DUP2 DUP5 PUSH1 0x20 DUP9 ADD PUSH2 0x3863 JUMP JUMPDEST DUP4 MLOAD SWAP1 DUP4 ADD SWAP1 PUSH2 0x3570 DUP2 DUP4 PUSH1 0x20 DUP9 ADD PUSH2 0x3863 JUMP JUMPDEST ADD SWAP5 SWAP4 POP POP POP POP JUMP JUMPDEST PUSH1 0x0 DUP4 MLOAD PUSH2 0x358B DUP2 DUP5 PUSH1 0x20 DUP9 ADD PUSH2 0x3863 JUMP JUMPDEST PUSH2 0x3597 DUP2 DUP5 ADD DUP6 PUSH2 0x3494 JUMP JUMPDEST SWAP6 SWAP5 POP POP POP POP POP JUMP JUMPDEST PUSH1 0x0 DUP4 MLOAD PUSH2 0x35B2 DUP2 DUP5 PUSH1 0x20 DUP9 ADD PUSH2 0x3863 JUMP JUMPDEST PUSH1 0x17 PUSH1 0xF9 SHL SWAP1 DUP4 ADD SWAP1 DUP2 MSTORE PUSH2 0x3597 PUSH1 0x1 DUP3 ADD DUP6 PUSH2 0x3494 JUMP JUMPDEST PUSH1 0x0 DUP4 MLOAD PUSH2 0x35DC DUP2 DUP5 PUSH1 0x20 DUP9 ADD PUSH2 0x3863 JUMP JUMPDEST SWAP2 SWAP1 SWAP2 ADD SWAP2 DUP3 MSTORE POP PUSH1 0x20 ADD SWAP2 SWAP1 POP JUMP JUMPDEST PUSH1 0x1 PUSH1 0x1 PUSH1 0xA0 SHL SUB DUP6 DUP2 AND DUP3 MSTORE DUP5 AND PUSH1 0x20 DUP3 ADD MSTORE PUSH1 0x40 DUP2 ADD DUP4 SWAP1 MSTORE PUSH1 0x80 PUSH1 0x60 DUP3 ADD DUP2 SWAP1 MSTORE PUSH1 0x0 SWAP1 PUSH2 0x361F SWAP1 DUP4 ADD DUP5 PUSH2 0x3468 JUMP JUMPDEST SWAP7 SWAP6 POP POP POP POP POP POP JUMP JUMPDEST PUSH1 0x20 DUP2 MSTORE PUSH1 0x0 PUSH2 0x1019 PUSH1 0x20 DUP4 ADD DUP5 PUSH2 0x3468 JUMP JUMPDEST PUSH1 0x20 DUP1 DUP3 MSTORE PUSH1 0x32 SWAP1 DUP3 ADD MSTORE PUSH32 0x4552433732313A207472616E7366657220746F206E6F6E204552433732315265 PUSH1 0x40 DUP3 ADD MSTORE PUSH18 0x31B2B4BB32B91034B6B83632B6B2B73A32B9 PUSH1 0x71 SHL PUSH1 0x60 DUP3 ADD MSTORE PUSH1 0x80 ADD SWAP1 JUMP JUMPDEST PUSH1 0x20 DUP1 DUP3 MSTORE PUSH1 0x25 SWAP1 DUP3 ADD MSTORE PUSH32 0x446F6D61696E207265717569726573206174206C656173742033206368617261 PUSH1 0x40 DUP3 ADD MSTORE PUSH5 0x6374657273 PUSH1 0xD8 SHL PUSH1 0x60 DUP3 ADD MSTORE PUSH1 0x80 ADD SWAP1 JUMP JUMPDEST PUSH1 0x20 DUP1 DUP3 MSTORE PUSH1 0x35 SWAP1 DUP3 ADD MSTORE PUSH32 0x496E73756666696369656E7420546F6B656E206F7220546F6B656E2076616C75 PUSH1 0x40 DUP3 ADD MSTORE PUSH21 0x19481CD95B9D081A5CC81B9BDD0818DBDC9C9958DD PUSH1 0x5A SHL PUSH1 0x60 DUP3 ADD MSTORE PUSH1 0x80 ADD SWAP1 JUMP JUMPDEST PUSH1 0x20 DUP1 DUP3 MSTORE DUP2 DUP2 ADD MSTORE PUSH32 0x4F776E61626C653A2063616C6C6572206973206E6F7420746865206F776E6572 PUSH1 0x40 DUP3 ADD MSTORE PUSH1 0x60 ADD SWAP1 JUMP JUMPDEST PUSH1 0x20 DUP1 DUP3 MSTORE PUSH1 0x31 SWAP1 DUP3 ADD MSTORE PUSH32 0x4552433732313A207472616E736665722063616C6C6572206973206E6F74206F PUSH1 0x40 DUP3 ADD MSTORE PUSH17 0x1DDB995C881B9BDC88185C1C1C9BDD9959 PUSH1 0x7A SHL PUSH1 0x60 DUP3 ADD MSTORE PUSH1 0x80 ADD SWAP1 JUMP JUMPDEST PUSH1 0x20 DUP1 DUP3 MSTORE PUSH1 0x22 SWAP1 DUP3 ADD MSTORE PUSH32 0x546F70206C6576656C20646F6D61696E206D757374206265206E6F6E2D656D70 PUSH1 0x40 DUP3 ADD MSTORE PUSH2 0x7479 PUSH1 0xF0 SHL PUSH1 0x60 DUP3 ADD MSTORE PUSH1 0x80 ADD SWAP1 JUMP JUMPDEST PUSH1 0x0 DUP3 NOT DUP3 GT ISZERO PUSH2 0x3803 JUMPI PUSH2 0x3803 PUSH2 0x38E5 JUMP JUMPDEST POP ADD SWAP1 JUMP JUMPDEST PUSH1 0x0 PUSH1 0xFF DUP3 AND PUSH1 0xFF DUP5 AND DUP1 PUSH1 0xFF SUB DUP3 GT ISZERO PUSH2 0x3825 JUMPI PUSH2 0x3825 PUSH2 0x38E5 JUMP JUMPDEST ADD SWAP4 SWAP3 POP POP POP JUMP JUMPDEST PUSH1 0x0 DUP2 PUSH1 0x0 NOT DIV DUP4 GT DUP3 ISZERO ISZERO AND ISZERO PUSH2 0x3847 JUMPI PUSH2 0x3847 PUSH2 0x38E5 JUMP JUMPDEST POP MUL SWAP1 JUMP JUMPDEST PUSH1 0x0 DUP3 DUP3 LT ISZERO PUSH2 0x385E JUMPI PUSH2 0x385E PUSH2 0x38E5 JUMP JUMPDEST POP SUB SWAP1 JUMP JUMPDEST PUSH1 0x0 JUMPDEST DUP4 DUP2 LT ISZERO PUSH2 0x387E JUMPI DUP2 DUP2 ADD MLOAD DUP4 DUP3 ADD MSTORE PUSH1 0x20 ADD PUSH2 0x3866 JUMP JUMPDEST DUP4 DUP2 GT ISZERO PUSH2 0x182D JUMPI POP POP PUSH1 0x0 SWAP2 ADD MSTORE JUMP JUMPDEST PUSH1 0x1 DUP2 DUP2 SHR SWAP1 DUP3 AND DUP1 PUSH2 0x38A3 JUMPI PUSH1 0x7F DUP3 AND SWAP2 POP JUMPDEST PUSH1 0x20 DUP3 LT DUP2 EQ ISZERO PUSH2 0x38C4 JUMPI PUSH4 0x4E487B71 PUSH1 0xE0 SHL PUSH1 0x0 MSTORE PUSH1 0x22 PUSH1 0x4 MSTORE PUSH1 0x24 PUSH1 0x0 REVERT JUMPDEST POP SWAP2 SWAP1 POP JUMP JUMPDEST PUSH1 0x0 PUSH1 0x0 NOT DUP3 EQ ISZERO PUSH2 0x38DE JUMPI PUSH2 0x38DE PUSH2 0x38E5 JUMP JUMPDEST POP PUSH1 0x1 ADD SWAP1 JUMP JUMPDEST PUSH4 0x4E487B71 PUSH1 0xE0 SHL PUSH1 0x0 MSTORE PUSH1 0x11 PUSH1 0x4 MSTORE PUSH1 0x24 PUSH1 0x0 REVERT JUMPDEST PUSH4 0x4E487B71 PUSH1 0xE0 SHL PUSH1 0x0 MSTORE PUSH1 0x31 PUSH1 0x4 MSTORE PUSH1 0x24 PUSH1 0x0 REVERT JUMPDEST PUSH4 0x4E487B71 PUSH1 0xE0 SHL PUSH1 0x0 MSTORE PUSH1 0x32 PUSH1 0x4 MSTORE PUSH1 0x24 PUSH1 0x0 REVERT JUMPDEST PUSH4 0x4E487B71 PUSH1 0xE0 SHL PUSH1 0x0 MSTORE PUSH1 0x41 PUSH1 0x4 MSTORE PUSH1 0x24 PUSH1 0x0 REVERT JUMPDEST PUSH1 0x1 PUSH1 0x1 PUSH1 0xE0 SHL SUB NOT DUP2 AND DUP2 EQ PUSH2 0x1139 JUMPI PUSH1 0x0 DUP1 REVERT INVALID LOG2 PUSH5 0x6970667358 0x22 SLT KECCAK256 0xE 0xD9 0xFC 0xAC 0xDB SWAP15 PUSH6 0xC22ADB7F9CAA SWAP7 MSTORE8 PUSH2 0xF291 PUSH12 0x61A9319E1137C0B8B3761EF9 DIV PUSH5 0x736F6C6343 STOP ADDMOD SMOD STOP CALLER "
		},
		"gasEstimates": {
			"creation": {
				"codeDepositCost": "2945800",
				"executionCost": "infinite",
				"totalCost": "infinite"
			},
			"external": {
				"_saleIsActive()": "2345",
				"_tokenURIs(uint256)": "infinite",
				"approve(address,uint256)": "infinite",
				"balanceOf(address)": "2701",
				"burn(uint256)": "infinite",
				"burnSubDomain(uint256,string)": "infinite",
				"buyDomain(string)": "infinite",
				"exists(uint256)": "2621",
				"genTokenId(string)": "infinite",
				"get3charTimes()": "2338",
				"get4charTimes()": "2380",
				"getApproved(uint256)": "4822",
				"getOwner(string)": "infinite",
				"getPrice()": "2337",
				"getPrice3Char()": "4678",
				"getPrice4Char()": "4657",
				"getTLD()": "infinite",
				"grantMinterRole(address)": "infinite",
				"hasRole(address)": "2684",
				"isApprovedForAll(address,address)": "infinite",
				"isApprovedOrOwner(address,uint256)": "infinite",
				"name()": "infinite",
				"owner()": "2398",
				"ownerOf(uint256)": "2624",
				"registerDomain(address,string)": "infinite",
				"registerSubDomain(address,uint256,string)": "infinite",
				"renounceOwnership()": "28251",
				"resolverOf(uint256)": "2646",
				"revokeMinterRole(address)": "infinite",
				"safeTransferFrom(address,address,uint256)": "infinite",
				"safeTransferFrom(address,address,uint256,bytes)": "infinite",
				"setApprovalForAll(address,bool)": "26695",
				"setBaseURI(string)": "infinite",
				"setOwner(address,uint256)": "infinite",
				"setPrice(uint256)": "24575",
				"setResolver(uint256,address)": "infinite",
				"setSaleState()": "26591",
				"setTLD(string)": "infinite",
				"setTimes(uint256,uint256)": "46689",
				"subTokenIdByIndex(uint256,uint256)": "infinite",
				"subTokenIdCount(uint256)": "infinite",
				"supportsInterface(bytes4)": "infinite",
				"symbol()": "infinite",
				"tokenByIndex(uint256)": "6782",
				"tokenOfOwnerByIndex(address,uint256)": "5086",
				"tokenURI(uint256)": "infinite",
				"totalSupply()": "2438",
				"transferFrom(address,address,uint256)": "infinite",
				"transferOwnership(address)": "28444",
				"withdraw()": "infinite"
			},
			"internal": {
				"_baseURI()": "infinite",
				"_beforeTokenTransfer(address,address,uint256)": "infinite",
				"_burnSubDomain(uint256,string memory)": "infinite",
				"_safeMintSubDomain(address,uint256,string memory,bytes memory)": "infinite",
				"_setResolver(uint256,address)": "28118",
				"_setTokenURI(uint256,string memory)": "infinite"
			}
		},
		"methodIdentifiers": {
			"_saleIsActive()": "5d893ba0",
			"_tokenURIs(uint256)": "0bb78ec1",
			"approve(address,uint256)": "095ea7b3",
			"balanceOf(address)": "70a08231",
			"burn(uint256)": "42966c68",
			"burnSubDomain(uint256,string)": "c479a804",
			"buyDomain(string)": "1c3b028e",
			"exists(uint256)": "4f558e79",
			"genTokenId(string)": "50b3a144",
			"get3charTimes()": "358deb1c",
			"get4charTimes()": "d2315630",
			"getApproved(uint256)": "081812fc",
			"getOwner(string)": "4aaf4a12",
			"getPrice()": "98d5fdca",
			"getPrice3Char()": "c6438cb8",
			"getPrice4Char()": "4cd637b5",
			"getTLD()": "8f55ee79",
			"grantMinterRole(address)": "3dd1eb61",
			"hasRole(address)": "7ef09bca",
			"isApprovedForAll(address,address)": "e985e9c5",
			"isApprovedOrOwner(address,uint256)": "430c2081",
			"name()": "06fdde03",
			"owner()": "8da5cb5b",
			"ownerOf(uint256)": "6352211e",
			"registerDomain(address,string)": "5040ddf2",
			"registerSubDomain(address,uint256,string)": "98a60243",
			"renounceOwnership()": "715018a6",
			"resolverOf(uint256)": "b3f9e4cb",
			"revokeMinterRole(address)": "69e2f0fb",
			"safeTransferFrom(address,address,uint256)": "42842e0e",
			"safeTransferFrom(address,address,uint256,bytes)": "b88d4fde",
			"setApprovalForAll(address,bool)": "a22cb465",
			"setBaseURI(string)": "55f804b3",
			"setOwner(address,uint256)": "ab3b87fe",
			"setPrice(uint256)": "91b7f5ed",
			"setResolver(uint256,address)": "bc7b6d62",
			"setSaleState()": "1ed40559",
			"setTLD(string)": "ad59e226",
			"setTimes(uint256,uint256)": "22434836",
			"subTokenIdByIndex(uint256,uint256)": "2dc50d9a",
			"subTokenIdCount(uint256)": "76f909ae",
			"supportsInterface(bytes4)": "01ffc9a7",
			"symbol()": "95d89b41",
			"tokenByIndex(uint256)": "4f6ccce7",
			"tokenOfOwnerByIndex(address,uint256)": "2f745c59",
			"tokenURI(uint256)": "c87b56dd",
			"totalSupply()": "18160ddd",
			"transferFrom(address,address,uint256)": "23b872dd",
			"transferOwnership(address)": "f2fde38b",
			"withdraw()": "3ccfd60b"
		}
	},
	"abi": [
		{
			"inputs": [],
			"stateMutability": "nonpayable",
			"type": "constructor"
		},
		{
			"anonymous": false,
			"inputs": [
				{
					"indexed": true,
					"internalType": "address",
					"name": "owner",
					"type": "address"
				},
				{
					"indexed": true,
					"internalType": "address",
					"name": "approved",
					"type": "address"
				},
				{
					"indexed": true,
					"internalType": "uint256",
					"name": "tokenId",
					"type": "uint256"
				}
			],
			"name": "Approval",
			"type": "event"
		},
		{
			"anonymous": false,
			"inputs": [
				{
					"indexed": true,
					"internalType": "address",
					"name": "owner",
					"type": "address"
				},
				{
					"indexed": true,
					"internalType": "address",
					"name": "operator",
					"type": "address"
				},
				{
					"indexed": false,
					"internalType": "bool",
					"name": "approved",
					"type": "bool"
				}
			],
			"name": "ApprovalForAll",
			"type": "event"
		},
		{
			"anonymous": false,
			"inputs": [
				{
					"indexed": true,
					"internalType": "uint256",
					"name": "tokenId",
					"type": "uint256"
				},
				{
					"indexed": true,
					"internalType": "address",
					"name": "resolver",
					"type": "address"
				}
			],
			"name": "NewResolver",
			"type": "event"
		},
		{
			"anonymous": false,
			"inputs": [
				{
					"indexed": true,
					"internalType": "uint256",
					"name": "tokenId",
					"type": "uint256"
				},
				{
					"indexed": true,
					"internalType": "address",
					"name": "router",
					"type": "address"
				}
			],
			"name": "NewRouter",
			"type": "event"
		},
		{
			"anonymous": false,
			"inputs": [
				{
					"indexed": true,
					"internalType": "uint256",
					"name": "tokenId",
					"type": "uint256"
				},
				{
					"indexed": false,
					"internalType": "string",
					"name": "tokenUri",
					"type": "string"
				}
			],
			"name": "NewURI",
			"type": "event"
		},
		{
			"anonymous": false,
			"inputs": [
				{
					"indexed": true,
					"internalType": "address",
					"name": "previousOwner",
					"type": "address"
				},
				{
					"indexed": true,
					"internalType": "address",
					"name": "newOwner",
					"type": "address"
				}
			],
			"name": "OwnershipTransferred",
			"type": "event"
		},
		{
			"anonymous": false,
			"inputs": [
				{
					"indexed": true,
					"internalType": "address",
					"name": "from",
					"type": "address"
				},
				{
					"indexed": true,
					"internalType": "address",
					"name": "to",
					"type": "address"
				},
				{
					"indexed": true,
					"internalType": "uint256",
					"name": "tokenId",
					"type": "uint256"
				}
			],
			"name": "Transfer",
			"type": "event"
		},
		{
			"inputs": [],
			"name": "_saleIsActive",
			"outputs": [
				{
					"internalType": "bool",
					"name": "",
					"type": "bool"
				}
			],
			"stateMutability": "view",
			"type": "function"
		},
		{
			"inputs": [
				{
					"internalType": "uint256",
					"name": "",
					"type": "uint256"
				}
			],
			"name": "_tokenURIs",
			"outputs": [
				{
					"internalType": "string",
					"name": "",
					"type": "string"
				}
			],
			"stateMutability": "view",
			"type": "function"
		},
		{
			"inputs": [
				{
					"internalType": "address",
					"name": "to",
					"type": "address"
				},
				{
					"internalType": "uint256",
					"name": "tokenId",
					"type": "uint256"
				}
			],
			"name": "approve",
			"outputs": [],
			"stateMutability": "nonpayable",
			"type": "function"
		},
		{
			"inputs": [
				{
					"internalType": "address",
					"name": "owner",
					"type": "address"
				}
			],
			"name": "balanceOf",
			"outputs": [
				{
					"internalType": "uint256",
					"name": "",
					"type": "uint256"
				}
			],
			"stateMutability": "view",
			"type": "function"
		},
		{
			"inputs": [
				{
					"internalType": "uint256",
					"name": "tokenId",
					"type": "uint256"
				}
			],
			"name": "burn",
			"outputs": [],
			"stateMutability": "nonpayable",
			"type": "function"
		},
		{
			"inputs": [
				{
					"internalType": "uint256",
					"name": "tokenId",
					"type": "uint256"
				},
				{
					"internalType": "string",
					"name": "sub",
					"type": "string"
				}
			],
			"name": "burnSubDomain",
			"outputs": [],
			"stateMutability": "nonpayable",
			"type": "function"
		},
		{
			"inputs": [
				{
					"internalType": "string",
					"name": "domain",
					"type": "string"
				}
			],
			"name": "buyDomain",
			"outputs": [],
			"stateMutability": "payable",
			"type": "function"
		},
		{
			"inputs": [
				{
					"internalType": "uint256",
					"name": "tokenId",
					"type": "uint256"
				}
			],
			"name": "exists",
			"outputs": [
				{
					"internalType": "bool",
					"name": "",
					"type": "bool"
				}
			],
			"stateMutability": "view",
			"type": "function"
		},
		{
			"inputs": [
				{
					"internalType": "string",
					"name": "label",
					"type": "string"
				}
			],
			"name": "genTokenId",
			"outputs": [
				{
					"internalType": "uint256",
					"name": "",
					"type": "uint256"
				}
			],
			"stateMutability": "pure",
			"type": "function"
		},
		{
			"inputs": [],
			"name": "get3charTimes",
			"outputs": [
				{
					"internalType": "uint256",
					"name": "",
					"type": "uint256"
				}
			],
			"stateMutability": "view",
			"type": "function"
		},
		{
			"inputs": [],
			"name": "get4charTimes",
			"outputs": [
				{
					"internalType": "uint256",
					"name": "",
					"type": "uint256"
				}
			],
			"stateMutability": "view",
			"type": "function"
		},
		{
			"inputs": [
				{
					"internalType": "uint256",
					"name": "tokenId",
					"type": "uint256"
				}
			],
			"name": "getApproved",
			"outputs": [
				{
					"internalType": "address",
					"name": "",
					"type": "address"
				}
			],
			"stateMutability": "view",
			"type": "function"
		},
		{
			"inputs": [
				{
					"internalType": "string",
					"name": "domain",
					"type": "string"
				}
			],
			"name": "getOwner",
			"outputs": [
				{
					"internalType": "address",
					"name": "",
					"type": "address"
				}
			],
			"stateMutability": "view",
			"type": "function"
		},
		{
			"inputs": [],
			"name": "getPrice",
			"outputs": [
				{
					"internalType": "uint256",
					"name": "",
					"type": "uint256"
				}
			],
			"stateMutability": "view",
			"type": "function"
		},
		{
			"inputs": [],
			"name": "getPrice3Char",
			"outputs": [
				{
					"internalType": "uint256",
					"name": "",
					"type": "uint256"
				}
			],
			"stateMutability": "view",
			"type": "function"
		},
		{
			"inputs": [],
			"name": "getPrice4Char",
			"outputs": [
				{
					"internalType": "uint256",
					"name": "",
					"type": "uint256"
				}
			],
			"stateMutability": "view",
			"type": "function"
		},
		{
			"inputs": [],
			"name": "getTLD",
			"outputs": [
				{
					"internalType": "string",
					"name": "",
					"type": "string"
				}
			],
			"stateMutability": "view",
			"type": "function"
		},
		{
			"inputs": [
				{
					"internalType": "address",
					"name": "account",
					"type": "address"
				}
			],
			"name": "grantMinterRole",
			"outputs": [],
			"stateMutability": "nonpayable",
			"type": "function"
		},
		{
			"inputs": [
				{
					"internalType": "address",
					"name": "account",
					"type": "address"
				}
			],
			"name": "hasRole",
			"outputs": [
				{
					"internalType": "bool",
					"name": "",
					"type": "bool"
				}
			],
			"stateMutability": "view",
			"type": "function"
		},
		{
			"inputs": [
				{
					"internalType": "address",
					"name": "owner",
					"type": "address"
				},
				{
					"internalType": "address",
					"name": "operator",
					"type": "address"
				}
			],
			"name": "isApprovedForAll",
			"outputs": [
				{
					"internalType": "bool",
					"name": "",
					"type": "bool"
				}
			],
			"stateMutability": "view",
			"type": "function"
		},
		{
			"inputs": [
				{
					"internalType": "address",
					"name": "account",
					"type": "address"
				},
				{
					"internalType": "uint256",
					"name": "tokenId",
					"type": "uint256"
				}
			],
			"name": "isApprovedOrOwner",
			"outputs": [
				{
					"internalType": "bool",
					"name": "",
					"type": "bool"
				}
			],
			"stateMutability": "view",
			"type": "function"
		},
		{
			"inputs": [],
			"name": "name",
			"outputs": [
				{
					"internalType": "string",
					"name": "",
					"type": "string"
				}
			],
			"stateMutability": "view",
			"type": "function"
		},
		{
			"inputs": [],
			"name": "owner",
			"outputs": [
				{
					"internalType": "address",
					"name": "",
					"type": "address"
				}
			],
			"stateMutability": "view",
			"type": "function"
		},
		{
			"inputs": [
				{
					"internalType": "uint256",
					"name": "tokenId",
					"type": "uint256"
				}
			],
			"name": "ownerOf",
			"outputs": [
				{
					"internalType": "address",
					"name": "",
					"type": "address"
				}
			],
			"stateMutability": "view",
			"type": "function"
		},
		{
			"inputs": [
				{
					"internalType": "address",
					"name": "to",
					"type": "address"
				},
				{
					"internalType": "string",
					"name": "domain",
					"type": "string"
				}
			],
			"name": "registerDomain",
			"outputs": [],
			"stateMutability": "nonpayable",
			"type": "function"
		},
		{
			"inputs": [
				{
					"internalType": "address",
					"name": "to",
					"type": "address"
				},
				{
					"internalType": "uint256",
					"name": "tokenId",
					"type": "uint256"
				},
				{
					"internalType": "string",
					"name": "sub",
					"type": "string"
				}
			],
			"name": "registerSubDomain",
			"outputs": [],
			"stateMutability": "nonpayable",
			"type": "function"
		},
		{
			"inputs": [],
			"name": "renounceOwnership",
			"outputs": [],
			"stateMutability": "nonpayable",
			"type": "function"
		},
		{
			"inputs": [
				{
					"internalType": "uint256",
					"name": "tokenId",
					"type": "uint256"
				}
			],
			"name": "resolverOf",
			"outputs": [
				{
					"internalType": "address",
					"name": "",
					"type": "address"
				}
			],
			"stateMutability": "view",
			"type": "function"
		},
		{
			"inputs": [
				{
					"internalType": "address",
					"name": "account",
					"type": "address"
				}
			],
			"name": "revokeMinterRole",
			"outputs": [],
			"stateMutability": "nonpayable",
			"type": "function"
		},
		{
			"inputs": [
				{
					"internalType": "address",
					"name": "from",
					"type": "address"
				},
				{
					"internalType": "address",
					"name": "to",
					"type": "address"
				},
				{
					"internalType": "uint256",
					"name": "tokenId",
					"type": "uint256"
				}
			],
			"name": "safeTransferFrom",
			"outputs": [],
			"stateMutability": "nonpayable",
			"type": "function"
		},
		{
			"inputs": [
				{
					"internalType": "address",
					"name": "from",
					"type": "address"
				},
				{
					"internalType": "address",
					"name": "to",
					"type": "address"
				},
				{
					"internalType": "uint256",
					"name": "tokenId",
					"type": "uint256"
				},
				{
					"internalType": "bytes",
					"name": "_data",
					"type": "bytes"
				}
			],
			"name": "safeTransferFrom",
			"outputs": [],
			"stateMutability": "nonpayable",
			"type": "function"
		},
		{
			"inputs": [
				{
					"internalType": "address",
					"name": "operator",
					"type": "address"
				},
				{
					"internalType": "bool",
					"name": "approved",
					"type": "bool"
				}
			],
			"name": "setApprovalForAll",
			"outputs": [],
			"stateMutability": "nonpayable",
			"type": "function"
		},
		{
			"inputs": [
				{
					"internalType": "string",
					"name": "_uri",
					"type": "string"
				}
			],
			"name": "setBaseURI",
			"outputs": [],
			"stateMutability": "nonpayable",
			"type": "function"
		},
		{
			"inputs": [
				{
					"internalType": "address",
					"name": "to",
					"type": "address"
				},
				{
					"internalType": "uint256",
					"name": "tokenId",
					"type": "uint256"
				}
			],
			"name": "setOwner",
			"outputs": [],
			"stateMutability": "nonpayable",
			"type": "function"
		},
		{
			"inputs": [
				{
					"internalType": "uint256",
					"name": "price",
					"type": "uint256"
				}
			],
			"name": "setPrice",
			"outputs": [],
			"stateMutability": "nonpayable",
			"type": "function"
		},
		{
			"inputs": [
				{
					"internalType": "uint256",
					"name": "tokenId",
					"type": "uint256"
				},
				{
					"internalType": "address",
					"name": "resolver",
					"type": "address"
				}
			],
			"name": "setResolver",
			"outputs": [],
			"stateMutability": "nonpayable",
			"type": "function"
		},
		{
			"inputs": [],
			"name": "setSaleState",
			"outputs": [],
			"stateMutability": "nonpayable",
			"type": "function"
		},
		{
			"inputs": [
				{
					"internalType": "string",
					"name": "_tld",
					"type": "string"
				}
			],
			"name": "setTLD",
			"outputs": [],
			"stateMutability": "nonpayable",
			"type": "function"
		},
		{
			"inputs": [
				{
					"internalType": "uint256",
					"name": "__3chartime",
					"type": "uint256"
				},
				{
					"internalType": "uint256",
					"name": "__4chartime",
					"type": "uint256"
				}
			],
			"name": "setTimes",
			"outputs": [],
			"stateMutability": "nonpayable",
			"type": "function"
		},
		{
			"inputs": [
				{
					"internalType": "uint256",
					"name": "tokenId",
					"type": "uint256"
				},
				{
					"internalType": "uint256",
					"name": "index",
					"type": "uint256"
				}
			],
			"name": "subTokenIdByIndex",
			"outputs": [
				{
					"internalType": "uint256",
					"name": "",
					"type": "uint256"
				}
			],
			"stateMutability": "view",
			"type": "function"
		},
		{
			"inputs": [
				{
					"internalType": "uint256",
					"name": "tokenId",
					"type": "uint256"
				}
			],
			"name": "subTokenIdCount",
			"outputs": [
				{
					"internalType": "uint256",
					"name": "",
					"type": "uint256"
				}
			],
			"stateMutability": "view",
			"type": "function"
		},
		{
			"inputs": [
				{
					"internalType": "bytes4",
					"name": "interfaceId",
					"type": "bytes4"
				}
			],
			"name": "supportsInterface",
			"outputs": [
				{
					"internalType": "bool",
					"name": "",
					"type": "bool"
				}
			],
			"stateMutability": "view",
			"type": "function"
		},
		{
			"inputs": [],
			"name": "symbol",
			"outputs": [
				{
					"internalType": "string",
					"name": "",
					"type": "string"
				}
			],
			"stateMutability": "view",
			"type": "function"
		},
		{
			"inputs": [
				{
					"internalType": "uint256",
					"name": "index",
					"type": "uint256"
				}
			],
			"name": "tokenByIndex",
			"outputs": [
				{
					"internalType": "uint256",
					"name": "",
					"type": "uint256"
				}
			],
			"stateMutability": "view",
			"type": "function"
		},
		{
			"inputs": [
				{
					"internalType": "address",
					"name": "owner",
					"type": "address"
				},
				{
					"internalType": "uint256",
					"name": "index",
					"type": "uint256"
				}
			],
			"name": "tokenOfOwnerByIndex",
			"outputs": [
				{
					"internalType": "uint256",
					"name": "",
					"type": "uint256"
				}
			],
			"stateMutability": "view",
			"type": "function"
		},
		{
			"inputs": [
				{
					"internalType": "uint256",
					"name": "tokenId",
					"type": "uint256"
				}
			],
			"name": "tokenURI",
			"outputs": [
				{
					"internalType": "string",
					"name": "",
					"type": "string"
				}
			],
			"stateMutability": "view",
			"type": "function"
		},
		{
			"inputs": [],
			"name": "totalSupply",
			"outputs": [
				{
					"internalType": "uint256",
					"name": "",
					"type": "uint256"
				}
			],
			"stateMutability": "view",
			"type": "function"
		},
		{
			"inputs": [
				{
					"internalType": "address",
					"name": "from",
					"type": "address"
				},
				{
					"internalType": "address",
					"name": "to",
					"type": "address"
				},
				{
					"internalType": "uint256",
					"name": "tokenId",
					"type": "uint256"
				}
			],
			"name": "transferFrom",
			"outputs": [],
			"stateMutability": "nonpayable",
			"type": "function"
		},
		{
			"inputs": [
				{
					"internalType": "address",
					"name": "newOwner",
					"type": "address"
				}
			],
			"name": "transferOwnership",
			"outputs": [],
			"stateMutability": "nonpayable",
			"type": "function"
		},
		{
			"inputs": [],
			"name": "withdraw",
			"outputs": [],
			"stateMutability": "payable",
			"type": "function"
		}
	]
}